:10000000AFC100000C941D17C8C10000C6C100009C
:10001000C4C10000C2C10000C0C10000BEC10000D8
:10002000BCC10000BAC100000C94FF1B0C94CC1C96
:100030000C94CF15B2C10000B0C10000AEC10000E9
:10004000ACC10000AAC10000A8C10000A6C1000008
:10005000A4C100000C944616A0C100009EC100007F
:100060009CC100009AC1000098C1000096C1000028
:1000700094C1000092C1000090C100008EC1000038
:100080008CC100008AC1000088C1000086C1000048
:1000900084C1000082C1000080C100007EC1000058
:1000A0007CC100007AC1000078C100002B00140060
:1000B0001A000800150017002E00E00004001600CA
:1000C000070009000A002F00E1001D001B000600C8
:1000D00019000500E200825261523500E700290054
:1000E0002C0021522D00130012000C0018001C00DF
:1000F0003100340033000F000E000D000B00300003
:10010000E500380037003600100011002A002B01EE
:100110002B032B18E600E700280021522B001E02BB
:100120001F022002210222022E02E0001E001F00F8
:100130002000210022002F02E100230024002500DE
:1001400026002700E200E00001003500E30029005E
:100150002C0000003100270226022502240223027F
:100160003102340233024F0052005100500030027D
:10017000E500380235004B004E004A002A001918ED
:10018000061801000100E700280000003A003B00CB
:100190003C003D003E003F000000E0000000000089
:1001A0000000000000002F00E1000000000000003F
:1001B0000000000000004052000000000000E300CA
:1001C00000000000450044004300420041004000A0
:1001D0000000340233024F00520051005000300042
:1001E000E5000000000000000000000000004D00DD
:1001F0004B004E004A00E700000000000100007CB8
:100200002078217824782378010001000100027809
:100210000678047803780100010001000100010064
:1002200001000100010001000100010001000100C6
:100230000100010001000100277828782578267840
:1002400001000100010001000100010001000100A6
:100250000100010001000100010001000100010096
:100260000100010001000100010001001C03450024
:10027000720067006F004400610073006800200096
:100280004D0069006E00690000000C034F006D0016
:100290006B006200640000000403090409023B00D3
:1002A000020100A0FA090400000103010100092174
:1002B000110100012244000705810308000109041F
:1002C0000100010300000009211101000122320098
:1002D000070582032000011201000200000008ED62
:1002E000FE606000010102000105010980A1018595
:1002F0000319012AB700150126B700950175108171
:1003000000C0050C0901A101850419012AA00215EC
:100310000126A002950175108100C005010906A102
:1003200001050719E029E7150025019508750181E8
:10033000029501750881010507190029FF1500269E
:10034000FF009506750881000508190129051500AB
:100350002501950575019102950175039101C00074
:1003600011241FBECFEFDAE0DEBFCDBF11E0A0E069
:10037000B1E0ECE8FEE302C005900D92A83AB107A7
:10038000D9F722E0A8EAB1E001C01D92A839B2076E
:10039000E1F70E9491120C94051F32CE8430B8F41C
:1003A0006830A8F4473098F450E097E0699F400D1A
:1003B000511D1124FA0198E3899FE00DF11D1124CC
:1003C000EE0FFF1FE455FF4F85919491089581E052
:1003D00090E00895E3CF089581E00895FDCF08955A
:1003E000FBCF089581E00895F7CF0895F5CF0895E4
:1003F000FDCF089508950895FDCF089508950895B7
:10040000A6E0B0E0E6E0F2E00C948C1E49835A834B
:100410009E833091AF0189819A81311117C03E814D
:10042000332389F0222379F069D5182F682F898129
:100430009A8143D569817A81812F0E94770D269612
:10044000E3E00C94A81E4AD5182FF4CF57D5698144
:100450007A81F3CFFC01262F408151816281738123
:1004600084819581CDCFCF93DF93EC0161E0F2DF02
:10047000BE01B4DF882349F061E0CE01EBDFBE01AD
:10048000AFDF8170DF91CF91089580E0FACF0F93B5
:100490001F93CF93DF93EC0160E0DCDF8C01BE01A2
:1004A000AADFBE01C801A8DFDF91CF911F910F9194
:1004B000089521E030E0A90102C0440F551F8A953C
:1004C000E2F7CA0133C4CF93C82F81E090E00C2E2D
:1004D00002C0880F991F0A94E2F70E94890B8C2FA3
:1004E000E8DFCF91089581E00895FDCF0895FBCF17
:1004F0000895CF93C82FD2D38C2FF7DF8C2FF7DF3F
:100500002FEF84E39CE0215080409040E1F700C051
:100510000000CF91089581E0ECDF0C946A1680E032
:10052000E8DF0C947B160F931F93CF93DF938C011E
:1005300061E090DFEC01B80157DF811106C080E077
:10054000DF91CF911F910F910895B801CE0150DF37
:100550008823A9F3B801CE010E941914882379F3E6
:10056000B801CE010E94E012882349F3B801CE0100
:100570000E94B912882319F3B801CE010E94B20E6D
:100580008823E9F2F8018581882361F0C330FCE714
:10059000DF07D9F050F4C115ECE7DE07A1F0C13058
:1005A000DC47A9F0C8011EDFCBCFCB358CE7D807DD
:1005B00099F0CC35ECE7DE0761F0CA35DC4791F7FE
:1005C0000E94520BEFCFA7DFBACF0E94810BA7DFAB
:1005D000B6CF0E944A0BE6CF0E94540BE3CF0EDF4A
:1005E0000E94991517C018D00ADF0C949D1581E060
:1005F00008950895CF93DF93D82FF9DFC82F88236C
:1006000011F08D2FF6DF8C2FDF91CF910895089593
:10061000F1CF089580E0FCCF0E946114F9CFCF9311
:100620000E946114C82F8091AA018C1771F0C093A9
:10063000AA010E943A166093AB017093AC018093BB
:10064000AD019093AE018C2FE3DFCF910895ADE023
:10065000B0E0EDE2F3E00C948D1E488759876A877D
:100660007B878C879D8791116BD71F8286E0FE0167
:100670003896DE01119601900D928A95E1F78D81F1
:1006800081110CC029813A814B815C816D817E8111
:100690008F81A6D62D96E2E00C94A91ECE0101967C
:1006A000E2DE8111EFCFF6CFFC012481213019F475
:1006B0008081918154C40895CF93C82F8823B9F0C5
:1006C0008238B9F40E94761481FD11C089E30E943A
:1006D00023159ED72FEF87EE93E021508040904066
:1006E000E1F700C0000089E30E94291591D7CF915E
:1006F0000895833899F40E94761480FDF8CF83E53D
:100700000E94231585D72FEF81EE94E02150804081
:100710009040E1F700C0000083E5E6CF843899F40B
:100720000E94761482FDE3CF87E40E94231570D7E0
:100730002FEF81EE94E0215080409040E1F700C01F
:10074000000087E4D1CF8CEF8C0F813A68F48C2FB6
:100750000E94E814882321F08C2F0E94291558D775
:100760008C2F0E942315C2CF80E28C0F883040F47A
:10077000C77081E001C0880FCA95EAF7C4D6B6CF2A
:10078000EBE5EC0FE33040F4F0E0E15AFE4F8081FE
:1007900090E00E948514ABCFC85ACB3108F0A7CFA8
:1007A000EC2FF0E0EE0FFF1FE75DFE4F808191819F
:1007B0000E94AC149CCF882309F446C0823861F4AF
:1007C0000E94761481FF40C089E30E94231520D740
:1007D00089E30E9429151CC7833851F40E947614BE
:1007E00080FF32C083E50E94231512D783E5F1CF45
:1007F000843851F40E94761482FF26C087E40E9458
:10080000231506D787E4E5CF9CEF980F913A08F3BC
:1008100090E2980F983048F4877091E001C0990FEA
:100820008A95EAF7892F75D6D6CF9BE5980F933036
:1008300020F490E080E00C948514885A8B3120F4E9
:1008400090E080E00C94AC1408951F93CF93DF9355
:10085000182FEB0131DF209731F4812FACDFDF91CE
:10086000CF911F9108958FE99FE00197F1F700C0A4
:1008700000002197F0CF70E060E0893311F460E56B
:1008800070E0E3CF882311F03ED6C2C608958823D6
:1008900011F03FD6BDC60895B0E0A0E0E2E5F4E077
:1008A0000C94861E6C01D62FC72FFC011581068182
:1008B00002950F701ED6E82E8823E9F0E12E112351
:1008C000D1F08C2F807F803461F080E28D0F8830F2
:1008D000F8F08C2F807E803221F4D230C8F00023D3
:1008E000B9F08091700282FF13C082E0ADD601D6CC
:1008F00091E0E82EE926BC2EB2949FE0B922FBE0FD
:10090000FB1580F1EB2DF0E0E95FF04E0C94771EC3
:10091000E12CF1CF0C2F0F70C07F11F00295007FFA
:10092000112381F0002349F080E28D0F883010F010
:10093000D11105C0802FE7D56BD68D2F40C0802FF9
:10094000F2D5FACF8D2F37DF002361F080E28D0FD3
:10095000883010F0D11103C0802FDBD502C0802F6A
:10096000E8D556D6EB2DE850FF0B349708F048C178
:100970000E9461144DDECDB7DEB7E9E00C94A21EF3
:100980002C2F2F70F22EC07FC03219F0F29480EF1E
:10099000F822DD2341F0D13081F1112309F439C06F
:1009A0000023C9F0CACF8091700282FD10C01123CC
:1009B00041F0FF2019F08F2DA6D52AD680E07CDEED
:1009C000D1CF80E0F8DEFF2069F28F2DC6CF112352
:1009D00059F0011103C08F2D55DFC4CF013009F04C
:1009E000C1CF8F2DC1D5BECF0111BCCF8F2D4FDF11
:1009F0008F2DC5D58F2DAAD5B5CF112321F0063067
:100A000008F0B0CFE8CF053008F0ACCF8F2D3FDF36
:100A1000A9CF0023D9F3D93349F43FEF87EE93E010
:100A2000315080409040E1F700C000008D2FC3DEC0
:100A300099CF8C2F86958695837069F0813009F067
:100A400091CF8D2F9C2F9370111102C080E090E008
:100A50000E94AC1487CF8D2F9C2F9370111102C070
:100A600080E090E00E9485147DCF8C2F837081F50B
:100A7000111178CF4D2F429546954770440F440F82
:100A80002D2F2F7030E0042E02C0220F331F0A9446
:100A9000E2F790E080E0D4FF09C08FE090E002C070
:100AA000880F991F4A95E2F780959095C695C6954F
:100AB000C370822B932BC23039F040F4C13011F057
:100AC0003ED150CF35D14ECF41D14CCF2FD14ACF8F
:100AD0008695112311F08C2F8170882309F442CF61
:100AE0004D2F429546954770440F440F2D2F2F7080
:100AF00030E0042E02C0220F331F0A94E2F790E088
:100B000080E0D4FF09C08FE090E002C0880F991FF9
:100B10004A95E2F780959095C695C695C370822B4D
:100B2000932BC23039F040F4C13011F063D11ACFA9
:100B30005AD118CF66D116CF16D114CFCF7011234A
:100B400021F08C2F24D18D2F47CF8D2FA0DE8C2F1D
:100B50002CD108CFD23F39F160F4D03FB9F0D13F6A
:100B600081F0112309F43CC00111E7CE8C2F8F7165
:100B70001EC0D33FF1F0D43FA1F78091700282FDF7
:100B800020C08C2F8F71112319F311C0112339F05C
:100B9000053008F0E7CE8C2F8F7117D1E3CE0630E9
:100BA00008F0E0CEF8CF8C2F8F711111D1CFEFD09C
:100BB000D9CE112321F08C2F8F71DFD0D3CEDAD094
:100BC000D1CE112329F063E08C2F8F7126D5CACEA8
:100BD00081E03AD5023008F4C5CE82E035D5C2CEE8
:100BE000002359F0D93309F021CFEFEFF7EE23E0DE
:100BF000E150F0402040E1F717CF8C2F8F71A8CF44
:100C0000EE2009F4B8CE71D480FDB5CEF601158280
:100C100066D4BDD0C60117D062D4C7D0ACCE0F9376
:100C20001F93CF93DF93EC01688179818D81A0D1EF
:100C30008C01EED07AD0B801CE012EDEDF91CF91BB
:100C40001F910F910895CF93DF93EC018C8188233E
:100C500081F0CE0168DC81110FC04BD4882349F0AC
:100C60008D81882331F08091700282FF02C082E082
:100C7000EBD4DF91CF910895CE01D1DFCE0107DC17
:100C8000F8CF90E080E00E94851490E080E00E9420
:100C9000AC1456D4BDC40E942F15F3CF41D4FBCF62
:100CA00092959F70963091F058F4925F9F709230B9
:100CB00058F4803F19F030F4883E30F481E0089514
:100CC0009A5FF4CF843FD1F380E00895883EB0F37B
:100CD000813FD1F7F3CFFC012481222321F08081D1
:100CE00091813DD1DDCF80E00895A6E0B0E0EBE753
:100CF000F6E00C948D1E2696E2E00C94A91EA7E067
:100D0000B0E0E5E8F6E00C948D1E2796E2E00C9446
:100D1000A91E0895FECF0895FDCF0895FADFFCDFE8
:100D20009093CF018093CE0108950895F7CF089551
:100D30002091CE013091CF01822B932BEFCF2091C8
:100D4000CE013091CF0182239323E8CF2091CE01B1
:100D50003091CF0182279327E1CFDBCF0895FDCFDC
:100D60000895D7CF0895FDDFFADF9093CD018093EA
:100D7000CC01089590E080E0F6CF21E030E0A901B9
:100D800002C0440F551F8A95E2F7CA01ECCF21E05B
:100D900030E002C0220F331F8A95E2F78091CC0128
:100DA0009091CD01822B932BDECF21E030E002C069
:100DB000220F331F8A95E2F7209530958091CC0160
:100DC0009091CD0182239323CECF21E030E002C069
:100DD000220F331F8A95E2F78091CC019091CD01CB
:100DE00082279327C0CF2091CC013091CD01822B57
:100DF000932BB9CF2091CC013091CD018223932345
:100E0000B2CF2091CC013091CD0182279327ABCF77
:100E10000895262F277091E001C0990F2A95EAF7CF
:100E200023E0769567952A95E1F7660F771F660FA1
:100E3000771FFA01E60FF71F50E040E0682F70E0DF
:100E40008191DF0111979B01042E02C036952795F1
:100E50000A94E2F7217021952827292328272C932B
:100E60004F5F5F4F4430510559F70895A82FA77081
:100E700023E0969587952A95E1F7880F991F880FAB
:100E8000991FFB01E80FF91F50E040E080E021913D
:100E900030E00A2E02C0369527950A94E2F72170B9
:100EA0003327042E01C0220F0A94EAF7822B4F5FEA
:100EB0005F4F4430510559F70895262F983068F454
:100EC000873058F4682F70E087E0989F600D711D9F
:100ED000112440EB51E0822F9CCF0895292F9830A8
:100EE00058F4873048F490E060EB71E037E0239FDE
:100EF000800D911D1124BACF80E00895B0E0A0E0EC
:100F0000E4E8F7E00C94861E7C010091CC0110917E
:100F1000CD018091CE019091CF01082B192BCFE00C
:100F2000D0E0CC24C394D12CBC2EC6010C2E02C020
:100F3000880F991F0A94E2F780239123892B49F4A3
:100F4000219790F7B12C8B2DCDB7DEB7E9E00C944B
:100F5000A21EB7018C2FD6D5019791F3F4CFCF9372
:100F6000DF93EC01CBDFBE01CDD5DF91CF910895AA
:100F70001F93CF93DF93EB019091AF01992331F051
:100F8000CB01EDDFDF91CF911F910895882351F0C0
:100F9000CB01B4DF182F682FCE018FDFBE01812F68
:100FA000B1D5F0CFCB019ADF182FF8CF1F93CF9395
:100FB000DF93C091D00117E08091D1018C1304C060
:100FC000DF91CF911F910895D0E01C9FF0011D9FEC
:100FD000F00D1124EE52FE4F208131814281538168
:100FE0006481758186818BDE2196C770E5CF209163
:100FF0000A0230910B0240910C0250910D02609157
:101000000E0270910F028091100279CECF93DF9380
:1010100080911002807F09F04BC080910F028823DD
:1010200009F446C0E091D0015091D101C0910B026A
:10103000D0910A0260910C0270910D0247E05E1798
:10104000B9F18E2F90E0E49FF0011124EE52FE4F93
:101050002481222381F1489FF001499FF00D112442
:10106000DF01AE52BE4F11962C9111972C1323C065
:101070002C912D1320C015962C91159721111BC072
:1010800012962D913C91261B370B2837310598F489
:10109000809110028F70806180931002E852FE4FA1
:1010A00080818F70806180838AE092E0CCDD7EDF7A
:1010B000DF91CF910895FC013196E770C0CF482FA2
:1010C0002091D0019091D10157E0291302C080E016
:1010D000089530E0529FF001539FF00D1124EE521D
:1010E000FE4F8181681306C08081481303C085814B
:1010F0008111EECF2F5F3F4F2770E7CFA4E1B0E023
:10110000E4E8F8E00C94831E8C0186E0F801DE012F
:101110001F9601900D928A95E1F7F8018481E58090
:101120009AE0A92E92E0B92E90910E0291111AC068
:101130008823A9F0EE2089F0C801CDDDF82E8823A0
:1011400061F087E0F801D50101900D928A95E1F7F1
:10115000C501AADA5BDF4BDF59C0C80174DDFF248B
:10116000F39454C0C080D18082809380F0900F02AD
:1011700020910C0230910D02A401421B530BFF2061
:1011800009F4E9C04837510508F09CC0882309F4E8
:101190003DC090910B0280911002282F207F09F012
:1011A00056C09D1114C090910A02C91210C0E110DE
:1011B00048C08F7080618093100219DF8AE092E04E
:1011C00042DD80911002F8018683F12C1FC0E110EE
:1011D00038C06D2D8C2D73DF6D2D8C2D70DFE82EBA
:1011E0008111F3CFCF86D88A8F859889B8DE292FD1
:1011F00022952F70243078F49F702230A0F099232C
:10120000B1F0F8019681907F91F4FE2C8F2D6496B9
:10121000ECE00C949F1E2A5F2F70223060F0C80112
:1012200012DDEF2CF2CF992311F0882371F3805E49
:10123000883058F3F4CF803F40F3815F833078F7F4
:10124000E4CF80911002816080931002BECF9D1187
:1012500012C090910A02C9120EC0E1100CC0868320
:10126000C801F1DC87E0F801AAE0B2E001900D923C
:101270008A95E1F770CFC8012EDD882309F46DCF80
:10128000EE2009F46ACF80911002803280F0209124
:101290000A0230910B02398728879B868A869091B3
:1012A0000E029C871D868E87CE010896CCDC87E0D7
:1012B000F801AAE0B2E001900D928A95E1F7A6DE6E
:1012C00096DE4DCF90911002292F207F89F4682D52
:1012D0009A8A898AA6017A899E2D07DD8AE092E0A2
:1012E000B2DC87E0F50111928A95E9F780DE6DCFD7
:1012F000882309F48BCF80910B028D110FC0809150
:101300000A02C8120BC0E11009C09683C8019BDC19
:1013100087E0F50111928A95E9F778CFC801DBDC07
:10132000882309F41ACFEE2009F417CF8091100218
:10133000803208F4BCCF20910A0230910B023A832C
:1013400029839C828B8290910E029D831E828F83C3
:10135000CE010196ABCF48375105A8F5882309F493
:10136000FECEFE2CEE2009F4F8CE80910B028D11FA
:101370001EC080910A02C8121AC08091100280FD1E
:101380000DC0982F907F51F08683903F09F468CF6D
:10139000982F907F905F8F70892B61CF87E0F80145
:1013A000AAE0B2E001900D928A95E1F72FCFC80133
:1013B00092DC81117CCF80911002816080931002B9
:1013C000C80141DC23CF682D9A8A898AA6017A89CF
:1013D0009E2D8BDC87E0F50111928A95E9F7BBCE53
:1013E000AEE0B0E0E6EFF9E00C948C1E2887398778
:1013F0004A875B876C877D878E87CE0108967EDE65
:101400008823A9F06C85662339F0288539854A85BB
:101410005B857D858E8573DC17E08091D00190918E
:10142000D10189133BC02E96E3E00C94A81E87E0FF
:10143000FE013896DE01119601900D928A95E1F732
:101440008C85882349F32091D10130E0C9010196B0
:10145000877099274091D0014817190691F097E0BD
:10146000929FD001939FB00D1124AE52BE4FFE014A
:10147000319601900D929A95E1F78093D10196DD16
:10148000CBCF0CDC1092D1011092D00187E0EAE0C2
:10149000F2E0DF011D928A95E9F7BECF819FC0017E
:1014A00011248E529E4F2ADE882309F4BCCFE0918E
:1014B000D0011E9FF0011124EE52FE4F2081318198
:1014C0004281538164817581868119DC8091D001CC
:1014D00090E00196877099278093D0019ECF8091EC
:1014E00019028695869586950895809119028770D0
:1014F000089590911902977081E009F480E00895B1
:1015000080912502089590912502892B80932502D0
:10151000089580959091250298239093250208952F
:1015200010922502089590912402892B8093240221
:101530000895809590912402982390932402089511
:101540001092240208950895FECF089590911A02F2
:10155000292F282329F08095892380931A02F4CF1C
:1015600008950895FECF089590911B02292F2823F6
:10157000281721F0982B90931B02F4CF0895909197
:101580001B02292F282329F08095892380931B0291
:10159000E9CF089580911B02882321F010921B024D
:1015A00080E0E0CF08950F931F93CF93DF930091D6
:1015B000000110910101C091250280912402C82BE5
:1015C00080911B02882329F0C82B0E94D31481111B
:1015D000E1DFF801C083C0910001D091010148E032
:1015E00050E061E172E0CE010E94B41E892B59F0F7
:1015F00088E0FE01A1E1B2E001900D928A95E1F749
:10160000CE010E947814DF91CF911F910F91089520
:10161000CACF08950895FECF08959091700292FF69
:101620000EC098E0899F90011124622B60931902EB
:10163000AEDB80911902869586958695ECCFA7CB77
:101640001092190280E0E7CF9091190280958923CA
:1016500080931902282F277059F4891749F0909127
:10166000700292FF05C08695869586959EDBE8CF31
:1016700008959091700292FB222720F9281749F0D3
:1016800080FB92F9909370028FE692E046D082E060
:10169000DBCF08958091700282FB882780F991E06A
:1016A0008927E7CF81E0E5CF80E0E3CF60E070E01D
:1016B000CB01B7C360E070E0CB01ADD3F7CFA3E0BF
:1016C000B0E0E5E6FBE00C948D1E5ED369D31B828F
:1016D000CE0103967CD381E090E09093CF0180937C
:1016E000CE0181D31A8219828A8184618A83CE01D4
:1016F00001968AD3DFDF2396E2E00C94A91EDFCFA8
:10170000089554C3089541C3089556C3089565C309
:10171000089569C308956CC3089576C3089587C377
:101720000895A6E0B0E0E7E9FBE00C948B1E0E9470
:101730002E168C0180912602909127028017910726
:1017400081F019821A820E942E16682F49815A81CF
:10175000792F80E090E00E942703109327020093E6
:1017600026022696E4E00C94A71EE3D2609334028E
:101770007093350280933602909337026093300263
:10178000709331028093320290933302089508954A
:101790000895FDCF08950895FEDFFBCF0895FECF95
:1017A00008950895FEDFFBCF81E0089580EB9EE071
:1017B000C3D6EEDFF1CFE1C40895089508950895EA
:1017C000FCDFFCDFFCCF9FDF811101C098DF88E3E5
:1017D00092E09BDF8FE692E09EDF99DFA7DA8091AF
:1017E000CC019091CD01BBCA0E9425167ED2CAD4ED
:1017F00024D4E9DF0E940703A4D6D1D4D3CFA6E036
:10180000B0E0E5E0FCE00C94841ECEDF811108C05E
:1018100088DFB3D40E940F032696EBE00C94A01E41
:101820002BD488E2A82E82E0B82E750110E0F701D3
:1018300001917F01812F06D31F5F183009F43DC04D
:101840000817A9F38091380281FD02D3B4DFC82EB6
:1018500010E099249394812FF5D2082FF5018191FE
:101860005F01081729F1F12CEE24E394D02ED8263D
:101870008D2D8E21A9F0CC2099F0F9821A830E9437
:101880002E169C838B839D8291E0802F8E2109F4FC
:1018900090E049815A816B817C818D810E94270370
:1018A000F394EE0CF7E0FF12E3CFF50131970083DC
:1018B0001F5F183081F659DFACCF0813C3CFA8CF14
:1018C0001F93CF93DF9320D1EC01C11580E5D8079A
:1018D000F0F5C11580E4D80708F09AC0C03ED105E4
:1018E00020F5CD3CD10508F082C0C83AD10578F486
:1018F000C53AD10508F073C0C130D10519F1209760
:1019000009F1C430D105F0F4D0E0C0E01BC0C33C05
:10191000D105D0F7C85AD0E0CC0FDD1FCE59DE4F2D
:101920000990D881C02DD4640DC0C11580E2D807BC
:1019300008F0CDC0C11581E0D80708F05AC0C83EF4
:10194000D10510F7CE01DF91CF911F910895C036D8
:1019500082E5D80718F5C03482E5D80708F068C0DA
:10196000C03282E5D80708F05CC0C11582E5D8070F
:1019700008F493C02C2F2695269580E2289F90018D
:1019800011248C2F8370C1E0D0E002C0CC0FDD1F8A
:101990008A95E2F7C22BD32BDD68D4CFC03A82E51B
:1019A000D80760F4C03882E5D80708F456C0CF7174
:1019B000D0E0DC2FCC27C46FD06AC4CFC03C82E516
:1019C000D80708F45FC0C03E82E5D80708F09CCF76
:1019D000DC2FCC27CC27DF71C06FD06AB3CFC55ABC
:1019E000D0E0C856DE4FC881D0E0D064ABCFD06520
:1019F000A9CF8D2F2BD1182FCE01992785D0C12F9C
:101A0000D0E0DC2FCC27CC27DF71C82BD92B9ACF85
:101A1000CE01992779D0CC27DF70C82BD92BD06A7B
:101A200091CFCF71D0E0DC2FCC27C16FD06A8ACFA5
:101A30002C2F26952695277080E2289F900111244F
:101A40008C2F8370C1E0D0E002C0CC0FDD1F8A95DF
:101A5000E2F7C22BD32BDC6875CF2C2F2695269569
:101A6000277080E2289F900111248C2F8370C1E0A1
:101A7000D0E002C0CC0FDD1F8A95E2F7C22BD32B3A
:101A8000DA6860CF8C2F8F71E1D0C82FD0E0DC2FC7
:101A9000CC27CC27DF71D06255CF8C2F8F71D6D059
:101AA00055E0D695C7955A95E1F7CF70D0E0DC2F79
:101AB000CC27282F30E084FF06C044E0220F331FDC
:101AC0004A95E1F73327C22BD32BD0693BCF8D2F1B
:101AD0008F71BCD0182FCE01992716D0C12FD0E01E
:101AE000DC2FCC27CC27DF71C82BD92BD4CF462FA6
:101AF000783028F4673018F4672F0C94EA0190E0EE
:101B000080E00895F4DFDCCE82389105B9F1B0F4BD
:101B10008133910509F47DC048F48932910509F4B7
:101B20006DC08A32910509F47BC008958533910513
:101B300009F45FC08933910509F10895833E910549
:101B4000D9F138F4803E910529F1823E910579F171
:101B50000895863E9105D9F1873E910509F43EC06E
:101B6000843E910541F52091700221FF24C08091AF
:101B70006F0284FD19C087EE90E0089520916F02F6
:101B8000237009F05AC02091700223FF14C089E22B
:101B900090E0089520916F0220FD38C030917002CE
:101BA00030FF09C024FF43C090E080E008952091F9
:101BB0006F0222FDF7CF089520916F0222FD3AC0F7
:101BC0003091700230FD39C024FFF5CFEDCF209168
:101BD0006F0223FFF0CF24FDE7CFCDCF20916F021E
:101BE00023FD2EC03091700231FFEECF84EE90E0E5
:101BF000089520916F0225FFDECFC9CF20916F029B
:101C000025FD21C02091700223FFD5CF89E390E00C
:101C1000D2CF20916F0226FFCECF8AE290E00895C6
:101C200020916F0226FFC7CF81E390E0089583EEF5
:101C300090E0089582EE90E0089580EE90E008959F
:101C400086EE90E0089585E390E0089590916F020C
:101C500092FF10C041E0282F2471243009F040E0A9
:101C600031E0282F2871283009F030E0431711F0B7
:101C70002CE0822793FF10C041E0282F24712431EB
:101C800009F040E031E0282F2871283109F030E0D8
:101C9000431711F02CE082273091700230FF10C002
:101CA00051E0282F2171213009F050E041E0282F28
:101CB0002871283009F040E0541711F029E08227FC
:101CC00031FF10C041E0282F2171213109F040E09F
:101CD00031E0282F2871283109F030E0431711F046
:101CE00029E0822794FD877E089510927102109258
:101CF000720210927302109274020895CF92DF92D2
:101D0000EF92FF926B017C0138D281110DC0B2D7E6
:101D1000C61AD70AE80AF90AC0927102D092720272
:101D2000E0927302F0927402FF90EF90DF90CF90F8
:101D300008950F931F9321D2882321F09BD71F91E1
:101D40000F91089597D7009171021091720220911E
:101D5000730230917402600F711F821F931FEFCFC7
:101D600080E00895CF939C01205E3245C1E020328F
:101D7000310538F4FB01C581C11103C08F710E9488
:101D800063028C2FCF910895089590E080E00E9427
:101D9000D21E21E0833E9E4F09F020E0822F08955D
:101DA00063EE7EEF90E080E00C94F11E6FEF7FEF2A
:101DB00090E080E00C94F11ECF93DF93EC0182E081
:101DC00090E00E94CA1E8883DF91CF910895FC01A4
:101DD000608182E090E00C94D71E83E090E00E9446
:101DE000CA1E90E00895682F83E090E00C94D71EFF
:101DF000CF93DF93EC0184E090E00E94D21E9983A0
:101E00008883DF91CF910895FC016081718184E026
:101E100090E00C94F11EAB01BC018FE090E00C94BB
:101E2000E91EAB01BC0183E190E00C94E91E682F30
:101E30008EE090E00C94D71E0895FECF089508958B
:101E4000FECF0895E82FF0E0E258FD4F808108951D
:101E5000089580EA8A95F1F7089500C00895F9CFB2
:101E600008950895FECF0895EF92FF921F93CF93A8
:101E7000DF9300D000D0CDB7DEB77FD1182F6091AF
:101E80008602882309F445C019821A821B821C82AB
:101E9000862F90E09E012F5F3F4F7901B901825854
:101EA0009D4F89D18823E1F08091750290E044E054
:101EB00050E0B70182589D4F0E94B41E21E020934C
:101EC0003902892BC1F410E0BBDF812F0F900F90F6
:101ED0000F900F90DF91CF911F91FF90EF90089599
:101EE00080913902882379F384E0F70111928A9571
:101EF000E9F710923902E0917502F0E0E258FD4FE7
:101F000089819A81AB81BC8180839183A283B383D1
:101F1000DBCF70E062587D4F8091750290E082586F
:101F20009D4FC9D19FDFD1CFF894E82FE295EF7094
:101F3000F0E031A1282F2F7081E090E001C0880FE0
:101F40002A95EAF7982F9095932391A392A1892B34
:101F500082A378940895CF93DF9387E9E5DF86EC39
:101F6000E3DF84E3E1DF85E3DFDFCBE9D1E08991E3
:101F70008F3F09F0D9DF81E0C23AD807C1F7DF917E
:101F8000CF910895B0E0A0E0E8ECFFE00C94871E4C
:101F9000EC01D62E062F10E0C8018E559E4F7C0115
:101FA000FC0180818F3F09F441C0F894E82FE2954D
:101FB000EF70F0E091A18F7021E030E001C0220FBE
:101FC0008A95EAF7892F822B81A382A12095282365
:101FD00022A3789442DFEBE9F1E031E0C12C2191BA
:101FE0002F3F49F1A22FA295AF70B0E090968C914F
:101FF00090E02F7002C0959587952A95E2F780FDB5
:102000001AC0832FC82A330F81E0E23AF80739F764
:10201000F70180818F3F09F087DF61E0C11001C0C7
:1020200060E08D2D1CDFC00FD11FC882CDB7DEB799
:10203000E8E00C94A31E80E0E5CF8091020180913E
:10204000020194E0811190E09093860284E0891B64
:102050008093750280DF88E0EEE7F2E0DF01982FE1
:102060001D929A95E9F7E6E7F2E0DF011D928A9565
:10207000E9F784E03CD0E1CEA8E0B0E0E2E4F0E1B2
:102080000C948A1E8E010F5F1F4F88E0F801119299
:102090008A95E9F7F12C6F2DC80174DFF394F4E011
:1020A000FF12F9CF48E050E0B80186E792E00E94C5
:1020B000B41E21E0009709F420E0892B41F088E06C
:1020C000F801A6E7B2E001900D928A95E1F76091E0
:1020D000860270E062587D4F44E086E792E008D0C7
:1020E000182FC2DE812B2896E5E00C94A61E0895D9
:1020F000B0E0A0E0EEE7F0E10C94871E6C017B01FC
:10210000042FC22F222371F081E080933C02A6D5D8
:1021100090933B0280933A0280E0CDB7DEB7E8E0CF
:102120000C94A31ED0913C02DD23B1F380913A02BE
:1021300090913B0214D5059778F310E0A801B60101
:10214000C7010E94B41E892B31F0A801B601C70156
:102150000E94C11ECD2F10923C028C2FDECFCF9358
:102160000E946A1EC82F811102C00E94661E8C2F19
:10217000CF91089580914002089580913F02089583
:10218000FCCF0895ECDF80933F02FADF809340029A
:10219000F1DF80930201F1DF811140C00895EDDF8E
:1021A000811101C03DC0089581E0909141029A30B3
:1021B00008F080E008950F931F93CF93DF93EC0115
:1021C0008B01809141028A30A8F4B801CE0171D010
:1021D000C82F811120C0809141028F3FA9F43ED5C4
:1021E00090933E0280933D028C2FDF91CF911F91FF
:1021F0000F91089580913D0290913E02B0D4843FAA
:10220000914018F7C0E0F0CF8F5F809341028A3091
:1022100030F7C1E0E9CF10924102E6CFCBC5089577
:10222000CCC50895B0E0A0E0E8E1F1E10C94881E8F
:102230007901C82F880FDD0B41155105A9F0FE016A
:1022400093E0EE0FFF1F9A95E1F7ED5FFE4F81815E
:1022500092818E5B9D4F208130E04217530708F436
:102260009A01A9010E94C11ECE0187D6D82E8823CB
:10227000D1F001151105B9F083E0CC0FDD1F8A956F
:10228000E1F7FE01ED5FFE4F438150E004171507B3
:1022900008F4A801CD5FDE4F6C817D816E5B7D4FC0
:1022A000C7010E94C11E8D2DCDB7DEB7E7E00C94AB
:1022B000A41EECC00895FFC00895A4E0B0E0E3E6DA
:1022C000F1E10C948B1E609157027091580280913D
:1022D000590290915A024CD411E06436710581057F
:1022E000910500F126DD6E5F7F4F8F4F9F4F698311
:1022F0007A838B839C8310E000E030E020E044E0B0
:1023000050E0BE016F5F7F4F82E08CDF182F882383
:1023100049F0B0D4609357027093580280935902E9
:1023200090935A02812F2496E4E00C94A71EB0E00B
:10233000A0E0EDE9F1E10C94851E7C015B016A01EE
:1023400033DF01E010E0882311F00AE010E0C1E083
:10235000D0E0B501C701F6010995811104C02196AD
:102360000C171D072CF4CDB7DEB7EAE00C94A11EC4
:10237000CC9F9001CD9F300D300D112490E080E076
:1023800045E34A95F1F70000019682179307C1F7DC
:10239000E0CFA5E0B0E0EFECF1E10C94851E5B012D
:1023A000E090A601F090A70101E010E09E012B5FF4
:1023B0003F4F50E040E070E060E080E033DF182FF6
:1023C000882309F446C067018FEFC81AD80A6091C4
:1023D0005302709154028091550290915602C8D3D5
:1023E000643671058105910568F104E010E09E01F5
:1023F0002F5F3F4F50E040E070E060E081E012DF8F
:10240000F82E64E070E0C6019DD011E09D81981324
:1024100010E01F2149F12ED46093530270935402AF
:10242000809355029093560289819A81AB81BC8139
:1024300080934F0290935002A0935102B0935202A6
:1024400011E012C064E070E0C6017CD09D81891368
:10245000CCCFF70181819281A381B48189839A8352
:10246000AB83BC831111E0CF80914F029091500259
:10247000A0915102B0915202F50180839183A28311
:10248000B383812F2596EAE00C94A11E0F931F932E
:10249000CF93DF93EC018B0149EC51E148DF8823B6
:1024A00029F04DE551E1B801CE0141DFDF91CF9137
:1024B0001F910F9108950F931F93CF93DF93C091B6
:1024C000A601D091A701CE01019624E0FB01DC0119
:1024D00001900D922A95E1F764E070E033D0888393
:1024E0006D817E818F81988500914B0210914C0205
:1024F00020914D0230914E026017710782079307B9
:1025000049F060934B0270934C0280934D0290937C
:102510004E02F4DBDF91CF911F910F9108956FC9A7
:10252000089536D3BAD642D9D0D65ED9D7D6D9D621
:10253000F6DFEDD645D9FBCF9093A9018093A80192
:1025400008950895FC01680F791F8FEF91E3E61756
:10255000F70709F408952191822728E030E087FFEA
:1025600006C0880F892721503109C9F7F0CF880F9D
:10257000FACFCF93DF93EB0186319C47F9F40E94A9
:10258000800A9D81992389F08A7A91E009F490E08C
:1025900090935B02811107C089E255D239D880E05F
:1025A000DF91CF91089585E3F8CF80915B0281118F
:1025B00003C089E24ED2F2CF85E3FCCF81E0F0CFB9
:1025C000CF93DF93EC01FB018581882309F4CDC013
:1025D0009E0130572332310508F0ADC08FE692E0FE
:1025E0009AD8FE01E150F047E232F10520F4ED5EA9
:1025F000F04E0C94771E80916F02816080936F0281
:1026000093C0809170028860809370028DC0809129
:102610006F028260F3CF80916F028460EFCF809170
:102620006F028860EBCF809170028160EDCF809166
:1026300070028260E9CF80916F028061DFCF80916C
:102640006F028062DBCF80916F028064D7CF0E94DF
:102650004E0680916F028068D1CF80916F028C60AE
:10266000CDCF809170028360CFCF80916F028E7F3B
:10267000C5CF80917002877FC7CF80916F028D7F19
:10268000BDCF80916F028B7FB9CF80916F02877F22
:10269000B5CF809170028E7FB7CF809170028D7F11
:1026A000B3CF80916F028F7EA9CF80916F028F7D13
:1026B000A5CF80916F028F7BA1CF0E944E068091A3
:1026C0006F028F779BCF80916F02837F97CF80912E
:1026D00070028C7F99CF80916F0282FB992790F9CD
:1026E00021E0922790FB82F990FB83F987CF8091BC
:1026F0007002982F909591708E7F892B90FB81F9B5
:1027000083CF90916F02892F8F7B96FF806476CF65
:102710000E944E0690916F02892F97FB87F980588F
:102720006DCF81E00E948F0B8FE692E00E948D0BAF
:102730000E944E0680E0DF91CF91089580E0F2CFB5
:1027400090916F02892F8F7E94FF806157CF909177
:102750006F02892F8E7F90FF816050CF9091700221
:10276000892F877F93FF88604FCF81E0E4CF0F935D
:102770001F93CF93DF93C42FD22FFC018581882331
:10278000C1F040935E026AD290935D0280935C0236
:1027900080E28C0F883040F4C77081E001C0880F60
:1027A000CA95EAF70E944204DF91CF911F910F91E1
:1027B000089510915E02141331C080915C029091D3
:1027C0005D02CDD18837910548F5C0E2CD0F1D17C8
:1027D000B9F080E2810F883040F4177081E001C0C9
:1027E000880F1A95EAF70E944704C83048F481E040
:1027F0009D2F977001C0880F9A95EAF70E944204B6
:10280000802F0E943B04C83078F6D77081E001C069
:10281000880FDA95EAF70E944704C6CF80E28C0F52
:10282000883010F6C77081E001C0880FCA95EAF7BA
:10283000F2CF0F93DB0188519C478730910598F5C3
:10284000FC01EB5CF04E0C94771E06E221EE41EEAB
:102850006AE17CE7CD018BDF80E00F91089507E20C
:1028600025EE45EE6BE17CE7F5CF06E221EE40EE8A
:1028700068E17CE7EFCF07E225EE44EE69E17CE713
:10288000E9CF06E221EE42EE6CE17CE7E3CF07E21E
:1028900025EE46EE6DE17CE7DDCF08E221E045EE76
:1028A0006EE17CE7D7CF15968C91882319F01092B2
:1028B0005E02D3CF81E0D1CF909365028093640212
:1028C00008955BDC811103C080915F020895E0915F
:1028D0006402F0916502309739F00190F081E02DAB
:1028E000309711F00995089580E00895EACF089592
:1028F000E0916402F0916502309731F00280F3813B
:10290000E02D309709F009950895A3E0B0E0EBE8D9
:10291000F4E10C948D1E209162023091630228171D
:102920003907B1F09093630280936202E0916402F0
:10293000F0916502309761F00084F185E02D3097C9
:1029400039F023E029839B838A83CE010196099580
:102950002396E2E00C94A91EA3E0B0E0E2EBF4E1E0
:102960000C948D1E20916002309161022817390766
:10297000B1F09093610280936002E0916402F09163
:102980006502309761F00084F185E02D309739F0D1
:1029900024E029839B838A83CE010196099523969F
:1029A000E2E00C94A91E40910001509101019A01AE
:1029B0002E5F3F4F485F5F4F80E02417350709F4D3
:1029C0000895F90191919F019923B9F38F5FF5CF94
:1029D000882371F02091000130910101F9013296B4
:1029E000285F3F4F9191981729F0E217F307D1F72D
:1029F00080E0089581E008959C01FC0132969FEFEC
:102A000080E04191461751F09F3F19F4411101C0F8
:102A1000982F8F5F8630A9F79F3F09F40895290FFB
:102A2000311D97FD3A95F90162830895FC013296B4
:102A300008962191261303C0DF0111971C92E81715
:102A4000F907B9F70895682F80910001909101016D
:102A5000D3CF682F8091000190910101E7CFE091E1
:102A60000001F0910101329686E0DF011D928A9506
:102A7000E9F708950895FECF089581110CC081E013
:102A800080931E0160911B0170911C0180911D01BA
:102A900090911E01F0CF82E0F3CF83E080931E017E
:102AA00060911B0170911C0180911D0190911E018C
:102AB000E2CFE3CF089581E080931E0160911B0176
:102AC00070911C0180911D0190911E01D4CFF3CF14
:102AD000089591E0811101C090E090931D016091F3
:102AE0001B0170911C0180911D0190911E01C3CFAB
:102AF00080911D01089580931C0160911B017091CC
:102B00001C0180911D0190911E01B5CF80911C0187
:102B1000089580931B0160911B0170911C018091AD
:102B20001D0190911E01A7CF80911B01089508956A
:102B30000895FECF089508950895F9CF0895CF938D
:102B4000FADF9ADAF9DFC0E08C2F7CD9811105C059
:102B5000CF5FC830C9F7CF91089581E0FCCFCF9304
:102B6000DF93EC017BD08C1B9D0BDF91CF910895FF
:102B7000CF92DF92EF92FF926B017C017BD06C19B8
:102B80007D098E099F09FF90EF90DF90CF90089507
:102B900085B7806885BF85B7806885BF08951F9217
:102BA0001FB61F9211248F939F93AF93BF93809171
:102BB0006602811113C08091870290918802A091D2
:102BC0008902B0918A024196A11DB11D80938702AE
:102BD00090938802A0938902B0938A02BF91AF912B
:102BE0009F918F911F901FBE1F90189580918F020B
:102BF000843031F10E94EF021092660288E190E089
:102C000020E40FB6F894A895809360000FBE20933F
:102C1000600083B7817F846083BF83B7816083BF97
:102C20007894889583B78E7F83BF0FB6F894A89564
:102C300080916000886180936000109260000FBEF8
:102C400008950E944E060C94F30282E084BD93E046
:102C500095BD9AEF97BD80936E0008952FB7F894B5
:102C60008091870290918802A0918902B0918A0296
:102C70002FBF08952FB7F894609187027091880252
:102C80008091890290918A022FBF089578941F92B3
:102C90001FB61F9211248F939F93AF93BF93809180
:102CA000870290918802A0918902B0918A020196D0
:102CB000A11DB11D8093870290938802A093890281
:102CC000B0938A02BF91AF919F918F911F901FBEC9
:102CD0001F90189587E797E7909301088093000865
:102CE00088E19AE00FB6F894A895809360000FBE33
:102CF00090936000FFCF88E19AE00FB6F894A89512
:102D0000809360000FBE90936000FFCF8EE1489BE0
:102D100002C08150E1F7489BFECF0895589880E2A9
:102D20008A95F1F7589A0895FC013BE03A95F1F73E
:102D300098E020E080E031E040E14A95F1F7880F2B
:102D4000489B02C08160232742E04A95F1F70000CA
:102D500040E14A95F1F7915079F790E19A95F1F7B2
:102D600099B132E03A95F1F7000040E14A95F1F768
:102D7000917092272081920F90830895A1E0B0E096
:102D8000E3ECF6E1C6C719828C017C01E60EF11C6A
:102D90000E151F0539F481E09981911180E021968B
:102DA000E6E0D3C7B3DFCE010196BEDFF801819321
:102DB0008F01EECF509A589A08955098589AE89AF1
:102DC000E9E6F0E080818C7F808308956150770B85
:102DD00091E001C0990F6A95EAF720E031E0911186
:102DE00008C0222391F0589A80E28A95F1F758980A
:102DF0000895492F482339F0589A232740E24A95ED
:102E0000F1F79695ECCF5898F9CF5898EDCFFF92FF
:102E10000F931F93CF93DF93EC018C01060F111DCD
:102E2000C017D10721F4CDB7DEB7E5E08FC7F99021
:102E300075DF68E08F2DCADFF3CF1F920F920FB6B8
:102E40000F9211240F931F932F933F934F935F93F0
:102E50006F937F938F939F93AF93BF93EF93FF9362
:102E6000CF93DF930F92CDB7DEB719824FDFCE013C
:102E700001965ADF082F069506950695282F22956C
:102E80002570902F9570290F922F93702695269577
:102E9000920F982797708981982B09F058C00430B9
:102EA00008F055C080E18A95F1F7589A509A82E06F
:102EB0008A95F1F700C0589888E0089F8001112496
:102EC000D801AD5FBE4F1696ED91FC9117973097E4
:102ED000A9F06091A6017091A70114962D913C91E3
:102EE0001597260F371F11968D919C911297680F99
:102EF000791F13964C9113978C910995F801ED5F0A
:102F0000FE4F6381662349F02091A6013091A7010D
:102F100084819581820F931F7ADF00DF80E18A959B
:102F2000F1F758985098589A80E18A95F1F7F8018E
:102F3000ED5FFE4F6081662349F02091A60130913C
:102F4000A70181819281820F931F18DFDFDE0F902E
:102F5000DF91CF91FF91EF91BF91AF919F918F91B1
:102F60007F916F915F914F913F912F911F910F91A1
:102F70000F900FBE0F901F9018950F931F93CF9334
:102F8000DF93EC0104970CF049C0F894509A5898DC
:102F900085E08A95F1F700009C2F969595708C2F0F
:102FA0008570980F892F83709695969523E0CC0FA6
:102FB000DD1F2A95E1F7980F8E01092BAFDE00C0C7
:102FC00068E0802F03DF80E18A95F1F75098589AE6
:102FD000489B1DC087E090E048991BC0FE01ED5F53
:102FE000FE4F63816623F1F02091A6013091A70185
:102FF00084819581820F931FC1DE811113C0509A85
:10300000589A7894DF91CF911F910F91089500C045
:10301000DFCF019729F4509A589A789480E0F2CF44
:1030200000C0DACF73DE80E28A95F1F75898509AA3
:1030300080E18A95F1F7CD5FDE4F6881662349F024
:103040002091A6013091A70189819A81820F931F57
:10305000DEDE64DE789481E0D5CF089508959B018B
:10306000BA0190918F029430E1F48F708093E9005F
:103070009FEF8091E800915085FD06C085ED8A950F
:10308000F1F700009111F5CF8091E80085FF09C0AC
:1030900050E040E0C901B0D18091E8008E77809384
:1030A000E800089543E050E0BC0182E0D8CFCF9320
:1030B000DF93EC011DDD48E050E0BE0181E0CFDF91
:1030C00088E0FE01A7E6B2E001900D928A95E1F753
:1030D000DF91CF91089580918E02811107C01AD39C
:1030E00071D38091E20084608093E2000895109291
:1030F0008E020895E0DC81E0ECCC60918B0281E0EF
:10310000611101C080E0C9CC90918F0281E09430C0
:1031100009F080E060918B02CCCC42E061EC81E070
:1031200075D242E261EC82E071D290918F0281E02F
:10313000943009F080E060918B029FCC80919102E5
:10314000833009F45EC030F48130C1F1823009F47B
:1031500094C008958A3009F483C08B3009F46BC0A1
:10316000893009F04DC080919002813209F048C049
:103170008091940290919502029708F041C080914D
:10318000E800877F8093E8008091E80082FF34C0E8
:103190009091F3008091F200029731F48091F10058
:1031A000813011F0863019F48091F100A4DC809117
:1031B000E8008B778093E8005DD222C08091900276
:1031C000813AF1F48091E800877F8093E800809154
:1031D000940290919502892B59F468E087E692E079
:1031E00070E057D18091E8008B778093E8000895D4
:1031F00060E090E080E0F4CF80918F028111C4CF35
:10320000089580919002813AD9F78091940290912B
:103210009502892BA9F78091E800877F8093E800C9
:103220008091E80080FFFCCF63DC8093F100809107
:10323000E8008E77BFCF80919002813209F78091AC
:10324000940290919502892BD9F68091E800877FAE
:103250008093E8000FD2809192023BDC0C944E06E2
:1032600080919002813261F68091E800877F80939F
:10327000E80000D2809193024CCC80919002813A78
:1032800009F0BECF8091E800877F8093E8008091AD
:10329000E80080FFFCCF48DCC8CF84B7877F84BFBD
:1032A0000FB6F894A89580916000886180936000C3
:1032B000109260000FBE80E890E00FB6F894809303
:1032C0006100909361000FBE02CC24D27BD2E2EE6B
:1032D000F0E08081846080837894DEC48FE191E0A7
:1032E000EBCA80918F02853029F480918F0285305E
:1032F00011F0A7CC08957ADC22DC8823B1F3809109
:103300008D02882391F362D00E944E06EECF08957D
:103310009A01409196025091970200C0492F55277B
:103320004330510519F168F44130510509F444C0A6
:103330004230510509F445C090E080E050E040E0A3
:1033400025C04132510549F142325105A9F784E4C3
:1033500090E04BE153E061157105C1F082E390E02C
:1033600049EE52E06130710589F0E6CF992781304E
:10337000910581F0009729F00297F1F6ECE6F2E072
:1033800002C0E8E9F2E0849190E0AF01F9015183D5
:1033900040830895EAE8F2E0F6CF89E090E04EEA53
:1033A00052E06115710591F389E090E047EC52E03D
:1033B0006130710559F3C0CF82E190E047ED52E0F2
:1033C000E5CF8BE390E04CE952E0E0CF80E189BDAE
:1033D00082E189BD09B400FEFDCF8091D8008F7DC8
:1033E0008093D8008091E00082608093E00080911B
:1033F000E00081FDFCCF0895AF92BF92CF92DF92A3
:10340000FF920F931F93CF93DF936C01EB018A011F
:1034100050D1F82E811123C00115110539F0F801A2
:1034200080819181C81BD90BC80ED91EB12CA12C4B
:103430002097A9F08091E80085FD21C08091E800E7
:103440008E778093E80001151105A1F0F8018081C5
:103450009181A80EB91EB182A08285E0F82E8F2D31
:10346000DF91CF911F910F91FF90DF90CF90BF9090
:10347000AF9008951ED18823D9F2F82EF0CFF6012F
:1034800081916F018093F1002197FFEFAF1ABF0A7E
:10349000CFCFFC01809196029091970286179707F3
:1034A000A0F06115710529F49091E8009E77909342
:1034B000E80090E06115710551F4911108C0809108
:1034C000E80082FF34C080E00895BC01F2CF809113
:1034D0008F028823C1F18530C1F18091E80083FD1E
:1034E00030C08091E80082FDEACF8091E80080FF43
:1034F000E1CF8091F3002091F200382F6115710522
:1035000019F02830310558F091E02830310509F0E4
:1035100090E02091E8002E772093E800CBCF8191B6
:103520008093F100615071092F5F3F4FE7CF809189
:103530008F02882341F0853041F08091E80083FFBD
:10354000BECF81E0089582E0089583E00895FC01F4
:10355000809196029091970286179707A0F06115C7
:10356000710529F48091E8008E778093E80090E05F
:103570006115710551F4911108C08091E80082FF36
:1035800035C080E00895BC01F2CF80918F0288237E
:10359000C9F18530C9F18091E80083FD31C0809187
:1035A000E80082FDEACF8091E80080FFE1CF8091C2
:1035B000F3002091F200382F6115710519F02830C1
:1035C000310558F091E02830310509F090E0809104
:1035D000E8008E778093E800CBCF84918093F10050
:1035E0003196615071092F5F3F4FE6CF80918F0276
:1035F000882341F0853041F08091E80083FFBDCF02
:1036000081E0089582E0089583E00895982F97302F
:1036100028F08F708093E90081E008959093E9008D
:10362000242F762F50E0981731F07091EC00209104
:10363000ED005091F00021FD02C09F5FE8CF309176
:10364000EB003E7F3093EB003091ED003D7F3093F7
:10365000ED003091EB0031603093EB007093EC00A3
:103660002093ED005093F0002091EE0027FDE5CF70
:1036700080E008958091900287FF13C08091E80058
:1036800082FF06C08091E8008B778093E80004C039
:1036900080918F028111F2CF089580918F0288234B
:1036A000D9F38091E80080FFF8CF8091E8008E7711
:1036B000ECCF2091E4003091E50095E6A90120913E
:1036C000EC00822F817020FF06C08091E80080FF0F
:1036D00006C080E008952091E80022FD1AC0809184
:1036E0008F02882389F0853089F08091EB0085FD79
:1036F0000FC02091E4003091E50042175307F9F222
:103700009150E1F684E0089582E0089583E0089501
:1037100081E0089567D06ED0E0EEF0E080818160B6
:103720008083E8EDF0E080818F77808319BCA7ED7E
:10373000B0E08C918E7F8C9380818F7E80831092FD
:103740008E0208950F931F93CF93DF934BD052D0E7
:10375000C8EDD0E088818F778883888180688883EE
:1037600088818F7D888319BC10928F0210928B0202
:1037700010928D0210928C0200EE10E0F801808110
:103780008B7F808388818160888342E060E080E075
:103790003DDFE1EEF0E080818E7F8083E2EEF0E0BD
:1037A000808181608083808188608083F80180814E
:1037B0008E7F8083888180618883DF91CF911F9184
:1037C0000F910895E8EDF0E080818F7E8083E7ED32
:1037D000F0E080818160808384E082BF81E080931B
:1037E0008E02B0CFE8EDF0E080818E7F8083109272
:1037F000E20008951092DA001092E10008951F92FD
:103800000F920FB60F9211242F933F934F935F9314
:103810006F937F938F939F93AF93BF93EF93FF9398
:103820008091E10082FF0AC08091E20082FF06C021
:103830008091E1008B7F8093E1002DD28091DA00AE
:1038400080FF18C08091D80080FF14C08091DA00FA
:103850008E7F8093DA008091D90080FF91C080E153
:1038600089BD82E189BD09B400FEFDCF81E080936E
:103870008F0231DC8091E10080FF18C08091E2006E
:1038800080FF14C08091E2008E7F8093E2008091DF
:10389000E20080618093E2008091D8008062809392
:1038A000D80019BC85E080938F0227DC8091E1006D
:1038B00084FF2AC08091E20084FF26C080E189BD98
:1038C00082E189BD89B5982F917080FFFBCF8091EF
:1038D000D8008F7D8093D8008091E1008F7E809307
:1038E000E1008091E2008F7E8093E2008091E2000F
:1038F00081608093E20080918B02882309F445C0A7
:1039000084E080938F0200DC8091E10083FF27C078
:103910008091E20083FF23C08091E100877F809344
:10392000E10082E080938F0210928B028091E1008F
:103930008E7F8093E1008091E2008E7F8093E20091
:103940008091E20080618093E20042E060E080E0EC
:103950005DDE8091F00088608093F000CBDBFF910A
:10396000EF91BF91AF919F918F917F916F915F91F7
:103970004F913F912F910F900FBE0F901F90189570
:1039800019BC10928F02B3DB75CF8091E30087FDE5
:1039900093E090938F02B7CF1F920F920FB60F92C2
:1039A00011242F933F934F935F936F937F938F9344
:1039B0009F93AF93BF93CF93DF93EF93FF93D091F8
:1039C000E900DF708091EC00C82FC17080FDC0E875
:1039D0001092E9008091F000877F8093F000789446
:1039E0001ED01092E9008091F00088608093F00072
:1039F000CD2BCF70C093E900FF91EF91DF91CF9174
:103A0000BF91AF919F918F917F916F915F914F91F6
:103A10003F912F910F900FBE0F901F901895AAE223
:103A2000B0E0E4E1FDE178C180E992E02091F100AD
:103A3000FC012193CF01F2E088399F07B9F77EDBC3
:103A40008091E80083FF16C18091900290919102CD
:103A50009A3008F00FC1E92FF0E0E45CF04E47C166
:103A6000803899F0823809F005C1809194028F70F6
:103A7000873008F0FFC08093E9008091EB0085FB60
:103A8000882780F91092E90006C080918C029091FD
:103A90008D02911182609091E800977F9093E800E9
:103AA0008093F1001092F1008091E8008E77DFC0E2
:103AB000882309F4CDC0823009F0DCC080919202E5
:103AC0008111D0C0809194028F702FEF280F263083
:103AD00008F0D0C08093E9002091EB0020FFC2C025
:103AE000933031F48091EB0080628093EB00BAC098
:103AF0009091EB0090619093EB0021E030E001C0E9
:103B0000220F8A95EAF72093EA001092EA0080914A
:103B1000EB008860EACF8111ADC0109192021F774F
:103B20008091E3008078812B8093E3008091E8000E
:103B3000877F8093E8009EDD8091E80080FFFCCFC6
:103B40008091E30080688093E30082E0111183E0BC
:103B500080938F028FC08058823008F08BC0809194
:103B60009202909193028C3D23E0920799F583E0B5
:103B70008A838AE289834FB7F894DE01139620E0A6
:103B80003EE051E2E32FF0E050935700E49120FF34
:103B900003C0E295EF703F5FEF708E2F90E0EA3048
:103BA000B8F0C7968D939D932F5F243159F74FBF7F
:103BB0008091E800877F8093E8006AE270E0CE01A0
:103BC000019667DC8091E8008B778093E80052C013
:103BD000C096E8CF6091940270919502AE014F5F5C
:103BE0005F4F96DBBC01892B09F444C09091E8003B
:103BF000977F9093E80089819A81A9DCE3CF803890
:103C0000C9F58091E800877F8093E80080918B025E
:103C10008093F10049CF81112DC090919202923092
:103C200048F58091E800877F8093E80090938B02AD
:103C300021DD80918B02882311F084E005C0809102
:103C4000E30087FDFACF81E080938F0266DA12C02D
:103C500080919202813071F481E0933009F080E02C
:103C600080938D021092E9008091E800877F809315
:103C7000E80000DD8091E80083FF0AC08091E80041
:103C8000877F8093E8008091EB0080628093EB0057
:103C9000AA96E3E05DC00895CF9380918F028823B8
:103CA00099F0C091E900CF709091EC00892F81705C
:103CB00090FD80E8C82B1092E9008091E80083FD18
:103CC000AEDECF70C093E900CF91089523DD10924E
:103CD0008F020895E8EDF0E08081806180838AE1C1
:103CE0008A95F1F700C08091D90081700895EE0F98
:103CF000FF1F0590F491E02D09942F923F924F926F
:103D00005F926F927F928F929F92AF92BF92CF926B
:103D1000DF92EF92FF920F931F93CF93DF93CDB774
:103D2000DEB7CA1BDB0B0FB6F894DEBF0FBECDBFEC
:103D300009942A88398848885F846E847D848C84BD
:103D40009B84AA84B984C884DF80EE80FD800C81C6
:103D50001B81AA81B981CE0FD11D0FB6F894DEBFA9
:103D60000FBECDBFED010895FB01DC0104C08D91B4
:103D70000190801921F441505040C8F7881B990BDD
:103D80000895FB01DC0102C001900D9241505040AA
:103D9000D8F70895F999FECF92BD81BDF89A992779
:103DA00080B50895A8E1B0E042E050E020C0262FA1
:103DB000F999FECF92BD81BDF89A019700B4021621
:103DC00039F01FBA20BD0FB6F894FA9AF99A0FBECF
:103DD00008950396272FECDFEADF252FE9DF242F54
:103DE000E7CF0196272FE4DFE2CFDC01CB01FC0116
:103DF000F999FECF06C0F2BDE1BDF89A319600B444
:103E00000D9241505040B8F70895F894FFCF8A04BE
:103E10008A04C004C0041905B204B204B204350512
:103E20009E05AA05AA053513A7133D1307130B1307
:103E300041130F13451351131B13A0131F135513D5
:103E400023135913811327135D1388132D13631341
:103E50006B131313491317134D1331136713771390
:103E600091139E1301133913AE1335143B1425140B
:103E70002F14411447144D14301D581D3A1E581D5F
:0C3E80003A1E8B1DAB1D3A1EFF1D0B1ED1
:103E8C001C02010000000100000000000000040101
:103E9C000000000405000000000000000001008686
:103EAC001557182E182D185218E200E900EA00B523
:103EBC0000B600B700CD008301CC008A01920194BA
:103ECC00012102230224022502260227022A02B320
:103EDC0000B4006F0070009F01CB019F02A0028113
:103EEC008283E200E900EA00B500B600B700CD001D
:103EFC008301CC008A019201940121022302240245
:103F0C002502260227022A02B300B4006F007000BB
:103F1C009F01CB019F02A002818283F4F5F6F73159
:083F2C00333297C6343542021E
:00000001FF
