:100000000C94AE010C9432160C94CB010C94CB01E1
:100010000C94CB010C94CB010C94CB010C94CB0130
:100020000C94CB010C94CB010C94411D0C94151E27
:100030000C945B180C94CB010C94CB010C94CB0169
:100040000C94CB010C94CB010C94CB010C94CB0100
:100050000C94CB010C94FE180C94CB010C94CB01A6
:100060000C94CB010C94CB010C94CB010C94CB01E0
:100070000C94CB010C94CB010C94CB010C94CB01D0
:100080000C94CB010C94CB010C94CB010C94CB01C0
:100090000C94CB010C94CB010C94CB010C94CB01B0
:1000A0000C94CB010C94CB010C94CB012B001400CD
:1000B0001A000800150017002E00E00004001600CA
:1000C000070009000A002F00E1001D001B000600C8
:1000D00019000500E200825221522B01E3002900A1
:1000E0002C0021522D00130012000C0018001C00DF
:1000F0003100340033000F000E000D000B00300003
:10010000E500380037003600100011002A005200C8
:1001100051005101E600E700280021522B001E0289
:100120001F022002210222022E02E0001E001F00F8
:100130002000210022002F02E100230024002500DE
:1001400026002700E200E00000003500E30029005F
:100150002C0000003100270226022502240223027F
:100160003102340233024F0052005100500030027D
:10017000E500380235004B004E004A002A004B00D3
:100180004E004D000100E700280000003A003B004F
:100190003C003D003E003F000000E0000000000089
:1001A0000000000000002F00E1000000000000003F
:1001B0000000000000004052000000000000E300CA
:1001C00000000000450044004300420041004000A0
:1001D0000000340233024F00520051005000300042
:1001E000E5000000000000000000000000004D00DD
:1001F0004B004E004A00E700000000000100007CB8
:100200002078217824782378010001000100027809
:100210000678047803780100010001000100010064
:1002200001000100010001000100010001000100C6
:100230000100010001000100277828782578267840
:1002400001000100010001000100010001000100A6
:100250000100010001000100010001000100010096
:100260000100010001000100010001001C03450024
:10027000720067006F004400610073006800200096
:100280004D0069006E00690000000C034F006D0016
:100290006B006200640000000403090409023B00D3
:1002A000020100A0FA090400000103010100092174
:1002B0001101000122400007058103080001090423
:1002C0000100010300000009211101000122320098
:1002D000070582032000011201000200000008ED62
:1002E000FE606000010102000105010980A1018595
:1002F0000319012AB700150126B700950175108171
:1003000000C0050C0901A101850419012AA00215EC
:100310000126A002950175108100C005010906A102
:1003200001050719E029E7150025019508750181E8
:10033000029501750881010507190029FF1500269E
:10034000FF00950675088100050819012905950526
:1003500075019102950175039101C00011241FBE22
:10036000CFEFDAE0DEBFCDBF11E0A0E0B1E0E8E41E
:10037000F1E402C005900D92A43AB107D9F722E04A
:10038000A4EAB1E001C01D92AC38B207E1F70E94C7
:10039000C1130C9463200C9400008430B8F46830CE
:1003A000A8F4473098F450E097E0699F400D511D44
:1003B0001124FA0198E3899FE00DF11D1124EE0F3D
:1003C000FF1FE455FF4F85919491089581E090E0DF
:1003D00008950E94CD01089581E0089581E0089577
:1003E0000E94EE01089508950E94F3010895A5E08A
:1003F000B0E0EDEFF1E00C94E31F49835A833091B4
:10040000AB0189819A81311119C0662399F02223A9
:1004100089F00E94DF07182F682F89819A810E9436
:10042000BB0769817A81812F0E94AD0E2596E3E09A
:100430000C94FF1F0E94CD07182FF3CF0E94DF07F7
:1004400069817A81F1CFFC01262F4081518162813F
:10045000738184810E94F701089581E00895CF930C
:10046000DF93EC0160E00E942302BE010E94F401D0
:10047000DF91CF91089508950E948A060E943B0261
:100480002FEF84E39CE0215080409040E1F700C0D2
:10049000000008950E943C020E94221908950E94C3
:1004A0003C020E94331908950F931F93CF93DF935B
:1004B0008C0161E00E942302EC01B8010E94F0016E
:1004C000811106C080E0DF91CF911F910F910895B7
:1004D000B801CE010E9450158823A1F3B801CE01C6
:1004E0000E94E613882371F3B801CE010E94C21462
:1004F000882341F3F8018281882361F0C330FCE74F
:10050000DF07E9F058F4C115ECE7DE07A9F0C130C8
:10051000DC47B9F0C8010E94EC01D5CFCB358CE7A0
:10052000D807A9F0CC35ECE7DE0771F0CA35DC4717
:1005300089F70E94100CEECF0E944A02C3CF0E949E
:10054000180C0E944F02BECF0E94060CE3CF0E94FF
:10055000140CE0CF0E9438180E94D10208950E9426
:10056000D5020E943D180895089581E008950895E8
:10057000CF93DF93D82F0E94B502C82F882319F09C
:100580008D2F0E94B7028C2FDF91CF91089508958F
:10059000CF93C82F0E94B4028C2F0E94B802CF9133
:1005A000089580E00E94C80208950E9458170E9492
:1005B000C8020895CF930E945817C82F8091A601B2
:1005C0008C1779F0C093A6010E94C7186093A70109
:1005D0007093A8018093A9019093AA018C2F0E9487
:1005E000C802CF910895ABE0B0E0E9EFF2E00C94DF
:1005F000E41F4F83588769877A878B8761110E9430
:10060000510B1E821D8285E0FE013796DE01119698
:1006100001900D928A95E1F78C819D81892B61F47F
:1006200049815A816B817C818D819E810E94790AEA
:100630002B96E2E00C94002089819A8189238F3FD8
:1006400079F3CE0101960E942D028111E9CFF0CFFE
:10065000FC01808191810E9411080895CF93C82FD9
:100660008823C9F08238C9F40E94581781FD13C04D
:1006700089E30E94090B0E94720B2FEF87EE93E033
:10068000215080409040E1F700C0000089E30E94C3
:10069000110B0E94720BCF9108958338A1F40E9430
:1006A000581780FDF8CF83E50E94090B0E94720B5A
:1006B0002FEF81EE94E0215080409040E1F700C0A0
:1006C000000083E5E4CF8438A1F40E94581782FD2E
:1006D000E2CF87E40E94090B0E94720B2FEF81EE9C
:1006E00094E0215080409040E1F700C0000087E492
:1006F000CECF8CEF8C0F813A90F46C2F809100015B
:10070000909101010E94D317882329F08C2F0E9419
:10071000110B0E94720B8C2F0E94090BBACF80E242
:100720008C0F883048F4C77081E001C0880FCA95EB
:10073000EAF70E94340BADCFEBE5EC0FE33040F469
:10074000F0E0E65AFE4F808190E00E947717A3CF39
:10075000C85ACB3108F09FCFEC2FF0E0EE0FFF1F0F
:10076000EC5DFE4F808191810E949C1794CF88237D
:1007700009F44DC0823879F40E94581781FF47C0B0
:1007800089E30E94090B0E94720B89E30E94110BFE
:100790000E94720B0895833859F40E94581780FF05
:1007A00036C083E50E94090B0E94720B83E5EECFF1
:1007B000843859F40E94581782FF29C087E40E94A8
:1007C000090B0E94720B87E4E1CF9CEF980F913ADE
:1007D000E8F290E2980F983050F4877091E001C0F1
:1007E000990F8A95EAF7892F0E943A0BD1CF9BE5A2
:1007F000980F933028F490E080E00E9477170895D6
:10080000885A8B3120F490E080E00E949C17089574
:100810001F93CF93DF93182FEB010E942E03209795
:1008200039F4812F0E94B703DF91CF911F91089572
:100830008FE99FE00197F1F700C000002197EFCF0B
:1008400070E060E0893311F460E570E00E94080414
:100850000895882321F00E94340B0E94720B0895A2
:10086000882321F00E943A0B0E94720B0895B0E099
:10087000A0E0EDE3F4E00C94DD1F6C01D62FC72F50
:10088000FC011281058102950F700E942A0BE82E4F
:100890008823E9F0E12E1123D1F08C2F807F803462
:1008A00051F080E28D0F8830F8F0011104C08C2FD8
:1008B000807E8032C9F08091680282FF15C082E09C
:1008C0000E94D50B0E942A0B91E0E82EE926BC2E4F
:1008D000B2949FE0B922FBE0FB15B8F1EB2DF0E0FC
:1008E000EB59FF4D0C94CE1FE12CF1CF0C2F0F7064
:1008F000C07F11F00295007F112399F0002359F079
:1009000080E28D0F883010F0D11107C0802F0E9437
:10091000340B0E94720B8D2F63C0802F0E94440BFA
:10092000F8CF8D2F0E94B703002379F080E28D0F5E
:10093000883010F0D11104C0802F0E943A0B03C000
:10094000802F0E944A0B0E94720B2B2D2850330BD4
:100950002430310520F40E9458170E94C802EE206E
:1009600089F00E94260B80FD0DC0F60112820E94C4
:10097000200B0E941907C6010E944E060E94200B00
:100980000E942907CDB7DEB7E9E00C94F91F2C2FA0
:100990002F70F22EC07FC03219F0F29480EFF8224F
:1009A000DD2381F0D13009F449C0112309F451C08D
:1009B000002309F448C0F601858180FFACCF8F7019
:1009C000858341C08091680282FD15C0112359F0D2
:1009D000FF2029F08F2D0E94340B0E94720B80E0C3
:1009E0000E942E03B2CF80E00E94B703FF2009F4DB
:1009F000ACCF8F2DA2CF112381F0011106C00E9430
:100A0000540B8F290E942904A0CF0130C1F70E9406
:100A1000540B8F290E945B0B98CF011106C00E94D6
:100A2000680B8F2D0E94300490CF013009F48DCFD8
:100A30008F2D0E9430040E94680B87CF112329F06C
:100A4000063008F082CF8F2DDDCF053008F07DCF46
:100A5000E8CF002331F3D93349F4FFEF27EE33E039
:100A6000F15020403040E1F700C000008D2F0E947F
:100A7000B7036BCF8C2F86958695837069F0813094
:100A800009F063CF8D2F9C2F9370111102C080E06D
:100A900090E00E949C1759CF8D2F9C2F93701111BD
:100AA00002C080E090E00E9477174FCF8C2F8370B8
:100AB000A1F511114ACF4D2F429546954770440F2D
:100AC000440F2D2F2F7030E0042E02C0220F331F51
:100AD0000A94E2F790E080E0D4FF09C08FE090E054
:100AE00002C0880F991F4A95E2F780959095C695A8
:100AF000C695C370822B932BC23049F058F4C13095
:100B000019F00E94E90621CF0E94E0061ECF0E9444
:100B1000F2061BCF0E94DD0618CF8695112311F037
:100B20008C2F8170882309F410CF4D2F4295469564
:100B30004770440F440F2D2F2F7030E0042E02C059
:100B4000220F331F0A94E2F790E080E0D4FF09C03F
:100B50008FE090E002C0880F991F4A95E2F78095D8
:100B60009095C695C695C370822B932BC23049F0E1
:100B700058F4C13019F00E945407E7CE0E944B0789
:100B8000E4CE0E945D07E1CE0E940107DECECF7069
:100B9000112329F08C2F0E9419078D2F33CF8D2F11
:100BA0000E9430048C2F0E942907CFCED23F41F102
:100BB00060F4D03FB9F0D13F81F0112309F446C071
:100BC0000111A9CE8C2F8F711FC0D33F01F1D43FEB
:100BD000A1F78091680282FD24C08C2F8F711123B0
:100BE00011F312C0112341F0053008F0AECE8C2F66
:100BF0008F710E943B07A9CE063008F0A6CEF7CF32
:100C00008C2F8F711111CFCF0E9419079ECE112307
:100C100029F08C2F8F710E940D0797CE0E94080734
:100C200094CE112349F0CF718C2F0E94190763E0F5
:100C30008C2F0E94B70B89CE81E00E94D50B023029
:100C400008F483CE82E00E94D50B7FCE002359F0BA
:100C5000D93309F00BCF8FEF97EEE3E0815090404E
:100C6000E040E1F701CF8C2F8F719DCF0F931F9341
:100C7000CF93DF93EC01688179818A810E941C08FF
:100C80008C010E9466070E94DC06B801CE010E941A
:100C90003704DF91CF911F910F910895CF93DF9388
:100CA000EC018B819C81892B29F088819981892392
:100CB0008F3F51F4DF91CF910895CE010E94360607
:100CC000CE010E942F02F6CFCE010E945402811164
:100CD000F4CF0E942A0B882369F38A81882351F379
:100CE0008091680282FFE6CF82E00E94D50BE2CFBE
:100CF00090E080E00E94771790E080E00E949C17CF
:100D00000E94510B0E94720B08950E94190B0E94C1
:100D1000780608950E94410B0E94850608959295D9
:100D20009F70963091F058F4925F9F70923058F413
:100D3000803F19F030F4883E30F481E008959A5FE6
:100D4000F4CF843FD1F380E00895883EB0F3813F33
:100D5000D1F7F3CFFC0183819481892B29F0808125
:100D6000918189238F3F11F480E0089580819181E2
:100D70000E9411080E948F060895A5E0B0E0E3EC00
:100D8000F6E00C94E41F2596E2E00C940020A6E027
:100D9000B0E0EDECF6E00C94E41F2696E2E00C9453
:100DA000002008950E94D10608950E94D2069093D3
:100DB000CB018093CA01089508950E94D506089535
:100DC0002091CA013091CB01822B932B0E94D50632
:100DD00008952091CA013091CB01822393230E9470
:100DE000D50608952091CA013091CB01822793271F
:100DF0000E94D50608950E94D10608950E94FB0620
:100E000008950E94FE069093C9018093C801089539
:100E100090E080E00E940107089521E030E0A90100
:100E200002C0440F551F8A95E2F7CA010E940107CC
:100E3000089521E030E002C0220F331F8A95E2F7C7
:100E40008091C8019091C901822B932B0E940107C8
:100E5000089521E030E002C0220F331F8A95E2F7A7
:100E6000209530958091C8019091C90182239323E8
:100E70000E940107089521E030E002C0220F331FD5
:100E80008A95E2F78091C8019091C9018227932742
:100E90000E94010708952091C8013091C901822B59
:100EA000932B0E94010708952091C8013091C90138
:100EB000822393230E94010708952091C801309155
:100EC000C901822793270E94010708950895262FBC
:100ED000277091E001C0990F2A95EAF723E07695F3
:100EE00067952A95E1F7660F771F660F771FFA015E
:100EF000E60FF71F50E040E0682F70E08191DF01BE
:100F000011979B01042E02C0369527950A94E2F7AB
:100F1000217021952827292328272C934F5F5F4F85
:100F20004430510559F70895A82FA77023E09695EE
:100F300087952A95E1F7880F991F880F991FFB0164
:100F4000E80FF91F50E040E080E0219130E00A2EE8
:100F500002C0369527950A94E2F721703327042EB4
:100F600001C0220F0A94EAF7822B4F5F5F4F443093
:100F7000510559F70895262F983070F4873060F4A2
:100F8000682F70E087E0989F600D711D11244CEA76
:100F900051E0822F0E9467070895292F983068F446
:100FA000873058F490E06CEA71E037E0239F800DC1
:100FB000911D11240E949407089580E00895B0E0E7
:100FC000A0E0E5EEF7E00C94DD1F7C010091C80184
:100FD0001091C9018091CA019091CB01082B192B66
:100FE000CFE0D0E0CC24C394D12CBC2EC6010C2E73
:100FF00002C0880F991F0A94E2F780239123892B5E
:1010000049F4219790F7B12C8B2DCDB7DEB7E9E0ED
:101010000C94F91FB7018C2F0E94B90E019789F328
:10102000F3CFCF93DF93EC010E94DF07BE010E9454
:10103000B90EDF91CF9108951F93CF93DF93EB010A
:101040009091AB01992339F0CB010E941108DF91F7
:10105000CF911F910895882369F0CB010E94DF078B
:10106000182F682FCE010E94BB07BE01812F0E945E
:10107000B90EEDCFCB010E94CD07182FF6CF1F93ED
:10108000CF93DF93C091CC0116E08091CD018C13FA
:1010900004C0DF91CF911F910895D0E01C9FF00113
:1010A0001D9FF00D1124E253FE4F4081518162815A
:1010B0007381848195810E94C7062196C770E5CF10
:1010C0004091FE015091FF01609100027091010278
:1010D00080910202909103020E94C7060895209118
:1010E000CC019091CD0156E0291302C080E0089513
:1010F00030E0529FF001539FF00D1124E253FE4F58
:101100007181761306C07081781303C072817413E5
:1011100004C02F5F3F4F2770E7CF81E008951F93F2
:10112000CF93DF9380910302807F09F04BC08091C1
:101130000002882309F446C08091CC01C091CD0102
:101140004091FE015091FF016091010270910202F5
:10115000D42FD52316E0C817A9F190E061157105C9
:10116000A9F1DF3F99F1189FF001199FF00D1124AB
:10117000DF01A253BE4F11962C911197251326C063
:101180002C91241323C012962C91129721111EC06A
:1011900013962D913C91261B370B28373105B0F45F
:1011A000809103028F70806180930302ED52FE4FA5
:1011B00080818F70806180838EEF91E00E944E0667
:1011C0000E943F08DF91CF911F910895019687708B
:1011D000C2CFA1E1B0E0EFEEF8E00C94DA1F8C0191
:1011E00085E0F801DE011D9601900D928A95E1F7E8
:1011F000F801F2808EEFA82E81E0B82E4091010216
:10120000509102024115510509F45AC19091FE0115
:101210002091FF01892F82238F3F09F451C1C080A3
:10122000D18083809480E0900002B401641B750B30
:10123000EE2009F4F6C080910302382F307F683722
:10124000710508F0AFC031117AC0EF2C2D1116C016
:101250009C1114C0F11012C08F7080618093030242
:101260000E946008C5010E944E0680910302F801A9
:1012700085838E2D6196ECE00C94F61F8114910409
:10128000C9F18C2D8D218F3FA9F181E08F2580FF41
:1012900005C04F2D6D2D8C2D0E946F088114910477
:1012A00059F18C2D8D218F3F39F181E08F25F82F59
:1012B000F170BF2E80FF39C04F2D6D2D8C2D0E94F7
:1012C0006F08A82E811131C0CD86DE868D859E8562
:1012D0000E941108292F22952F70243078F49F70D6
:1012E0002230A8F09923B9F0F8019581907F99F404
:1012F000EA2CBFCF80E0CBCF80E0D9CF2A5F2F7020
:10130000223068F0C8010E944E06AB2CF1CF992321
:1013100011F0882369F3805E883050F3F3CF803F6B
:1013200038F3815F833070F7E3CFFF2009F4A1CF5A
:1013300080910302816080930302E12C9ACF2D11EA
:1013400005C09C1103C0FF2009F486C0C8010E949B
:10135000AA06882319F1FF2009F180910302803247
:1013600070F02091FE013091FF0138872F8319869C
:101370009B868A868C87CE0107960E944E0686E061
:10138000F801AEEFB1E001900D928A95E1F70E946D
:101390008F080E946008EE24E3946BCFC8010E947E
:1013A0004E06F9CF311114C0782D998A888AA6018A
:1013B0006F2D89890E94BD068EEF91E00E944E0636
:1013C00086E0F50111928A95E9F70E946008B5CF91
:1013D0002D110EC09C110CC0F1100AC08583C801EC
:1013E0000E944E0686E0F50111928A95E9F741CFF9
:1013F000C8010E94AA06882389F2FF2079F2809111
:101400000302803208F4BBCF2091FE013091FF012E
:101410003A8329831B829D828C828E83CE01019622
:10142000ACCF6837710508F03DC0EF2CFF2009F400
:10143000B5CF2D1129C09C1127C08091030280FDDA
:101440001AC0982F907FB9F08583903F31F0982F84
:10145000907F905F8F70892B8583C8010E944E0614
:1014600086E0F801AEEFB1E001900D928A95E1F7C8
:101470000E946008FECE86E0F801AEEFB1E0019078
:101480000D928A95E1F7F5CEC8010E94AA06811156
:1014900076CF80910302816080930302C8010E948D
:1014A0004E06E7CE782D998A888AA6016F2D898904
:1014B0000E94BD0686E0F50111928A95E9F7D8CF22
:1014C000FF2009F46BCFC8010E94AA06E82E8823EA
:1014D00009F464CF86E0F801AEEFB1E001900D921F
:1014E0008A95E1F78EEF91E00E9428030E948F0811
:1014F000BFCFACE0B0E0EFE7FAE00C94E31F4F831E
:10150000588769877A878B879C87CE0107960E94C8
:10151000E9088823B1F08A859B85892B39F04F81B2
:101520005885842F85238F3F09F06CC016E0809189
:10153000CC019091CD01891343C02C96E3E00C942B
:10154000FF1F86E0FE013796DE01119601900D9295
:101550008A95E1F78A859B85892B41F38F81988550
:1015600089238F3F19F32091CD0130E0C901019605
:10157000877099274091CC014817190671F40E9491
:101580008A061092CD011092CC0186E0EEEFF1E0D8
:10159000DF011D928A95E9F7C9CF96E0929FD001AD
:1015A000939FB00D1124A253BE4FFE0131960190BE
:1015B0000D929A95E1F78093CD010E943F08B6CF36
:1015C000819FC001112482539E4F0E94E908882305
:1015D00009F4B3CFE091CC011E9FF0011124E25336
:1015E000FE4F4081518162817381848195810E9487
:1015F000C7068091CC0190E001968770992780936F
:10160000CC0195CF69857A858B859C850E94C7061C
:101610008DCF682F80910001909101010E940918DF
:101620000895682F80910001909101010E940C188B
:10163000089580910001909101010E940F18089572
:1016400080910C02859585958595089580910C0271
:101650008770089590910C02977081E009F480E002
:10166000089580911702089590911702892B809315
:10167000170208958095909117029823909317026E
:10168000089510921702089590911602892B809365
:101690001602089580959091160298239093160251
:1016A000089510921602089580910D0208950895EC
:1016B0000E94570B08959091680292FF08C0909184
:1016C0000D02981721F080930D020E94580B089587
:1016D00080910D02882329F010920D0280E00E9473
:1016E000580B0895CF93DF93E0910001F091010131
:1016F000809117028083E0910001F09101018081C7
:1017000090911602892B808390910D02992381F08C
:10171000E0910001F09101018081892B808380910B
:101720000001909101010E94C11781110E94680B74
:10173000C0910001D091010148E050E064E072E006
:10174000CE010E940B20892B59F088E0FE01A4E015
:10175000B2E001900D928A95E1F7CE010E946C17DC
:10176000DF91CF91089508950E94B30B0895909151
:10177000680292FF11C098E0899F90011124622BAA
:1017800060930C020E94190780910C028595859543
:1017900085950E94B40B08950E9419070895109230
:1017A0000C0280E00E94B40B089590910C02809589
:1017B000892380930C02282F277091F4282F082E5C
:1017C000000C330B9217130659F09091680292FFA8
:1017D00007C08595859585950E9429070E94CF0BA6
:1017E00008959091680292FB222720F9281769F04A
:1017F00080FB92F990936802809167029091680251
:101800000E94390C82E00E94D50B089580916802F5
:1018100082FB882780F991E089270E94F10B0895C7
:1018200081E00E94F10B089580E00E94F10B089581
:101830006FEF7FEF90E080E00E944D20089590E0F0
:1018400080E00E94292021E0873E9E4F09F020E0A1
:10185000822F089582E090E00E942120089583E085
:1018600090E00E942120089584E090E00E942920C9
:101870000895BC0184E090E00E944D200895AB01E2
:10188000BC018FE090E00E9441200895AB01BC01B3
:1018900083E190E00E944120089560E070E0CB0178
:1018A0000E94460C089560E070E0CB010E943F0C5E
:1018B0000E944D0C089567EE7EEF90E080E00E945C
:1018C0004D2060E082E090E00E942F2060E083E005
:1018D00090E00E942F201092CB011092CA0160E08C
:1018E00074E184E090E00E944D2060E086E090E0AA
:1018F0000E942F206FEF87E090E00E942F2040E0B1
:1019000050E0BA0188E090E00E94412060E08DE064
:1019100090E00E942F2040E050E0BA0188E190E082
:101920000E94412060E087E190E00E942F2040E08B
:1019300050E0BA018CE190E00E94412070E060E04C
:1019400080E290E00E944D2040E050E0BA0188E142
:1019500090E00E9441200E94530C08950E945B0C6D
:101960000895682F8EE090E00E942F200895A5E052
:10197000B0E0EDEBFCE00C94E21F0E94BB188C0180
:10198000809118029091190280179107A1F08FEFB2
:1019900089838A831B820E94BB188160782F9D8374
:1019A0008C8349815A816B818D810E94F30210934F
:1019B0001902009318022596E4E00C94FE1F0E9481
:1019C000C718609326027093270280932802909391
:1019D0002902609322027093230280932402909341
:1019E00025020895089508950E94F30C089508951E
:1019F0000E94F70C089581E0089583EE9FE00E9415
:101A00004E170E94F20C0E94F40C08950E94B5112A
:101A10000895089508950E94090D0E940A0D0895E1
:101A20000E94E60F0E94C70208950E94B2180E9409
:101A3000A30F0E94D0110E9416110E94100D0E9447
:101A4000CE130E94DA110E94F80C0895A5E0B0E0D0
:101A5000ECE2FDE00C94DC1F0E94FB0C81110AC03B
:101A60000E94B70C0E94B5110E94DA022596EAE0A6
:101A70000C94F81F0E9439118AE1A82E82E0B82E3A
:101A8000750110E0F70101917F01812F0E940C1078
:101A90001F5F183009F440C00817A1F380912A0293
:101AA00081FD0E9412100E94060DC82E10E0812FA9
:101AB0000E940C10082FF50181915F01081731F188
:101AC000F12CEE24E394D02ED8268D2D8E21B1F06A
:101AD000CC20A1F0F9821A8391E0802F8E2109F4A5
:101AE00090E09B830E94BB188160782F9D838C833C
:101AF00049815A816B818D810E94F302F394EE0C2F
:101B0000F7E0FF12E2CFF501319700831F5F183035
:101B100071F60E94DF0CA6CF0813C0CFA1CF1F9390
:101B2000CF93DF930E94BE0EEC01C11580E5D8076C
:101B3000F0F5C11580E4D80708F09CC0C03ED1057F
:101B400020F5CD3CD10508F082C0C83AD10578F423
:101B5000C53AD10508F073C0C130D10519F12097FD
:101B600009F1C430D105F0F4D0E0C0E01BC0C33CA3
:101B7000D105D0F7C85AD0E0CC0FDD1FC35ADE4FD5
:101B80000990D881C02DD4640DC0C11580E2D8075A
:101B900008F0D1C0C11581E0D80708F05AC0C83E8E
:101BA000D10510F7CE01DF91CF911F910895C03676
:101BB00082E5D80718F5C03482E5D80708F06BC075
:101BC000C03282E5D80708F05FC0C11582E5D807AA
:101BD00008F497C02C2F2695269580E2289F900127
:101BE00011248C2F8370C1E0D0E002C0CC0FDD1F28
:101BF0008A95E2F7C22BD32BDD68D4CFC03A82E5B9
:101C0000D80760F4C03882E5D80708F459C0CF710E
:101C1000D0E0DC2FCC27C46FD06AC4CFC03C82E5B3
:101C2000D80708F462C0C03E82E5D80708F09CCF10
:101C3000DC2FCC27CC27DF71C06FD06AB3CFC55A59
:101C4000D0E0CD56DE4FC881D0E0D064ABCFD065B8
:101C5000A9CF8D2F0E94600F182FCE0199270E94C7
:101C6000BE0EC12FD0E0DC2FCC27CC27DF71C82BD4
:101C7000D92B98CFCE0199270E94BE0ECC27DF70BA
:101C8000C82BD92BD06A8ECFCF71D0E0DC2FCC27D8
:101C9000C16FD06A87CF2C2F26952695277080E2BA
:101CA000289F900111248C2F8370C1E0D0E002C0E6
:101CB000CC0FDD1F8A95E2F7C22BD32BDC6872CFE5
:101CC0002C2F26952695277080E2289F90011124BD
:101CD0008C2F8370C1E0D0E002C0CC0FDD1F8A954D
:101CE000E2F7C22BD32BDA685DCF8C2F8F710E9465
:101CF000600FC82FD0E0DC2FCC27CC27DF71D0625B
:101D000051CF8C2F8F710E94600F55E0D695C795EB
:101D10005A95E1F7CF70D0E0DC2FCC27282F30E0A8
:101D200084FF05C044E0220F331F4A95E1F7C22B20
:101D3000D32BD06937CF8D2F8F710E94600F182F52
:101D4000CE0199270E94BE0EC12FD0E0DC2FCC27F8
:101D5000CC27DF71C82BD92BD2CF462F783030F467
:101D6000673020F4672F0E94E901089590E080E039
:101D700008950E94AD0E0E948F0D0895823891053E
:101D8000B9F1B0F48133910509F47DC048F489328A
:101D9000910509F46DC08A32910509F47BC008955C
:101DA0008533910509F45FC08933910509F10895E0
:101DB000833E9105D9F138F4803E910529F1823EA8
:101DC000910579F10895863E9105D9F1873E9105F7
:101DD00009F43EC0843E910541F52091680221FF3F
:101DE00024C08091670284FD19C087EE90E00895B9
:101DF00020916702237009F05AC02091680223FFE6
:101E000014C089E290E008952091670220FD38C057
:101E10003091680230FF09C024FF43C090E080E0A9
:101E200008952091670222FDF7CF0895209167025F
:101E300022FD3AC03091680230FD39C024FFF5CF51
:101E4000EDCF2091670223FFF0CF24FDE7CFCDCF68
:101E50002091670223FD2EC03091680231FFEECF42
:101E600084EE90E008952091670225FFDECFC9CF70
:101E70002091670225FD21C02091680223FFD5CF64
:101E800089E390E0D2CF2091670226FFCECF8AE28D
:101E900090E008952091670226FFC7CF81E390E08C
:101EA000089583EE90E0089582EE90E0089580EE2C
:101EB00090E0089586EE90E0089585E390E008951F
:101EC0009091670292FF06C0282F28712830F9F4FC
:101ED000877F846093FF06C0282F28712831F1F492
:101EE000877E84612091680220FF06C0382F3871F8
:101EF0003830D9F4877F816021FF06C0282F2871F0
:101F00002831D1F4877E816194FD877E0895282F42
:101F100024712430F9F68B7F8860DCCF282F247160
:101F2000243101F78B7E8861DDCF382F317131305C
:101F300019F78E7F8860E0CF282F2171213121F79A
:101F40008E7E8861E1CF109263021092640210923B
:101F50006502109266020895CF92DF92EF92FF928F
:101F60006B017C010E94B51181110EC00E94C7183F
:101F7000C61AD70AE80AF90AC0926302D09264022C
:101F8000E0926502F0926602FF90EF90DF90CF90B2
:101F900008950F931F930E94B511882329F00E9482
:101FA000C7181F910F9108950E94C71800916302EE
:101FB000109164022091650230916602600F711FDA
:101FC000821F931FEECF80E0089508950E941F0C9A
:101FD000811102C00E94AE0C0E942A0C80932A023A
:101FE0000E94340C90936802809367020E94E50F70
:101FF0000E942F0C90E00E94DD068091C801909114
:10200000C9010E94FE06089508950E9404100895D3
:1020100008950E9408100895E82FF0E0EE58FD4F53
:1020200080810895089580EA8A95F1F7089500C0A7
:1020300008950E941310089508950E941C10089599
:10204000EF92FF921F93CF93DF9300D000D0CDB7D4
:10205000DEB70E94B511182F60917A02882309F427
:1020600047C019821A821B821C82862F90E09E0133
:102070002F5F3F4F7901B9018E589D4F0E94E811A3
:102080008823E9F08091690290E044E050E0B701D4
:102090008E589D4F0E940B2021E020932B02892B0C
:1020A000C9F410E00E940910812F0F900F900F903B
:1020B0000F90DF91CF911F91FF90EF900895809145
:1020C0002B02882371F384E0F70111928A95E9F7D6
:1020D00010922B02E0916902F0E0EE58FD4F8981E9
:1020E0009A81AB81BC8180839183A283B383DACF51
:1020F00070E06E587D4F8091690290E08E589D4F40
:102100000E946F120E941D10CFCFF894E82FE29525
:10211000EF70F0E031A1282F2F7081E090E001C036
:10212000880F2A95EAF7982F9095932391A392A16F
:10213000892B82A378940895CF93DF9387E90E9437
:10214000851086EC0E94851084E30E94851085E34B
:102150000E948510C6E9D1E089918F3F11F00E945D
:10216000851081E0CD39D807B9F7DF91CF91089577
:10217000B0E0A0E0EEEBF0E10C94DE1FEC01D62E17
:10218000062F10E0C80183569E4F7C01FC01808120
:102190008F3F09F444C0F894E82FE295EF70F0E027
:1021A00091A18F7021E030E001C0220F8A95EAF7FB
:1021B000892F822B81A382A12095282322A37894A2
:1021C0000E941710E6E9F1E031E0C12C21912F3F88
:1021D00059F1A22FA295AF70B0E090968C9190E04B
:1021E0002F7002C0959587952A95E2F780FD1CC057
:1021F000832FC82A330F81E0ED39F80739F7F7014B
:1022000080818F3F11F00E94851061E0C11001C0F4
:1022100060E08D2D0E941910C00FD11FC882CDB76C
:10222000DEB7E8E00C94FA1F80E0E3CF8091020172
:102230008091020194E0811190E090937A0284E011
:10224000891B809369020E949C1088E0E2E7F2E01B
:10225000DF01982F1D929A95E9F7EAE6F2E0DF0197
:102260001D928A95E9F784E00E9477110E9405107B
:102270000895A8E0B0E0EFE3F1E10C94E11F8E01D6
:102280000F5F1F4F88E0F80111928A95E9F7F12C52
:102290006F2DC8010E94B810F394F4E0FF12F8CF3C
:1022A00048E050E0B8018AE692E00E940B2021E06D
:1022B000009709F420E0892B41F088E0F801AAE6B4
:1022C000B2E001900D928A95E1F760917A0270E098
:1022D0006E587D4F44E08AE692E00E947811182FF4
:1022E0000E942010812B2896E5E00C94FD1F089594
:1022F000CF92DF92EF92FF920F931F93CF936C01D7
:102300007B01042F222349F081E080932E020E945A
:10231000BB1890932D0280932C02C0912E02C11104
:102320000AC0C0E08C2FCF911F910F91FF90EF90CA
:10233000DF90CF90089580912C0290912D020E9401
:10234000D318059770F310E0A801B601C7010E94E9
:102350000B20892B41F0A801B601C7010E9418206B
:1023600010922E02DFCFC0E0FBCF809131028111AD
:1023700007C00E94C11F882351F081E08093310281
:1023800081E090913102913009F080E0089582E07F
:10239000809331020E94BC1FF3CF0E94B5110895B3
:1023A0000E94CD11809302010E94B51181110E94FB
:1023B0001E1208950E94B511811102C00E942112BF
:1023C000089581E0909132029A3008F080E00895FB
:1023D0000F931F93CF93DF93EC018B018091320217
:1023E0008A30B8F4B801CE010E946C12C82F811156
:1023F00022C0809132028F3FB9F40E94BB189093A3
:10240000300280932F028C2FDF91CF911F910F917B
:10241000089580912F02909130020E94D318843F3A
:10242000914000F7C0E0EFCF8F5F809332028A3097
:1024300020F7C1E0E8CF10923202E5CF0E94EC1500
:1024400008950E94EF150895B0E0A0E0EAE2F2E1FD
:102450000C94DF1F7901C82F880FDD0B4115510542
:10246000A9F0FE0193E0EE0FFF1F9A95E1F7ED5FF3
:10247000FE4F818192818D5C9D4F208130E042171B
:10248000530708F49A01A9010E941820CE010E9466
:10249000D816D82E8823D1F001151105B9F083E0A4
:1024A000CC0FDD1F8A95E1F7FE01ED5FFE4F438102
:1024B00050E00417150708F4A801CD5FDE4F6C81CA
:1024C0007D816D5C7D4FC7010E9418208D2DCDB799
:1024D000DEB7E7E00C94FB1F0E94661308950E948C
:1024E0007D130895A4E0B0E0E8E7F2E10C94E21F68
:1024F000609148027091490280914A0290914B028A
:102500000E94E21811E0643671058105910518F109
:102510000E94C90F6E5F7F4F8F4F9F4F69837A83F1
:102520008B839C8310E000E030E020E044E050E04A
:10253000BE016F5F7F4F82E00E942412182F882314
:1025400051F00E94C718609348027093490280932B
:102550004A0290934B02812F2496E4E00C94FE1FD4
:10256000B0E0A0E0E6EBF2E10C94DC1F7C015B0143
:102570006A010E94E11101E010E0882311F00AE0F5
:1025800010E0C1E0D0E0B501C701F6010995811165
:1025900004C021960C171D072CF4CDB7DEB7EAE076
:1025A0000C94F81FCC9F9001CD9F300D300D11245D
:1025B00090E080E045E34A95F1F70000019682172C
:1025C0009307C1F7E0CFA5E0B0E0E9EEF2E10C94AB
:1025D000DC1F5B01E090A101F090A20101E010E09E
:1025E0009E012B5F3F4F50E040E070E060E080E0F4
:1025F0000E942412182F882309F44BC067018FEF23
:10260000C81AD80A6091440270914502809146022E
:10261000909147020E94E218643671058105910588
:1026200080F104E010E09E012F5F3F4F50E040E05A
:1026300070E060E081E00E942412F82E64E070E017
:10264000C6010E94CF1311E09D81981310E01F2155
:1026500059F10E94C7186093440270934502809319
:1026600046029093470289819A81AB81BC81809315
:10267000400290934102A0934202B093430211E0C2
:1026800013C064E070E0C6010E94CF139D818913DE
:10269000C8CFF70181819281A381B48189839A8314
:1026A000AB83BC831111DFCF809140029091410236
:1026B000A0914202B0914302F50180839183A283ED
:1026C000B383812F2596EAE00C94F81F0F931F9394
:1026D000CF93DF93EC018B0143EE52E10E94B012E5
:1026E000882331F042E752E1B801CE010E94B012D6
:1026F000DF91CF911F910F9108950F931F93CF9367
:10270000DF93C091A101D091A201CE01019624E0F6
:10271000FB01DC0101900D922A95E1F764E070E085
:102720000E94CF1388836D817E818F81988500916F
:102730003C0210913D0220913E0230913F02601711
:1027400071078207930751F060933C0270933D023A
:1027500080933E0290933F020E94AC0FDF91CF9195
:102760001F910F9108950E94921A0E94150D0E94C8
:102770009F1A08950E94A41A0E94260D0E94BE1A54
:1027800008950E9454180E94781A0E94FD0C0E941D
:10279000B3130E94BA130E940B0DFBCF0895FC01E6
:1027A000680F791F8FEF91E3E617F70709F4089593
:1027B0002191822728E030E087FF06C0880F892713
:1027C00021503109C9F7F0CF880FFACFCF93DF93AB
:1027D000EC01FB018281882309F4D2C09E013057AD
:1027E0002332310508F0B2C00E94340C9093680285
:1027F00080936702FE01E150F047E232F10520F4D8
:10280000EF58FF4D0C94CE1F80916702816080933A
:10281000670293C0809168028860809368028DC0CF
:10282000809167028260F3CF809167028460EFCF6E
:10283000809167028860EBCF809168028160EDCF64
:10284000809168028260E9CF809167028061DFCF6A
:10285000809167028062DBCF809167028064D7CF6E
:102860000E948A06809167028068D1CF80916702BA
:102870008C60CDCF809168028360CFCF809167025A
:102880008E7FC5CF80916802877FC7CF8091670216
:102890008D7FBDCF809167028B7FB9CF809167021A
:1028A000877FB5CF809168028E7FB7CF8091680215
:1028B0008D7FB3CF809167028F7EA9CF8091670211
:1028C0008F7DA5CF809167028F7BA1CF0E948A0662
:1028D000809167028F779BCF80916702837F97CF2C
:1028E000809168028C7F99CF8091670282FB992743
:1028F00090F921E0922790FB82F990FB83F987CF32
:1029000080916802982F909591708E7F892B90FB13
:1029100081F983CF90916702892F8F7B96FF806426
:1029200076CF0E948A0690916702892F97FB87F9DC
:1029300080586DCF81E00E94B10C80916702909128
:1029400068020E94390C0E948A0680E0DF91CF91D4
:10295000089580E0F0CF90916702892F8F7E94FFD9
:10296000806155CF90916702892F8E7F90FF8160A3
:102970004ECF90916802892F877F93FF88604DCF5B
:1029800081E0E4CFCF93DF93EB0186319C4711F5D3
:102990000E94310B9A81992399F08A7A91E009F487
:1029A00090E090934C02811109C089E20E94090BCA
:1029B0000E94720B80E0DF91CF91089585E3F6CFFE
:1029C00080914C02811104C089E20E94110BF0CF6A
:1029D00085E3FBCF81E0EFCF0F931F93CF93DF937E
:1029E000C42FD22FFC0182818823C9F040934F026B
:1029F0000E94BB1890934E0280934D0280E28C0F90
:102A0000883040F4C77081E001C0880FCA95EAF7AA
:102A10000E942904DF91CF911F910F910895109189
:102A20004F02141332C080914D0290914E020E94C9
:102A3000D3188837910548F5C0E2CD0F1D17B9F0BE
:102A400080E2810F883040F4177081E001C0880F68
:102A50001A95EAF70E943004C83048F481E09D2FAF
:102A6000977001C0880F9A95EAF70E942904802F79
:102A70000E942004C83070F6D77081E001C0880F32
:102A8000DA95EAF70E943004C5CF80E28C0F8830D7
:102A900008F6C77081E001C0880FCA95EAF7F2CF47
:102AA0000F93DB0188519C4787309105A0F5FC010D
:102AB000ED56FF4D0C94CE1F06E221EE41EE6AE189
:102AC0007CE7CD010E94EC1480E00F91089507E2AD
:102AD00025EE45EE6BE17CE7F4CF06E221EE40EE19
:102AE00068E17CE7EECF07E225EE44EE69E17CE7A2
:102AF000E8CF06E221EE42EE6CE17CE7E2CF07E2AE
:102B000025EE46EE6DE17CE7DCCF08E221E045EE04
:102B10006EE17CE7D6CF12968C91882319F0109243
:102B20004F02D3CF81E0D1CF8EE1489B02C08150CC
:102B3000E1F7489BFECF0895589880E28A95F1F717
:102B4000589A0895FC013BE03A95F1F798E020E0AF
:102B500080E031E040E14A95F1F7880F489B02C0E0
:102B60008160232742E04A95F1F7000040E14A9551
:102B7000F1F7915079F790E19A95F1F799B132E038
:102B80003A95F1F7000040E14A95F1F791709227EC
:102B90002081920F90830895A1E0B0E0E2EDF5E18D
:102BA0000C94E01F19828C017C01E60EF11C0E15BD
:102BB0001F0541F481E09981911180E02196E6E0C2
:102BC0000C94FC1F0E949415CE0101960E94A21540
:102BD000F80181938F01EBCF509A589A089550983D
:102BE000589AE89AE9E6F0E080818C7F8083089526
:102BF0006150770B91E001C0990F6A95EAF720E0E8
:102C000031E0911108C0222391F0589A80E28A9510
:102C1000F1F758980895492F482339F0589A2327F7
:102C200040E24A95F1F79695ECCF5898F9CF58982D
:102C3000EDCFFF920F931F93CF93DF93EC018C01A5
:102C4000060F111DC017D10729F4CDB7DEB7E5E097
:102C50000C94FD1FF9900E949C1568E08F2D0E9436
:102C6000F815F0CF1F920F920FB60F9211240F9309
:102C70001F932F933F934F935F936F937F938F9304
:102C80009F93AF93BF93EF93FF93CF93DF930F92F5
:102C9000CDB7DEB719820E949415CE0101960E942D
:102CA000A215082F069506950695282F22952570C2
:102CB000902F9570290F922F937026952695920F3D
:102CC000982797708981982B09F05CC0043008F030
:102CD00059C080E18A95F1F7589A509A82E08A9516
:102CE000F1F700C0589888E0089F80011124D801AE
:102CF000AD5FBE4F1696ED91FC9117973097A9F0F6
:102D00006091A1017091A20114962D913C911597AB
:102D1000260F371F11968D919C911297680F791F7E
:102D200013964C9113978C910995F801ED5FFE4F26
:102D30006381662351F02091A1013091A201848129
:102D40009581820F931F0E9419160E949C1580E1A5
:102D50008A95F1F758985098589A80E18A95F1F73A
:102D6000F801ED5FFE4F6081662351F02091A101D3
:102D70003091A20181819281820F931F0E94CC1514
:102D80000E9494150F90DF91CF91FF91EF91BF9129
:102D9000AF919F918F917F916F915F914F913F91F3
:102DA0002F911F910F910F900FBE0F901F901895AC
:102DB0000F931F93CF93DF93EC0104970CF04CC05B
:102DC000F894509A589885E08A95F1F700009C2F66
:102DD000969595708C2F8570980F892F8370969596
:102DE000969523E0CC0FDD1F2A95E1F7980F8E0111
:102DF000092B0E949C1500C068E0802F0E94F815E6
:102E000080E18A95F1F75098589A489B1EC087E058
:102E100090E048991CC0FE01ED5FFE4F6381662380
:102E2000F9F02091A1013091A20184819581820F56
:102E3000931F0E94CC15811113C0509A589A789410
:102E4000DF91CF911F910F91089500C0DECF0197C0
:102E500029F4509A589A789480E0F2CF00C0D9CFE4
:102E60000E94941580E28A95F1F75898509A80E173
:102E70008A95F1F7CD5FDE4F6881662351F020918E
:102E8000A1013091A20189819A81820F931F0E9432
:102E900019160E949C15789481E0D2CF9093A501D9
:102EA0008093A4010895909356028093550208954B
:102EB0000E94B511811103C0809150020895E091E4
:102EC0005502F0915602309729F00190F081E02DE3
:102ED0000995089580E00895E0915502F091560219
:102EE000309721F00280F381E02D09950895A3E049
:102EF000B0E0EDE7F7E10C94E41F2091530230912C
:102F0000540228173907A1F090935402809353027A
:102F1000E0915502F0915602309751F023E0298359
:102F20009B838A830680F781E02DCE010196099567
:102F30002396E2E00C940020A3E0B0E0E2EAF7E19F
:102F40000C94E41F20915102309152022817390746
:102F5000A1F09093520280935102E0915502F091BA
:102F60005602309751F024E029839B838A830680A0
:102F7000F781E02DCE01019609952396E2E00C94AD
:102F800000209C012E5F3F4FAC01485F5F4F80E007
:102F90002417350709F40895F90191919F019923A8
:102FA000B9F38F5FF5CF662349F0FC01329608969E
:102FB0002191261729F0E817F907D1F780E0089545
:102FC00081E008959C01FC0132969FEF80E04191E1
:102FD000461751F09F3F19F4411101C0982F8F5FA0
:102FE0008630A9F79F3F09F40895290F311D97FDF9
:102FF0003A95F90162830895FC0132960896219171
:10300000261303C0DF0111971C92E817F907B9F7DF
:1030100008950E94E21708950E94FC1708950296F1
:1030200026E0FC0111922A95E9F7089508950E947F
:1030300016180895811106C081E0809357020E94FE
:103040001718089582E0F9CF83E0809357020E9419
:10305000171808950E941A18089581E08093570266
:103060000E94171808950E942D1808950895089534
:103070000E9437180895089508950E9436180895FB
:10308000CF930E943B180E9439110E943C18C0E067
:103090008C2F0E940C10811105C0CF5FC830C1F782
:1030A000CF91089581E0FCCF85B7806885BF85B753
:1030B000806885BF08951F921FB61F9211248F93B9
:1030C0009F93AF93BF9380915802811113C0809159
:1030D0007B0290917C02A0917D02B0917E0241968C
:1030E000A11DB11D80937B0290937C02A0937D0271
:1030F000B0937E02BF91AF919F918F911F901FBEA1
:103100001F90189580918302843031F10E94AA02A9
:103110001092580288E190E020E40FB6F894A89548
:10312000809360000FBE2093600083B7817F84602E
:1031300083BF83B7816083BF7894889583B78E7F80
:1031400083BF0FB6F894A895809160008861809342
:103150006000109260000FBE08950E948A060E94CF
:10316000AF02089582E084BD93E095BD9AEF97BDCC
:1031700080936E0008952FB7F89480917B02909110
:103180007C02A0917D02B0917E022FBF08952FB7DF
:10319000F89460917B0270917C0280917D02909105
:1031A0007E022FBF08959C014FB7F89480917B0257
:1031B00090917C02A0917D02B0917E024FBF821B54
:1031C000930B0895CF92DF92EF92FF922FB7F8946E
:1031D000C0907B02D0907C02E0907D02F0907E0255
:1031E0002FBFA7019601261B370B480B590BCA01AD
:1031F000B901FF90EF90DF90CF90089578941F92DF
:103200001FB61F9211248F939F93AF93BF9380910A
:103210007B0290917C02A0917D02B0917E0201968A
:10322000A11DB11D80937B0290937C02A0937D022F
:10323000B0937E02BF91AF919F918F911F901FBE5F
:103240001F90189587E797E79093010880930008EF
:1032500088E19AE00FB6F894A895809360000FBEBD
:1032600090936000FFCF88E19AE00FB6F894A8959C
:10327000809360000FBE90936000FFCF8091610249
:10328000089508959B01BA01909183029430E9F466
:103290008F708093E9009FEF8091E800915085FD49
:1032A00006C085ED8A95F1F700009111F5CF809168
:1032B000E80085FF0AC050E040E0C9010E94351BCC
:1032C0008091E8008E778093E800089543E050E015
:1032D000BC0182E00E9442190895CF93DF93EC0174
:1032E00048E050E0BC0181E00E94421988E0FE0104
:1032F000A9E5B2E001900D928A95E1F7DF91CF91B7
:10330000089580918202811109C00E94C51C0E940B
:10331000221D8091E20084608093E2000895109263
:10332000820208950E942D18089560917F0281E025
:10333000611101C080E00E942418089590918302D9
:1033400081E0943009F080E060917F020E942A18A9
:10335000089542E061EC81E00E94411C42E261EC90
:1033600082E00E94411C9091830281E0943009F038
:1033700080E060917F020E941A1808958091850272
:10338000833009F461C030F48130D1F1823009F426
:103390009EC008958A3009F48AC08B3009F46FC04A
:1033A000893009F050C080918402813209F04BC00D
:1033B0008091880290918902029708F044C0809120
:1033C000E800877F8093E8008091E80082FF37C0A3
:1033D0009091F3008091F200029731F48091F10016
:1033E000813011F0863021F48091F10080936102E8
:1033F0008091E8008B778093E8000E94751C23C0C1
:1034000080918402813AF9F48091E800877F80936B
:10341000E8008091880290918902892B61F468E02C
:1034200089E592E070E00E94841B8091E8008B7730
:103430008093E800089560E090E080E0F3CF809111
:1034400083028111C1CF089580918402813AD9F716
:103450008091880290918902892BA9F78091E800D8
:10346000877F8093E8008091E80080FFFCCF809107
:1034700023018093F1008091E8008E77BCCF80918A
:103480008402813201F78091880290918902892B10
:10349000D1F68091E800877F8093E8000E94751C38
:1034A00080918602809323010E948A06089580916C
:1034B0008402813241F68091E800877F8093E800A2
:1034C0000E94751C8091870280936202089580910A
:1034D0008402813A09F0B7CF8091E800877F80931A
:1034E000E8008091E80080FFFCCF80916202C1CFAC
:1034F00084B7877F84BF0FB6F894A8958091600049
:10350000886180936000109260000FBE80E890E0B8
:103510000FB6F89480936100909361000FBE0E94F3
:10352000331808950E94C51C0E94221DE2EEF0E0AF
:1035300080818460808378940E94A11F08958BE12C
:1035400091E00E945317089580918302853031F4F1
:1035500080918302853019F00E94AD1808950E9471
:10356000821880918102882399F30E944018882351
:1035700079F30E941F1B0E948A06EACF08959A01E0
:1035800040918A0250918B020E94C71A0895492FD8
:1035900055274330510519F168F44130510509F4BC
:1035A00044C04230510509F445C090E080E050E04D
:1035B00040E025C04132510549F142325105A9F799
:1035C00080E490E04BE153E061157105C1F082E3C6
:1035D00090E049EE52E06130710589F0E6CF99271D
:1035E0008130910581F0009729F00297F1F6ECE621
:1035F000F2E002C0E8E9F2E0849190E0AF01F90165
:10360000518340830895EAE8F2E0F6CF89E090E044
:103610004EEA52E06115710591F389E090E047ECC4
:1036200052E06130710559F3C0CF82E190E047ED7F
:1036300052E0E5CF8BE390E04CE952E0E0CF80E14F
:1036400089BD82E189BD09B400FEFDCF8091D8001B
:103650008F7D8093D8008091E00082608093E000AD
:103660008091E00081FDFCCF0895AF92BF92CF9290
:10367000DF92FF920F931F93CF93DF936C01EB01C7
:103680008A010E94941CF82E811123C00115110596
:1036900039F0F80180819181C81BD90BC80ED91E61
:1036A000B12CA12C2097A9F08091E80085FD22C0C3
:1036B0008091E8008E778093E80001151105A1F054
:1036C000F80180819181A80EB91EB182A08285E0A7
:1036D000F82E8F2DDF91CF911F910F91FF90DF90EA
:1036E000CF90BF90AF9008950E94941C8823D1F290
:1036F000F82EEFCFF60181916F018093F1002197B1
:10370000FFEFAF1ABF0ACECFFC0180918A029091E1
:103710008B0286179707A0F06115710529F4909127
:10372000E8009E779093E80090E06115710551F4F0
:10373000911108C08091E80082FF34C080E00895B4
:10374000BC01F2CF809183028823C1F18530C1F1A1
:103750008091E80083FD30C08091E80082FDEACFCF
:103760008091E80080FFE1CF8091F3002091F2008A
:10377000382F6115710519F02830310558F091E0A6
:103780002830310509F090E02091E8002E77209351
:10379000E800CBCF81918093F100615071092F5FD8
:1037A0003F4FE7CF80918302882341F0853041F07D
:1037B0008091E80083FFBECF81E0089582E0089504
:1037C00083E00895FC0180918A0290918B02861714
:1037D0009707A0F06115710529F48091E8008E77B4
:1037E0008093E80090E06115710551F4911108C0D3
:1037F0008091E80082FF35C080E00895BC01F2CFDF
:10380000809183028823C9F18530C9F18091E80055
:1038100083FD31C08091E80082FDEACF8091E8000D
:1038200080FFE1CF8091F3002091F200382F6115E5
:10383000710519F02830310558F091E02830310534
:1038400009F090E08091E8008E778093E800CBCF7C
:1038500084918093F1003196615071092F5F3F4F41
:10386000E6CF80918302882341F0853041F080913A
:10387000E80083FFBDCF81E0089582E0089583E0F2
:103880000895982F973028F08F708093E90081E099
:1038900008959093E900242F762F50E0981731F087
:1038A0007091EC002091ED005091F00021FD02C0DC
:1038B0009F5FE8CF3091EB003E7F3093EB0030917B
:1038C000ED003D7F3093ED003091EB00316030939F
:1038D000EB007093EC002093ED005093F0002091EA
:1038E000EE0027FDE5CF80E008958091840287FFF8
:1038F00013C08091E80082FF06C08091E8008B77BA
:103900008093E80004C0809183028111F2CF089572
:10391000809183028823D9F38091E80080FFF8CF5B
:103920008091E8008E77ECCF2091E4003091E500A3
:1039300095E6A9012091EC00822F817020FF06C03E
:103940008091E80080FF06C080E008952091E800A3
:1039500022FD1AC080918302882389F0853089F086
:103960008091EB0085FD0FC02091E4003091E500CF
:1039700042175307F9F29150E1F684E0089582E08E
:10398000089583E0089581E008950E94341D0E9407
:103990003C1DE0EEF0E0808181608083E8EDF0E0A6
:1039A00080818F77808319BCA7EDB0E08C918E7FEA
:1039B0008C9380818F7E80831092820208950F9372
:1039C0001F93CF93DF930E94341D0E943C1DC8EDCE
:1039D000D0E088818F778883888180688883888118
:1039E0008F7D888319BC1092830210927F021092FF
:1039F00081021092800200EE10E0F80180818B7F3E
:103A0000808388818160888342E060E080E00E945A
:103A1000411CE1EEF0E080818E7F8083E2EEF0E0F9
:103A2000808181608083808188608083F8018081CB
:103A30008E7F8083888180618883DF91CF911F9101
:103A40000F910895E8EDF0E080818F7E8083E7EDAF
:103A5000F0E080818160808384E082BF81E0809398
:103A600082020E94DF1C0895E8EDF0E080818E7FE5
:103A700080831092E20008951092DA001092E10023
:103A800008951F920F920FB60F9211242F933F9318
:103A90004F935F936F937F938F939F93AF93BF9356
:103AA000EF93FF938091E10082FF0BC08091E200D1
:103AB00082FF07C08091E1008B7F8093E1000E942C
:103AC000A01F8091DA0080FF19C08091D80080FF8C
:103AD00015C08091DA008E7F8093DA008091D90042
:103AE00080FF96C080E189BD82E189BD09B400FEF6
:103AF000FDCF81E0809383020E9481198091E100D3
:103B000080FF19C08091E20080FF15C08091E20023
:103B10008E7F8093E2008091E20080618093E200DA
:103B20008091D80080628093D80019BC85E0809392
:103B300083020E9495198091E10084FF2BC080913F
:103B4000E20084FF27C080E189BD82E189BD89B59B
:103B5000982F917080FFFBCF8091D8008F7D80934C
:103B6000D8008091E1008F7E8093E1008091E20097
:103B70008F7E8093E2008091E20081608093E2007A
:103B800080917F02882309F449C084E080938302F6
:103B90000E949E198091E10083FF29C08091E2007C
:103BA00083FF25C08091E100877F8093E10082E060
:103BB0008093830210927F028091E1008E7F809338
:103BC000E1008091E2008E7F8093E2008091E2002C
:103BD00080618093E20042E060E080E00E94411C4E
:103BE0008091F00088608093F0000E949219FF910C
:103BF000EF91BF91AF919F918F917F916F915F9165
:103C00004F913F912F910F900FBE0F901F901895DD
:103C100019BC109283020E948F1970CF8091E3002B
:103C200087FD93E090938302B3CF1F920F920FB65C
:103C30000F9211242F933F934F935F936F937F9332
:103C40008F939F93AF93BF93CF93DF93EF93FF93A4
:103C5000D091E900DF708091EC00C82FC17080FD29
:103C6000C0E81092E9008091F000877F8093F00017
:103C700078940E94591E1092E9008091F0008860AB
:103C80008093F000CD2BCF70C093E900FF91EF91AE
:103C9000DF91CF91BF91AF919F918F917F916F9164
:103CA0005F914F913F912F910F900FBE0F901F90FA
:103CB0001895AAE2B0E0EFE5FEE10C94E31F84E87A
:103CC00092E02091F100FC012193CF01F2E08C38C9
:103CD0009F07B9F70E94BE198091E80083FF1EC1BB
:103CE00080918402909185029A3008F017C1E92FE3
:103CF000F0E0E656FF4D0C94CE1F803899F08238E4
:103D000009F00CC1809188028F70873008F006C1DD
:103D10008093E9008091EB0085FB882780F9109261
:103D2000E90006C080918002909181029111826029
:103D30009091E800977F9093E8008093F1001092B3
:103D4000F1008091E8008E77E5C0882309F4D3C0A4
:103D5000823009F0E3C0809186028111D6C0809143
:103D600088028F702FEF280F263008F0D7C080937D
:103D7000E9002091EB0020FFC8C0933031F480911E
:103D8000EB0080628093EB00C0C09091EB009061EB
:103D90009093EB0021E030E001C0220F8A95EAF712
:103DA0002093EA001092EA008091EB008860EACF4D
:103DB0008111B4C0109186021F778091E300807852
:103DC000812B8093E3008091E800877F8093E80057
:103DD0000E94751C8091E80080FFFCCF8091E30079
:103DE00080688093E30082E0111183E08093830276
:103DF00095C08058823008F091C0809186029091E1
:103E000087028C3D23E09207A1F583E08A838AE252
:103E100089834FB7F894DE01139620E03EE051E22B
:103E2000E32FF0E050935700E49120FF03C0E295A8
:103E3000EF703F5FEF708E2F90E0EA30C0F0C796D2
:103E40008D939D932F5F243159F74FBF8091E800E8
:103E5000877F8093E8006AE270E0CE0101960E94BD
:103E6000841B8091E8008B778093E80057C0C09650
:103E7000E7CF6091880270918902AE014F5F5F4F7A
:103E80000E94BF1ABC01892B09F448C09091E80038
:103E9000977F9093E80089819A810E94E21BE1CF8D
:103EA0008038E1F58091E800877F8093E800809179
:103EB0007F028093F10045CF811130C0909186023E
:103EC000923060F58091E800877F8093E8009093BE
:103ED0007F020E94751C80917F02882311F084E08C
:103EE00005C08091E30087FDFACF81E080938302D3
:103EF0000E94A91913C080918602813079F481E073
:103F0000933009F080E0809381021092E900809163
:103F1000E800877F8093E8000E94751C8091E8008C
:103F200083FF0AC08091E800877F8093E80080913A
:103F3000EB0080628093EB00AA96E3E00C94FF1FF5
:103F40000895CF93809183028823A1F0C091E90066
:103F5000CF709091EC00892F817090FD80E8C82B84
:103F60001092E9008091E80083FD0E94591ECF70F5
:103F7000C093E900CF9108950E94C51C109283025E
:103F80000895E8EDF0E08081806180838AE18A9580
:103F9000F1F700C08091D90081700895EE0FFF1FE6
:103FA0000590F491E02D09942F923F924F925F92E9
:103FB0006F927F928F929F92AF92BF92CF92DF9239
:103FC000EF92FF920F931F93CF93DF93CDB7DEB79E
:103FD000CA1BDB0B0FB6F894DEBF0FBECDBF099432
:103FE0002A88398848885F846E847D848C849B8489
:103FF000AA84B984C884DF80EE80FD800C811B8197
:10400000AA81B981CE0FD11D0FB6F894DEBF0FBEC5
:10401000CDBFED010895FB01DC0104C08D9101903D
:10402000801921F441505040C8F7881B990B08951E
:10403000FB01DC0102C001900D9241505040D8F7C5
:104040000895F999FECF92BD81BDF89A992780B560
:104050000895A8E1B0E042E050E00C945520262FEE
:10406000F999FECF92BD81BDF89A019700B402166E
:1040700039F01FBA20BD0FB6F894FA9AF99A0FBE1C
:1040800008950396272F0E9430200E942F20252F6D
:104090000E943020242F0C9430200196272F0E945C
:1040A00030200C942F20DC01CB01FC01F999FECFCC
:1040B00006C0F2BDE1BDF89A319600B40D924150B0
:1040C0005040B8F70895F894FFCF76047604C704FB
:1040D000C7043A05A504A504A5045605C705D605D9
:1040E000D6053E14B2144614101414144A141814AD
:1040F0004E145A142414AB1428145E142C14621495
:104100008A1430146614911436146C1474141C142C
:104110005214201456143A14701480149A14A914CA
:104120000A144214B9146D1573155C1567157915C9
:104130007F1585157D1EA51E8E1FA51E8E1FD81EE0
:08414000F91E8E1F501F5C1FC9
:104148000E02010000000100000000000000040150
:1041580000000004050000000000003E196D194130
:1041680019661901E200E900EA00B500B600B700D7
:10417800CD008301CC008A0192019401210223021F
:1041880024022502260227022A02B300B4006F0087
:1041980070009F01CB019F02A002818283E200E9A7
:1041A80000EA00B500B600B700CD008301CC008A54
:1041B80001920194012102230224022502260227EA
:1041C800022A02B300B4006F0070009F01CB019F68
:1041D80002A002818283F4F5F6F731333297C634B0
:0441E8003533020069
:00000001FF
