:100000000C94D8010C9498090C941F020C941F02B4
:100010000C941F020C941F020C941F020C941F02DC
:100020000C941F020C941F020C94771B0C94491C17
:100030000C94C8160C941F020C941F020C941F02FF
:100040000C941F020C941F020C941F020C941F02AC
:100050000C941F020C9415170C941F020C941F0291
:100060000C941F020C941F020C941F020C941F028C
:100070000C941F020C941F020C941F020C941F027C
:100080000C941F020C941F020C941F020C941F026C
:100090000C941F020C941F020C941F020C941F025C
:1000A0000C941F020C941F020C941F02C00CC00C75
:1000B000F20CF20C3F0D730E730E730E5D0DF20D0C
:1000C000030E030E630E730E730E6C0E0F0F0F0FE5
:1000D000210F210F180F210F210F210F0F0F0F0FCD
:1000E0001D0F210F210F1D0FB61CDD1CD51DDD1CA2
:1000F000D51D291D4C1DD51DA31DB21D2B0014009F
:100100001A000800150017002E00E0000400160079
:10011000070009000A002F00E1001D001B00060077
:1001200019000500E200025435004E00E3002900EA
:100130002C0001512D00130012000C0018001C00AF
:100140003100340033000F000E000D000B003000B2
:10015000E500380037003600100011002A00520078
:1001600051004B00E600E700280001512E021E025C
:100170001F022002210222022E0235021E001F0051
:100180002000210022002F02E1002300240025008E
:1001900026002700E200E00001002C00E300290017
:1001A0002C0000003100270226022502240223022F
:1001B00031023402330230022F0230002F003002AD
:1001C000E50038024F005200510050002A004B0059
:1001D0004E004D000000E700280000003A003B0000
:1001E0003C003D003E003F000000E0000000000039
:1001F0000000000000002F00E100000000000000EF
:100200000000000000000052000000000000E300B9
:10021000000000004500440043004200410040004F
:100220000000340233024F005200510050003000F1
:10023000E5000000000000000000000000004D008C
:100240004B004E004A00E700000000000100005C87
:10025000C25CC35CC65CC55C010001000100BF5C00
:10026000C15CBE5CBD5C0100010001000100010039
:100270000100010001000100010001000100010076
:100280000100010001000100C95CCA5CC75CC85CD8
:100290000100010001000100010001000100010056
:1002A0000100010001000100010001000100010046
:1002B0000100010001000100010001000403300001
:1002C00000001A034500720067006F0044006100DF
:1002D000730068006D0069006E00690000000C0387
:1002E0004F006D006B00620064000000040309040D
:1002F00009023B00020100A0FA0904000001030109
:1003000001000921110100012240000705810308B5
:10031000000A090401000103000000092111010085
:10032000012232000705820320000A120110010099
:10033000000008EDFE6060000101020301050109F3
:1003400080A101850319012AB700150126B7009580
:100350000175108100C0050C0901A1018504190176
:100360002AA002150126A002950175108100C00582
:10037000010906A101050719E029E71500250195E6
:100380000875018102950175088101050719002989
:10039000FF150026FF009506750881000508190164
:1003A0002905950575019102950175039101C0001C
:1003B00011241FBECFEFDAE0DEBFCDBF04B603FECF
:1003C00027C08091490290914A02A0914B02B091BE
:1003D0004C028730904BA740B04BD1F410924902A9
:1003E00010924A0210924B0210924C0214BE84B733
:1003F000877F84BF0FB6F894A895809160008861CC
:1004000080936000109260000FBEE0E0F8E3099571
:1004100011E0A0E0B1E0E6EAFCE302C005900D9235
:10042000A838B107D9F722E0A8E8B1E001C01D92D1
:10043000A934B207E1F70E94B5180C94511E0C9430
:10044000000081E0089581E008950C94230208954E
:100450000C9427021F93CF93DF9300D000D01F92FC
:10046000CDB7DEB749835A836B833091A701898169
:100470009A81311114C0662359F0222349F00E9459
:100480004B14182F682F89819A810E94F41303C09E
:100490000E941F14182F69817A81812F04C00E9445
:1004A0004B1469817A810F900F900F900F900F90ED
:1004B000DF91CF911F910C94DC02FC01262F40812B
:1004C00051816281738184810C942A02CF93DF93DE
:1004D000EC0160E00E945D02BE01DF91CF910C94BF
:1004E00028020E947D15811102C00E941D160C94E5
:1004F000F2040C94EE0408950E94FD0E0E947B020B
:100500002FEF84E39CE0215080409040E1F700C051
:1005100000000C943B170F931F93CF93DF93EC01D4
:1005200061E00E945D028C01BE010E9425028823C9
:1005300049F1BE01C8010E944107882319F1BE019B
:10054000C8010E9493078823E9F0BE01C8010E94F8
:10055000BE088823B9F08A81882369F001158CE5EB
:10056000180731F00E3D1C4531F40E941D160AC0DB
:100570000E947C0207C0CE01DF91CF911F910F91A5
:100580000C94210280E0DF91CF911F910F9108958B
:1005900008950C94C80281E008950C94CB02CF9387
:1005A000C82F0E94C9028C2F0E94CD02CF910895BE
:1005B00080E090E00895089528E3829FC00111240F
:1005C000FC0127E0729FE00DF11D1124E60FF11DE3
:1005D000EE0FFF1FE450FF4F859194910895880F0F
:1005E000991FFC01E454FD4F859194910895CF9398
:1005F000DF930E94DC020E940904EC018115904502
:1006000008F043C0C11580E4D80708F0CBC0C03E55
:10061000D10528F5C03CD10508F0B3C0C83AD105D2
:1006200078F4C53AD10508F0A4C0C130D10509F469
:10063000ECC008F4E8C0C430D10508F0E6C0E3C05F
:10064000CF3BD10508F0DFC0C85AD0E0CC0FDD1F8A
:10065000CA5EDE4F0990D881C02DD464D6C0C115C2
:1006600090E2D90750F4C11521E0D20708F0CDC0BF
:10067000C83ED10508F4C9C0C6C0C11580E3D8077B
:1006800008F086C0CE019F707FC0C11595E5D907DF
:1006900008F043C0C11524E5D20708F09AC0C1157F
:1006A00082E5D80708F5C11591E5D90708F07DC0A6
:1006B000CE0174E0969587957A95E1F783709C2F2B
:1006C000937021E030E002C0220F331F9A95E2F7C9
:1006D0003C68382BCF70C695C69580E2C89FE00174
:1006E0001124C22BD32B91C09E01237033278C2F52
:1006F00086958695C115D34508F05CC0C1E0D0E071
:1007000002C0CC0FDD1F2A95E2F720E2829FC001D4
:100710001124C82BD92BDC6878C0C11529E5D20774
:10072000A0F4C11588E5D80708F058C0C11596E5B2
:10073000D90708F068C08C2F0E949D048F71C82FC4
:10074000D0E0DC2FCC27D06260C0C1152AE5D207EB
:1007500008F449C0CE0190568115904208F053C06C
:100760008D2F8F710E949D04DD27D0628F71D82B51
:100770004CC0C55AD0E0CC5BDE4FC881D0E0D0641D
:1007800044C0CE01805C91090E94EF02EC013DC0A3
:10079000CE019927D3FF03C0EC01D86C36C0EC0121
:1007A000D06C33C0DF70D06A30C0DC2FCC27C16F73
:1007B000D06A2BC0C1E0D0E002C0CC0FDD1F2A956B
:1007C000E2F720E2829FC0011124C82BD92BDA68FE
:1007D0001CC0DC2FCC27C46FD06A17C0DC2FCC27FD
:1007E000C06FD06A12C08C2F8F700E949D0494E05D
:1007F000D695C7959A95E1F7CF70D0E0DC2FCC273E
:10080000D069C82B02C0C0E0D0E0CE01DF91CF910B
:1008100008958238910569F1B0F48133910509F4A6
:100820006DC048F48932910509F463C08A3291059C
:1008300009F469C008958533910509F455C08933D9
:100840009105B9F00895833E910569F138F4803E31
:100850009105B1F0823E910509F10895863E91051A
:10086000A9F1873E9105B9F1843E910509F064C074
:1008700023C020913A0220FD4FC021FD4DC00895B4
:1008800080913A0280FD44C080913B0280FF44C0C9
:1008900080913A0284FD42C083EE4DC080913A02BD
:1008A00082FF38C0F5CF80913A0282FD33C080913B
:1008B0003B0280FD31C0ECCF80913B0281FF32C012
:1008C00080913A0284FD2AC087EE35C080913A02B9
:1008D00083FF26C0F5CF80913A0283FD21C080912D
:1008E0003B0281FD1FC0ECCF80913A0285FD1CC008
:1008F0001DC080913A0285FD19C016C080913A0250
:1009000086FD16C017C080913A0286FD13C010C044
:1009100089E311C082EE0FC080EE0DC080E00BC0F5
:1009200086EE09C084EE07C089E205C085E303C0F6
:100930008AE201C081E390E0089590913A0292FF2B
:100940000DC0282F2871283019F4877F846006C0D5
:10095000282F2471243011F48B7F886093FF0DC001
:10096000282F2871283119F4877E846106C0282F2A
:100970002471243111F48B7E886120913B0220FF89
:100980000DC0382F3871383019F4877F816006C068
:10099000382F3171313011F48E7F886021FF0DC006
:1009A000282F2871283119F4877E816106C0282FED
:1009B0002171213111F48E7E886194FD877E089526
:1009C000E82FF0E0E45DFD4F80810895089580EA0E
:1009D0008A95F1F7089508950C94EB040C94EC04B7
:1009E0000C94EB040C94F0040895CF93DF930E94D1
:1009F00062068091000180910001811102C094E0A3
:100A000001C090E09093350284E0891B809334020A
:100A1000AEE4B1E042E551E061E070E08D91E82F95
:100A2000E295EF70F0E021A18F70EB0102C0CC0FD6
:100A3000DD1F8A95E2F7CE019C2F9095922391A31A
:100A400092A1892B82A34A175B0741F7A7E4B1E083
:100A50004EE451E061E070E08D91E82FE295EF7097
:100A6000F0E021A18F70EB0102C0CC0FDD1F8A9551
:100A7000E2F7CE019C2F9095922391A392A1892B0E
:100A800082A34A175B0741F7E4E2F2E0ACE2B2E08E
:100A90008CE292E011921D928E179F07D9F784E0A5
:100AA0000E940C060E947102DF91CF910C946C069B
:100AB0000E9443068823F1F08091340290E0845D27
:100AC0009D4F0E947F06811111C0809188018F5F28
:100AD00080938801863060F0E0913402F0E0E45DBC
:100AE000FD4F108211821282138202C0109288017F
:100AF0000C9479028091350290E0845D9D4F0E94B4
:100B00009A060C94F4046F927F928F929F92AF9208
:100B1000BF92CF92DF92EF92FF920F931F93CF93EA
:100B2000DF938EE4882E81E0982E04E212E098E2B2
:100B3000A92E92E0B92E712CCC24C394D12CF401AF
:100B400081914F01C82FC295CF70D0E099A18F70CD
:100B5000760101C0EE0C8A95EAF7892F8E2989A3C8
:100B60008AA16E2C609486218AA30E94E704E7E4A0
:100B7000F1E040E050E020E03191A32FA295AF706A
:100B8000B0E090968C9190E03F7002C0959587956B
:100B90003A95E2F780FD07C08C2D042E01C0880F26
:100BA0000A94EAF701C080E0282B4F5F5F4F47307F
:100BB000510511F789A1682269A28AA1E82AEAA24F
:100BC000F8018081281719F0208381E001C080E0BE
:100BD000782A0F5F1F4FA016B10609F0B0CF6091C1
:100BE000350270E0645D7D4F272D44E084E292E0A1
:100BF0000E940D060E945805872DDF91CF911F910D
:100C00000F91FF90EF90DF90CF90BF90AF909F90AB
:100C10008F907F906F9008950895FF920F931F9388
:100C2000CF93DF938C01F62ED72FC42F222349F0C8
:100C300081E080938B010E94FA1690938A01809341
:100C4000890180918B018823C1F080918901909165
:100C50008A010E940617069780F0EF2DFD2FD8011C
:100C60004C2F50E0CD01801B910B841795071CF48D
:100C70008D918193F7CF10928B01DF91CF911F91CE
:100C80000F91FF90089580918C01811112C0809185
:100C9000D80080618093D8008AE18A95F1F700C07E
:100CA0008091D90080FD02C082E001C081E0809384
:100CB0008C0181E090918C01913009F080E00895E1
:100CC0000C9443060E946006809300010E94430634
:100CD00081110C94730608950E944306811102C08D
:100CE0000C947906089561E070E081E091E00C9445
:100CF0004A0961E070E081E091E00C945109CF93E2
:100D0000DF93D82FC92F0E94E909892B79F4ED2FA1
:100D1000FC2F80E090E0DC01A257BE4F2C91219384
:100D2000019684309105B9F781E001C080E0DF9140
:100D3000CF91089520E030E0FC014191CF01F9010D
:100D4000E257FE4F40832F5F3F4F24303105A1F71C
:100D50000895AF92BF92CF92DF92EF92FF920F93DE
:100D60001F93CF93DF937C015B01C42FD22FFC0133
:100D700082818823F9F0409394010E94FA1690939F
:100D800093018093920180E28C0F883008F06EC04E
:100D9000C77081E001C0880FCA95EAF7DF91CF9153
:100DA0001F910F91FF90EF90DF90CF90BF90AF9089
:100DB0000C947C0C80919401481335C08091920171
:100DC000909193010E9406176C01B701C5010E9422
:100DD000B611C816D90638F510E21D0FCD17B9F0B7
:100DE00080E28C0F883040F4C77081E001C0880F2A
:100DF000CA95EAF70E94830C183058F581E09D2FC0
:100E0000977001C0880F9A95EAF70E947C0C802F9A
:100E10000E94690C183050F5D77081E001C0880F2E
:100E2000DA95EAF70AC080E28C0F8830F8F4C770D0
:100E300081E001C0880FCA95EAF7DF91CF911F9139
:100E40000F91FF90EF90DF90CF90BF90AF900C94F8
:100E5000830C802FDF91CF911F910F91FF90EF9026
:100E6000DF90CF90BF90AF900C94690CDF91CF9141
:100E70001F910F91FF90EF90DF90CF90BF90AF90B8
:100E800008950F939C01CB01233F4CE5340731F1CA
:100E900088F4283DFCE53F07D9F0293D4CE53407AF
:100EA00079F1273D3C45A9F506E221EE41EE67EDDB
:100EB0007CE52BC0253FFCE53F07E1F0A8F0263F8D
:100EC0003C4539F507E225EE46EE66EF7CE51DC0B0
:100ED00007E225EE45EE68ED7CE517C006E221EE5F
:100EE00040EE63EF7CE511C007E225EE44EE64EFCF
:100EF0007CE50BC006E221EE42EE65EF7CE505C025
:100F000008E221E045EE69ED7CE50E94A90680E05B
:100F100008C0FC018281882319F01092940101C05D
:100F200081E00F910895CF93DF93EC01FB01828163
:100F3000882309F41FC1C230FCE5DF0708F41BC198
:100F4000C6319CE5D90738F09E012A5F3C4529301F
:100F5000310508F010C10E94901590933B028093D8
:100F60003A02C031ECE5DE0709F4C3C008F041C025
:100F7000C8308CE5D80709F49AC0F0F4C430ECE529
:100F8000DE0709F487C068F4C2308CE5D80709F49D
:100F900077C0C330DC4509F0E3C080913A0282603B
:100FA00076C0C630ECE5DE0709F46EC008F07BC001
:100FB00080913A0288606BC0CC308CE5D80709F488
:100FC00085C068F4CA30ECE5DE0709F474C008F0A7
:100FD00079C00E94FD0E80913A02806858C0CE30E0
:100FE0008CE5D80709F476C008F07FC080913A02FA
:100FF0008BC0CB3FECE5DE0709F44FC018F5C331D9
:101000008CE5D80709F47DC078F4C131ECE5DE0742
:1010100009F473C0C231DC4509F0A2C00E94FD0E84
:1010200080913A028F7733C0C5318CE5D80709F437
:1010300072C008F486C0CA3FDC4509F091C08091B7
:101040003B023EC0CF3FFCE5DF0709F45FC058F428
:10105000CD3F9CE5D90709F444C008F43FC0809116
:101060003B0282602DC0C130FDE5DF0709F475C089
:1010700008F45DC0C230DD4509F072C080E06EC08A
:1010800080913A02816003C080913A02806180932E
:101090003A0266C080913A0211C080913B028260A0
:1010A00080933B025DC080913A028062F0CF8091D4
:1010B0003A028064ECCF80913A0288608460E7CF86
:1010C0008160EECF80913A028E7FE1CF80913A022B
:1010D0008D7FDDCF80913A02877FD9CF80913B020F
:1010E00018C080913B028D7FDBCF80913A028F7ECA
:1010F000CECF80913A028F7DCACF80913A028F7B0A
:10110000C6CF80913A02877F8B7FC1CF80913B020F
:101110008D7F8E7FC5CF80913A0282FB222720F9F6
:1011200091E0922790FB82F990FB83F9B0CF8091F8
:101130003B02982F909591708E7F892B90FB81F9BF
:10114000AFCF0E94FD0E80913A0287FB222720F943
:1011500091E0922790FB87F99ACF81E00E941F16B9
:1011600080913A0290913B020E94A1150E94FD0ECF
:1011700080E001C081E0DF91CF910895CF93DF93AC
:1011800086319C4541F5EB010E94CC14982F8A8151
:101190002091090130910A01882379F09A7A81E03F
:1011A00009F480E080939501911102C069E201C0C9
:1011B00065E3C9010E9466160AC0809195018111FC
:1011C00002C069E201C065E3C9010E9468160E947D
:1011D0001A1580E001C081E0DF91CF9108958EE182
:1011E000489B02C08150E1F7489BFECF0895589874
:1011F00080E28A95F1F7589A0895FC012AE02A9531
:10120000F1F728E090E080E031E040E14A95F1F725
:10121000880F489B02C08160932700C0000040E116
:101220004A95F1F7215089F720E12A95F1F729B184
:1012300000C0000030E13A95F1F72170922720813B
:10124000920F90830895EF92FF920F931F93CF9385
:10125000DF931F92CDB7DEB719828C017C01E60EB9
:10126000F11C0E151F0551F00E94EF08CE010196EA
:101270000E94FD08F80181938F01F3CF81E09981ED
:10128000911180E00F90DF91CF911F910F91FF900E
:10129000EF9008959093970180939601509A589AF1
:1012A000089590939701809396015098589AE89AE0
:1012B000E9E6F0E080818C7F80830895615091E0C1
:1012C00001C0990F6A95EAF720E031E0992361F0B7
:1012D000492F482319F0589A232701C0589840E213
:1012E0004A95F1F79695F2CF222311F0589A01C052
:1012F000589880E28A95F1F758980895FF920F93D5
:101300001F93CF93DF93EC018C01060F111DC017C3
:10131000D10741F0F9900E94F70868E08F2D0E94F4
:101320005E09F5CFDF91CF911F910F91FF90089546
:101330001F920F920FB60F9211242F933F934F934A
:101340005F936F937F938F939F93AF93BF93CF934D
:10135000DF93EF93FF935898509AC0919601D091E4
:1013600097016D81662321F08E819F810E947E0905
:101370000E94F70880E18A95F1F758985098589A9A
:1013800080E18A95F1F76A81662351F08B819C8117
:101390000E942309E881F981811104C082E003C021
:1013A000E881F98188E080830E94EF08FF91EF9146
:1013B000DF91CF91BF91AF919F918F917F916F916D
:1013C0005F914F913F912F910F900FBE0F901F9003
:1013D0001895CF93DF93C0919601D0919701F8941F
:1013E000509A589885E08A95F1F700005098589ADD
:1013F00080E28A95F1F7489B0AC0509A589AE88192
:10140000F98181E08083789481E090E02CC06D8147
:10141000662381F08E819F810E94230981110AC079
:10142000509A589AE881F98182E08083789482E02A
:1014300090E019C00E94EF0880E28A95F1F7589871
:10144000509A80E18A95F1F76A81662321F08B81B9
:101450009C810E947E090E94F708E881F981108230
:10146000789480E090E0DF91CF91089590939D0172
:1014700080939C010895E0919C01F0919D0130972B
:1014800021F00190F081E02D099480E00895E09131
:101490009C01F0919D01309721F00280F381E02DB5
:1014A0000994089520919A0130919B0128173907DA
:1014B00071F090939B0180939A01E0919C01F091CF
:1014C0009D01309721F00680F781E02D0994089561
:1014D00020919801309199012817390771F0909364
:1014E000990180939801E0919C01F0919D013097C2
:1014F00021F00084F185E02D0994089585B7806876
:1015000085BF85B7806885BF089508950C94850AC6
:101510000C94860A0C94850A0C94850A0E947E0A13
:101520000E948A0A0C94880A0C9443060E94F116C1
:101530000E94F5040E944C170C948C0AAF92BF9243
:10154000CF92DF92EF92FF920F931F93CF93DF938F
:10155000CDB7DEB72A970FB6F894DEBF0FBECDBF6A
:101560000E9483050E94940A811111C08FEF898324
:101570008A831B820E94FA168160782F9D838C8358
:1015800049815A816B818D810E94340B40C08FE963
:10159000A82E81E0B82E00E010E0C02E802F0E941F
:1015A000E004E82EF501D1905F01D82631F40F5FF9
:1015B0001F4F0830110589F7D9CF8091180281FD9E
:1015C0000E94E60480E0FF24F3949D2D9F21D1F03A
:1015D0008E83CF82EF2081E009F480E088870E942B
:1015E000FA168160782F9A8789874E815F81688596
:1015F0008A850E94340BF801E156FE4F8081F8265F
:10160000F08205C08F5FFF0C8730F9F6D0CF0E94C3
:101610003B0A90919E018917B1F00E943B0A80938A
:101620009E012A960FB6F894DEBF0FBECDBFDF91A4
:10163000CF911F910F91FF90EF90DF90CF90BF90CF
:10164000AF900C94CF022A960FB6F894DEBF0FBE6F
:10165000CDBFDF91CF911F910F91FF90EF90DF9061
:10166000CF90BF90AF900895CF93DF93CDB7DEB703
:101670002B970FB6F894DEBF0FBECDBF4F835887B0
:1016800069877A878B87DE01119686E0FD011192CA
:101690008A95E9F785E0FE01379601900D928A95CB
:1016A000E1F749815A816B817C818D819E810E9405
:1016B000B9112B960FB6F894DEBF0FBECDBFDF91E8
:1016C000CF910895FC01808191810E948D1408952D
:1016D000CF93882309F49CC0C82F8238C1F40E949C
:1016E0003B0A81FD95C069E38091090190910A014F
:1016F0000E9466160E941A152FEF81EE94E0215089
:1017000080409040E1F700C0000069E319C08338D1
:1017100001F50E943B0A80FD7BC063E580910901D1
:1017200090910A010E9466160E941A152FEF81EE11
:1017300094E0215080409040E1F700C0000063E554
:101740008091090190910A010E946816CF910C9432
:101750001A158438C1F40E943B0A82FD59C067E41F
:101760008091090190910A010E9466160E941A1543
:101770002FEF81EE94E0215080409040E1F700C0CF
:10178000000067E4DDCF8CEF8C0F813AD0F46C2F32
:101790008091090190910A010E943016882349F036
:1017A0006C2F8091090190910A010E9468160E9495
:1017B0001A156C2F8091090190910A010E946616FA
:1017C000C5CF80E28C0F883048F4C77081E001C03B
:1017D000880FCA95EAF70E94CF14B8CFEBE5EC0F5B
:1017E000E33040F4F0E0EC57FE4F808190E0CF9181
:1017F0000C94520AC85AC73158F4EC2FF0E0EE0F9F
:10180000FF1FEA5AFE4F80819181CF910C94680AA4
:10181000CF910895882309F45BC0682F823879F44A
:101820000E943B0A81FF54C069E3809109019091B5
:101830000A010E9466160E941A1569E310C08338D7
:10184000B1F40E943B0A80FF43C063E58091090127
:1018500090910A010E9466160E941A1563E5809114
:10186000090190910A010E9468160C941A15843897
:1018700079F40E943B0A82FF2BC067E48091090142
:1018800090910A010E9466160E941A1567E4E7CF3C
:101890008CEF860F813A18F380E2860F883048F487
:1018A000677081E001C0880F6A95EAF70E94D5143D
:1018B000DCCF8BE5860F833020F480E090E00C9441
:1018C000520A685A673120F480E090E00C94680A6C
:1018D0000895CF93C82F0E94680BC93349F42FEFA6
:1018E00087EE93E0215080409040E1F700C0000077
:1018F0008C2FCF910C940A0C882321F00E94CF14D6
:101900000C941A150895882321F00E94D5140C9484
:101910001A150895CF92DF92EF92FF920F931F93C3
:10192000CF93DF937C01062FC72FFC011581129501
:101930001F70D281D1110E94EC140E94C51488231B
:1019400099F0DD2389F08C2F807F803421F080E2B4
:10195000800F883048F082E00E9464150E94C51410
:1019600091E0D82ED92601C0D12CCC2EC2948FE084
:10197000C8228C2D90E0FC01EA5AFF4F0C94091EFE
:101980008C2F807FCF70882311F0C295C07FDD231C
:1019900099F0CC2309F482C180E2800F883010F0E6
:1019A000011104C08C2F0E94CF1403C08C2F0E9401
:1019B000DF140E941A1572C1802F0E940A0CCC23DA
:1019C00009F491C180E2800F883010F0011104C049
:1019D0008C2F0E94D51403C08C2F0E94E5140E9406
:1019E0001A1581C18C2F807FCF70803211F0C29583
:1019F000C07F002319F00130C9F022C0DD2371F04F
:101A0000112341F0113031F40E94FF148C2B0E94FD
:101A1000071569C10E94FF148C2B1DC0112319F0FA
:101A2000113009F460C10E94101525C0DD2321F09A
:101A3000163008F058C10EC0153008F054C11BC054
:101A4000DD2361F0112331F0F701858180FF26C18C
:101A50008F7085838C2F0E947C0C45C1112359F017
:101A6000093309F02CC1FFEF27EE83E0F15020404D
:101A70008040E1F722C18C2F0E94830C34C18C2F4F
:101A800086958695837019F0813061F02CC1DD2335
:101A900021F0802F9C2F937002C080E090E00E9484
:101AA000520A29C1DD2321F0802F9C2F937002C0A0
:101AB00080E090E00E94680A1EC18C2F837009F0BC
:101AC00045C0D11114C1402F429546954770440F2F
:101AD000440F602F6F70862F90E0A0E0B0E0042EDE
:101AE00004C0880F991FAA1FBB1F0A94D2F704FFD6
:101AF00010C00FE010E020E030E004C0000F111F24
:101B0000221F331F4A95D2F70095109520953095E6
:101B100003C000E010E09801C695C695C370BC01F3
:101B2000CD01602B712B822B932BC23049F058F4DE
:101B3000C13019F00E940A13DAC00E94F812D7C00F
:101B40000E941C13D4C00E94F612D1C0DD2319F0EC
:101B50008C2F817001C08695882309F4C8C0402F5E
:101B6000429546954770440F440F602F6F70862F43
:101B700090E0A0E0B0E0042E04C0880F991FAA1FD7
:101B8000BB1F0A94D2F704FF10C00FE010E020E062
:101B900030E004C0000F111F221F331F4A95D2F7F7
:101BA000009510952095309503C000E010E0980155
:101BB000C695C695C370BC01CD01602B712B822BDD
:101BC000932BC23049F058F4C13019F00E94CF1362
:101BD0008EC00E94BD138BC00E94E11388C00E947A
:101BE000301385C0CF70DD2339F08C2F0E9456133F
:101BF000802F0E947C0C7BC0802F0E94830C8C2F36
:101C00000E94771374C0023F01F128F4003F41F0B5
:101C1000013FA1F03FC0033FF9F0043F39F13AC062
:101C2000DD2341F0153008F05EC08C2F8F710E94CB
:101C30009C1359C0163008F056C0F7CFDD2339F099
:101C40008C2F8F710E9456134EC0DD23C9F38C2F49
:101C50008F710E94771347C0DD2329F08C2F8F717D
:101C60000E94411340C00E943C133DC0DD2349F057
:101C7000CF718C2F0E94561363E08C2F0E944F155A
:101C800032C081E00E946415123068F182E00E9447
:101C9000641529C0DD2331F0112391F2802F0E94B9
:101CA000680B21C0112399F2093349F49FEFE7EE45
:101CB000F3E09150E040F040E1F700C00000802FD9
:101CC0000E940A0C10C04C2F4F70602FC7010E9459
:101CD000D8020E9467120FC04C2F4F70602FC701AF
:101CE0000E94DB0208C088EF8C0D843020F40E9433
:101CF0003B0A0E94CF02DD20C9F00E94C11480FD82
:101D000015C0F70112820E94BB140E945613C7012E
:101D10000E94B70E0E94BB14DF91CF911F910F91CB
:101D2000FF90EF90DF90CF900C947713DF91CF91DD
:101D30001F910F91FF90EF90DF90CF9008950F9338
:101D40001F93CF93DF93EC01688179818A810E9490
:101D500098148C010E94F3130E94E412B801CE0182
:101D60000E948A0CDF91CF911F910F910895CF931C
:101D7000DF93EC01988189812B813C81232B31F009
:101D80008F3F31F481E09F3F19F403C081E001C02F
:101D900080E080FD19C0CE010E948B0281110CC031
:101DA0000E94C514882381F08A81882369F082E02B
:101DB000DF91CF910C946415CE010E949F0ECE014D
:101DC000DF91CF910C946602DF91CF9108950E942C
:101DD000EC140E94FC140E941A1580E090E00E940E
:101DE000520A80E090E00C94680A80910901909179
:101DF0000A010E946A160C94E70E0E94DC140C94EF
:101E0000F50EE92FE295EF704E2F50E0FA01329770
:101E1000EE30F105B0F4EA59FF4F0C94091E803FF3
:101E200091F018F4883E68F40EC0843F51F40BC062
:101E3000883E48F0813F29F406C093FB882780F94B
:101E4000089580E0089581E008950E948D140E9415
:101E5000010F0895CF93DF9300D000D01F92CDB72C
:101E6000DEB70F900F900F900F900F90DF91CF91F2
:101E70000895CF93DF9300D000D000D0CDB7DEB768
:101E800026960FB6F894DEBF0FBECDBFDF91CF917F
:101E900008951F93CF93DF93C091A80116E080911E
:101EA000A901C81799F0D0E01C9FF0011D9FF00D0B
:101EB0001124E655FE4F40815181628173818481F6
:101EC00095810E94390F2196C770E9CFDF91CF919C
:101ED0001F9108954091DA015091DB016091DC017E
:101EE0007091DD018091DE019091DF010C94390F3A
:101EF0000F931F93CF93DF938091DF0182958F70B3
:101F000009F05DC08091DC01882309F458C08091FC
:101F1000A8011091A9016091DA017091DB01C091D3
:101F2000DD01D091DE0191E06F3F09F090E0292FB3
:101F300006E0811709F443C0209721F07F3F21F08C
:101F400030E003C031E001C0322F90E030FD34C0FA
:101F5000089FF001099FF00D1124DF01A655BE4F27
:101F600011963C911197371327C03C91361324C02A
:101F700012963C91129731111FC013964D915C91AE
:101F800014974C1B5D0B48375105B0F48091DF016D
:101F90008F7080618093DF01E155FE4F80818F70EB
:101FA000806180838AED91E00E94B70EDF91CF912E
:101FB0001F910F910C94490F01968770BACFDF9152
:101FC000CF911F910F9108959F92AF92BF92CF92A0
:101FD000DF92EF92FF920F931F93CF93DF93CDB7D2
:101FE000DEB761970FB6F894DEBF0FBECDBF8C0190
:101FF00085E0F801DE011D9601900D928A95E1F7CA
:10200000F80140815181E2809091DA016091DB0119
:102010002091DD013091DE012115310531F06F3F56
:1020200031F481E09F3F19F403C081E001C080E0FA
:10203000F82FF1709F2E80FD46C1F801A380B48077
:102040008AEDC82E81E0D82EF090DC01F501E21B6C
:10205000F30BFF2009F4DFC08091DF01E837F105C1
:1020600008F09BC0282F207F09F052C0561313C0E0
:10207000491311C0FE2CE1100EC08F708061809357
:10208000DF010E946A0FC6010E94B70E8091DF0136
:10209000F801858358C1AB2831F05F3F31F481E00E
:1020A0004F3F19F403C081E001C080E080FD03C010
:1020B00081E08E2502C080E090E0F82FF170FF2EC5
:1020C00080FF1CC08091A8012091A90136E08217F1
:1020D00009F417C190E0389FF001399FF00D1124E9
:1020E000E655FE4F6181561306C06081461303C05A
:1020F0006281E61203C001968770E9CFFE2CEE20C4
:1021000009F421C18091DF0181608093DF015AC011
:10211000561306C0491304C0E11002C0F8019FC065
:102120004D875E878D859E850E94250F882379F1D6
:10213000EE2069F12091DF01822F82958F7090E06F
:10214000029774F08091DA019091DB0198878F8378
:102150001986BB86AA862C87CE0107960E94B70EE9
:1021600086E0F801AAEDB1E001900D928A95E1F7C1
:102170000E94780F0E946A0F0DC0561729F14D87F3
:102180005E878D859E850E94250F81112CC0C80118
:102190000E94B70EFF24F394D6C0282F207F69F742
:1021A0007A2DB98AA88A6E2D89890E942A0F8AED14
:1021B00091E00E94B70E86E0F60111928A95E9F748
:1021C0000E946A0FF12CBFC04913D9CFE110D7CFBD
:1021D000F8018583C8010E94B70E86E0F6011192CE
:1021E0008A95E9F7B0C0EE2091F22091DF01822FAD
:1021F00082958F7090E002970CF4B2CF8091DA0153
:102200009091DB019A8389831B82BD82AC822E83ED
:10221000CE010196A3CFE837F10508F047C0FE2CA8
:10222000EE2009F4B4CF561330C049132EC02091CC
:10223000DF0120FD21C0822F82958F70482F50E052
:1022400041155105C9F0F80125834F30510541F082
:102250008F5F982F9295907F822F8F70892B858327
:10226000C8010E94B70E86E0F801AAEDB1E0019026
:102270000D928A95E1F742C086E0F801AAEDB1E03F
:1022800001900D928A95E1F75EC04D875E878D853E
:102290009E850E94250F811163CF8091DF018160AF
:1022A0008093DF01C8010E94B70E4DC07A2DB98A14
:1022B000A88A6E2D89890E942A0F86E0F601119264
:1022C0008A95E9F71BC0EE2009F461CF4D875E8740
:1022D0008D859E850E94250FF82E882309F457CFFF
:1022E00086E0F801AAEDB1E001900D928A95E1F740
:1022F0008AED91E00E94620B0E94780F0E946A0FA3
:1023000022C04D875E878D859E850E948D14292F62
:1023100022952F70223028F49F7039F0811105C06A
:102320000BC0243028F49F7049F4805E883020F080
:10233000C8010E94B70E9F2CF92C05C0F8019581A9
:10234000907F99F7F9CF8F2D61960FB6F894DEBF85
:102350000FBECDBFDF91CF911F910F91FF90EF90F6
:10236000DF90CF90BF90AF909F90089588E790E066
:1023700008951F93CF93DF93CDB7DEB72C970FB699
:10238000F894DEBF0FBECDBF4F83588769877A8729
:102390008B879C87CE0107960E94E40F8823D1F09B
:1023A0009F8188852A853B85232B31F08F3F31F42F
:1023B00081E09F3F19F403C081E001C080E080FD0F
:1023C00047C04F81588569857A858B859C850E9499
:1023D000390F3EC086E0FE013796DE01119601906E
:1023E0000D928A95E1F7FF81E8856A857B85611505
:1023F000710531F0EF3F31F481E0FF3F19F403C084
:1024000081E001C080E080FD23C02091A90130E07F
:10241000C9010196877099274091A80150E084175F
:102420009507F1F1F983EA837D836C8396E0929FAF
:10243000D001939FB00D1124A655BE4FFE013196D9
:1024400001900D929A95E1F78093A9010E94490F9E
:1024500016E08091A8019091A901891771F1189F48
:10246000C001112486559E4F0E94E40F882329F154
:10247000E091A8011E9FF0011124E655FE4F408116
:10248000518162817381848195810E94390F80918D
:10249000A80190E00196877099278093A801D9CF71
:1024A0000E94FD0E1092A9011092A801EAEDF1E040
:1024B00086E0DF011D928A95E9F72C960FB6F89415
:1024C000DEBF0FBECDBFDF91CF911F910895EF9278
:1024D000FF920F931F93CF93DF938C01892B09F405
:1024E0006CC0F12CEE24E394E8012196F80184916C
:1024F000843740F4843008F051C0813081F082305C
:1025000019F15BC0853709F444C0A8F19CE7980F26
:10251000903708F052C08F770E940A0C41C00E5FBE
:102520001F4FFE01849190E2980F983050F487700D
:10253000FE2D01C0FF0F8A95EAF78F2F0E94EF143E
:1025400014C00E94680B2DC00E5F1F4FFE018491C6
:1025500090E2980F983060F48770FE2D01C0FF0F55
:102560008A95EAF78F2F0E94F5140E941A1519C058
:102570000E940A0C16C00E5F1F4FFE01C491CC23AF
:1025800081F08FE99FE00197F1F700C00000C15092
:10259000F6CF0E5F1F4FFE01F49003C00E94680B40
:1025A0008E018F2D882309F49FCFEFE9FFE031974B
:1025B000F1F700C000008150F5CFDF91CF911F915E
:1025C0000F91FF90EF900895089508950C94E512EF
:1025D0000C94E6120E94E8126093070270930802BE
:1025E0008093090290930A020C94E70E0C94EA126D
:1025F0000F931F9300910702109108022091090286
:1026000030910A02602B712B822B932B1F910F911B
:102610000C94EA120F931F93009107021091080285
:102620002091090230910A026023712382239323AF
:102630001F910F910C94EA120F931F9300910702C0
:10264000109108022091090230910A026027712737
:10265000822793271F910F910C94EA120C94E51294
:102660000E942E136093030270930402809305026C
:10267000909306020C94E70E60E070E0CB010C949E
:1026800030130F931F9341E050E060E070E08A0147
:102690009B0104C0000F111F221F331F8A95D2F720
:1026A000C901B8011F910F910C9430130F931F9320
:1026B00041E050E060E070E004C0440F551F661F29
:1026C000771F8A95D2F78091030290910402A0911E
:1026D0000502B09106028A019B01082B192B2A2BB7
:1026E0003B2BC901B8011F910F910C9430130F932C
:1026F0001F9341E050E060E070E004C0440F551FBC
:10270000661F771F8A95D2F7409550956095709512
:102710008091030290910402A0910502B0910602FB
:102720008A019B01082319232A233B23C901B801ED
:102730001F910F910C9430130F931F9341E050E0C1
:1027400060E070E004C0440F551F661F771F8A9534
:10275000D2F78091030290910402A0910502B091FA
:1027600006028A019B01082719272A273B27C9014E
:10277000B8011F910F910C9430130F931F93009188
:102780000302109104022091050230910602602B91
:10279000712B822B932B1F910F910C9430130F935D
:1027A0001F930091030210910402209105023091C1
:1027B000060260237123822393231F910F910C94AF
:1027C00030130F931F930091030210910402209184
:1027D00005023091060260277127822793271F91F7
:1027E0000F910C943013089527E0929F800D1124CF
:1027F000E82FE695E695E695877051E001C0550F04
:102800008A95EAF785E0E89FF0011124E052FE4F37
:1028100020E030E070E04081CB01022E02C09695AE
:1028200087950A94E2F78170819584278523842710
:1028300081932F5F3F4F2530310569F7089527E0D9
:10284000929F800D1124682F669566956695982F46
:10285000977085E0689FB001112440E050E080E06F
:10286000FB01E40FF51FE052FE4F208130E0092EFE
:1028700002C0369527950A94E2F721703327042E7B
:1028800001C0220F0A94EAF7822B4F5F5F4F453059
:10289000510531F70895BF92CF92DF92EF92FF92E8
:1028A0000F931F93CF93DF938C01C0900302D090BE
:1028B0000402E0900502F0900602809107029091D8
:1028C0000802A0910902B0910A02C82AD92AEA2A6C
:1028D000FB2ACFE1D0E0D701C6010C2E04C0B6958B
:1028E000A795979587950A94D2F780FD04C0219704
:1028F00090F7B12C07C0BC2EB8018C2F0E94F702B4
:102900000197A9F38B2DDF91CF911F910F91FF902C
:10291000EF90DF90CF90BF900895CF93DF93EC01BD
:102920000E944B14BE010E94F702DF91CF910895DF
:102930001F93CF93DF93EB019091A701992321F08F
:10294000CB010E948D1413C0882349F0CB010E9453
:102950004B14182F682FCE010E94F41304C0CB0132
:102960000E941F14182FBE01812F0E94F702DF91D1
:10297000CF911F91089580910B028595859585953E
:10298000089580910B028770089590910B029770C3
:1029900081E009F480E008958091170208959091F4
:1029A0001702892B80931702089580959091170242
:1029B0008923809317020895109217020895909129
:1029C0001602892B80931602089580959091160225
:1029D000892380931602089510921602089590910B
:1029E0001502892B80931502089580959091150208
:1029F00089238093150208951092150208958091FD
:102A00000C02089508950C9402150C9403159091EE
:102A10000C02981721F080930C020C940515089570
:102A200080910C02882329F010920C0280E00C9413
:102A300005150895E0910901F0910A0180911702AE
:102A40008083E0910901F0910A0190818091160242
:102A5000892B8083E0910901F0910A019081809196
:102A60001502892B808380910C02882381F0E091EC
:102A70000901F0910A019081892B808380910901DD
:102A800090910A010E94241681110E9410158091D4
:102A9000090190910A010C94470A0C94021598E0E0
:102AA000899F90011124262B20930B020E9456131C
:102AB00080910B028595859585950C944D15109206
:102AC0000B0280E00C944D1520910B02809582231F
:102AD00080930B02982F977079F430E0482F082EDE
:102AE000000C550B2417350739F08595859585958C
:102AF0000E9477130C945F15089580E090E00E9487
:102B0000171E21E08C3E9E4F09F020E0822F089591
:102B100082E090E00C940F1E83E090E00C940F1E76
:102B2000CF9384E090E00E940F1EC82F81E290E0D6
:102B30000E940F1E2C2F30E0A901582BCA01CF9103
:102B40000895CF93C92F682F84E090E00E941D1E46
:102B50006C2F81E290E0CF910C941D1EAB01BC0163
:102B60008FE090E00C942F1EAB01BC0183E190E05C
:102B70000C942F1E60E070E0CB010C94B41560E063
:102B800070E0CB010E94AE150C94BA156CEE7EEF8E
:102B900080E090E00E943B1E60E082E090E00E94B6
:102BA0001D1E60E083E090E00E941D1E109207024F
:102BB000109208021092090210920A0260E084E06A
:102BC00090E00E941D1E60E081E290E00E941D1EC8
:102BD00060E085E090E00E941D1E60E086E090E0ED
:102BE0000E941D1E6FEF87E090E00E941D1E40E0D6
:102BF00050E0BA0188E090E00E942F1E60E08DE076
:102C000090E00E941D1E40E050E0BA0188E190E093
:102C10000E942F1E60E087E190E00E941D1E40E0B0
:102C200050E0BA018CE190E00E942F1E60E080E24B
:102C300090E00E941D1E0C94BF150C94C615682FC1
:102C40008EE090E00C941D1EFC01329697E080E02F
:102C5000915029F021912223D9F38F5FF9CF089564
:102C6000662349F0FC01329608962191621729F0FB
:102C7000E817F907D1F780E0089581E008959C01F5
:102C8000FC0132969FEF80E04191461789F09F3F0B
:102C900019F4411101C0982F8F5F8630A9F79F3F2B
:102CA00039F0F901E90FF11D97FDFA956283089556
:102CB00008959C012A5F3F4FFC014281461301C0E9
:102CC0001282019682179307B9F708950C943F1664
:102CD0000C945916029626E0FC0111922A95E9F708
:102CE000089508950C9471160C947116CF930E9458
:102CF00074160E9483050E947216C0E08C2F0E94F9
:102D0000E004811104C0CF5FC830C1F701C081E089
:102D1000CF9108950C9471160C948A160E948C160B
:102D200080914002843049F11092190220E488E138
:102D300090E00FB6F894A895809360000FBE2093A2
:102D4000600080E00E94CF020E948C1683B7817FD2
:102D5000846083BF83B7816083BF7894889583B78D
:102D60008E7F83BF0FB6F894A8958091600088612C
:102D700080936000109260000FBE08950C9471164D
:102D80000E94FD0E0E943B0A0E94CF020C94BE16C8
:102D90001F920F920FB60F9211248F939F93AF93B0
:102DA000BF9380911902811113C0809136029091D6
:102DB0003702A0913802B09139024196A11DB11D90
:102DC0008093360290933702A0933802B093390271
:102DD000BF91AF919F918F910F900FBE0F901F9059
:102DE000189582E084BD93E095BD9AEF97BD8093DE
:102DF0006E0008952FB7F8948091360290913702B3
:102E0000A0913802B09139022FBF08959C014FB7AD
:102E1000F8948091360290913702A0913802B091D7
:102E200039024FBF821B930B089578941F920F9223
:102E30000FB60F9211248F939F93AF93BF938091FE
:102E4000360290913702A0913802B0913902019672
:102E5000A11DB11D8093360290933702A0933802D2
:102E6000B0933902BF91AF919F918F910F900FBE98
:102E70000F901F90189587E797E79093010880932C
:102E800000089AE088E10FB6F894A8958093600056
:102E90000FBE90936000FFCF0E947D15811102C08C
:102EA0000E941D160E948815809318020E9490159A
:102EB00090933B0280933A020E948C15682F70E039
:102EC00080E090E00E94F61260910302709104028B
:102ED00080910502909106020C942E13809122029B
:102EE00008950895CF93DF9300D01F92CDB7DEB73A
:102EF00090914002943019F589837B836A8382E044
:102F00008093E9008FEF9091E800815095FD06C015
:102F100095ED9A95F1F700008111F5CF8091E800C9
:102F200085FF0DC040E050E063E070E0CE01019607
:102F30000E946B198091E8008E778093E8000F90D3
:102F40000F900F90DF91CF910895BC0184E00C9415
:102F50007217BC0183E00C947217CF93DF9321E0CA
:102F60002093E9002FEF3091E800215035FD06C095
:102F700035ED3A95F1F700002111F5CF2091E800E9
:102F800025FF14C0EC0140E050E068E070E00E94D2
:102F90006B198091E8008E778093E80088E0FE014D
:102FA000AAE1B2E001900D928A95E1F7DF91CF910D
:102FB000089580913F02811109C00E94FC1A0E946D
:102FC000591B8091E20084608093E2000895109282
:102FD0003F020895089508950C94C01642E061ECF4
:102FE00081E00E94751A42E261EC82E00C94751A4D
:102FF00080914202833009F460C030F4813071F076
:10300000823009F499C008958A3009F485C08B3064
:1030100009F46BC0893009F0A7C020C0809141023B
:10302000813A09F0A1C08091E800877F8093E80091
:103030008091450290914602892B21F468E08AE153
:1030400092E003C060E080E090E070E00E94B6197A
:103050008091E8008B778093E80008958091410289
:10306000813209F081C08091450290914602029719
:1030700008F07AC08091E800877F8093E800809113
:10308000E80082FD05C0809140028111F8CF6CC03C
:103090002091F3008091F20090E0922B029729F4A6
:1030A0008091F1008B7F813021F48091F100809339
:1030B00022028091E8008B7753C080914102813ACF
:1030C00009F052C08091450290914602892B09F087
:1030D0004BC08091E800877F8093E8008091E800F2
:1030E00080FFFCCF8091150136C080914102813272
:1030F000D9F58091450290914602892BA9F58091DE
:10310000E800877F8093E8000E94AA1A809143021A
:10311000809315010C94FD0E80914102813221F5BE
:103120008091E800877F8093E8000E94AA1A80912E
:10313000440280932302089580914102813AA1F4D0
:103140008091E800877F8093E8008091E80080FF0D
:10315000FCCF809123028093F1008091E8008E776C
:103160008093E8000C94AA1A089584B7877F84BFDF
:103170000FB6F894A89580916000886180936000F4
:10318000109260000FBE90E080E80FB6F894809334
:103190006100909361000FBE0E948E0A0E94FC1A8B
:1031A0000E94591B8091E20084608093E200789431
:1031B0000E94EE1D0E94960A8BE091E00E94360A62
:1031C00080914002853069F40E948E1680913E0203
:1031D0008823B1F30E947616882391F30E94551933
:1031E000EFCF0E949E0AECCF0C94F618292F3327BC
:1031F00023303105C9F060F42130310581F02230EF
:10320000310509F04AC08BE390E020EF32E049C07D
:103210002132310511F12232310579F13EC082E1CE
:1032200090E02BE233E03DC099278130910561F0B9
:1032300040F08230910559F0039779F5ECEBF2E01C
:1032400008C0ECEEF2E005C0EEEDF2E002C0E2EC08
:10325000F2E0849190E09F0124C06115710541F076
:1032600061307105D1F489E090E02BE133E019C0C1
:1032700089E090E022E033E014C06115710541F06F
:103280006130710551F482E390E02DE333E009C031
:1032900080E490E02FE633E004C080E090E020E09E
:1032A00030E0FA0131832083089580E189BD82E115
:1032B00089BD09B400FEFDCF8091D8008F7D809339
:1032C000D8008091E00082608093E0008091E0006F
:1032D00081FDFCCF0895CF92DF92EF92FF920F9382
:1032E0001F93CF93DF93EC018B017A010E94C91ADF
:1032F000811133C0E114F10439F0F701808191812B
:10330000081B190BC80FD91FC12CD12C0115110591
:1033100019F18091E80085FD16C08091E8008E7754
:103320008093E800E114F10449F0F7018081918174
:10333000C80ED91ED182C08285E00FC00E94C91A72
:10334000882321F30AC089918093F100015011096B
:10335000FFEFCF1ADF0ADACF80E0DF91CF911F9124
:103360000F91FF90EF90DF90CF900895209147024A
:10337000309148022617370748F06115710539F476
:103380002091E8002E772093E80001C0B901FC01EC
:1033900020E06115710579F1809140028823F1F1F7
:1033A0008530F1F18091E80083FD3CC08091E80018
:1033B00082FD2EC08091E80080FFEBCF2091F300CA
:1033C0008091F20090E0922B6115710551F08830E8
:1033D000910538F421912093F10061507109019613
:1033E000F3CF21E0089709F020E08091E8008E7784
:1033F0008093E800CECF2111CFCF0AC08091400248
:10340000882361F0853061F08091E80083FD0AC077
:103410008091E80082FFF2CF80E0089582E0089575
:1034200083E0089581E00895209147023091480299
:103430002617370748F06115710539F42091E80027
:103440002E772093E80001C0B901FC0120E061154E
:10345000710591F180914002882309F440C08530C4
:1034600009F43FC08091E80083FD3DC08091E800F1
:1034700082FD2FC08091E80080FFE9CF2091F3000A
:103480008091F20090E0922B6115710559F088301F
:10349000910540F424912093F10031966150710917
:1034A0000196F2CF21E0089709F020E08091E80032
:1034B0008E778093E800CBCF2111CCCF0AC08091CA
:1034C0004002882361F0853061F08091E80083FD3F
:1034D0000AC08091E80082FFF2CF80E0089582E088
:1034E000089583E0089581E00895982F973068F556
:1034F0009093E900981739F07091EC002091ED005D
:103500005091F00003C0242F762F50E021FD02C01F
:103510009F5FECCF3091EB003E7F3093EB0030911A
:10352000ED003D7F3093ED003091EB003160309342
:10353000EB007093EC002093ED005093F00020918D
:10354000EE0027FDE5CF80E008958F708093E900BD
:1035500081E008958091410287FF11C08091E800C9
:1035600082FD05C0809140028111F8CF11C0809189
:10357000E8008B770BC080914002882349F080914E
:10358000E80080FFF8CF8091E8008E778093E80014
:1035900008952091E4003091E50095E64091EC001B
:1035A000842F817040FF23C08091E80080FD1DC002
:1035B00080914002882399F0853099F08091EB004A
:1035C00085FD11C04091E4005091E50024173507B6
:1035D00029F3915011F09A01E1CF84E0089582E03F
:1035E000089583E0089581E0089580E00895409172
:1035F000E80042FFDDCF08950E946A1B0E94721B03
:10360000E0EEF0E0808181608083E8EDF0E0808191
:103610008F77808319BCA7EDB0E08C918E7F8C935F
:1036200080818F7E808310923F0208950F931F93B5
:10363000CF93DF930E946A1B0E94721BC8EDD0E0FB
:1036400088818F77888388818068888388818F7D4F
:10365000888319BC1092400210923C0210923E02E4
:1036600010923D0200EE10E0F80180818B7F808394
:1036700088818160888342E060E080E00E94751A62
:10368000E1EEF0E080818E7F8083E2EEF0E08081E9
:1036900081608083808188608083F80180818E7F53
:1036A0008083888180618883DF91CF911F910F9102
:1036B0000895E8EDF0E080818F7E8083E7EDF0E013
:1036C00080818160808384E082BF81E080933F02BB
:1036D0000C94161BE8EDF0E080818E7F80831092C1
:1036E000E20008951092DA001092E10008951F920E
:1036F0000F920FB60F9211242F933F934F935F9326
:103700006F937F938F939F93AF93BF93EF93FF93A9
:103710008091E10082FF0BC08091E20082FF07C030
:103720008091E1008B7F8093E1000E94ED1D8091EC
:10373000DA0080FF1FC08091D80080FF1BC08091FD
:10374000DA008E7F8093DA008091D90080FF0DC06F
:1037500080E189BD82E189BD09B400FEFDCF81E031
:10376000809340020E94D91705C019BC10924002F4
:103770000E94E7178091E10080FF19C08091E2006C
:1037800080FF15C08091E2008E7F8093E2008091DF
:10379000E20080618093E2008091D8008062809393
:1037A000D80019BC85E0809340020E94EB178091FD
:1037B000E10084FF30C08091E20084FF2CC080E1F2
:1037C00089BD82E189BD09B400FEFDCF8091D8009A
:1037D0008F7D8093D8008091E1008F7E8093E100FF
:1037E0008091E2008F7E8093E2008091E200816010
:1037F0008093E20080913C02882311F084E007C0AE
:103800008091E30087FD02C081E001C083E08093E6
:1038100040020E94EC178091E10083FF29C0809153
:10382000E20083FF25C08091E100877F8093E10063
:1038300082E08093400210923C028091E1008E7FF2
:103840008093E1008091E2008E7F8093E20080917E
:10385000E20080618093E20042E060E080E00E944C
:10386000751A8091F00088608093F0000E94EA173A
:10387000FF91EF91BF91AF919F918F917F916F9148
:103880005F914F913F912F910F900FBE0F901F901E
:1038900018951F920F920FB60F9211242F933F93FA
:1038A0004F935F936F937F938F939F93AF93BF9348
:1038B000CF93DF93EF93FF93C091E900CF70809196
:1038C000EC00D82FD17080FDD0E81092E9008091F3
:1038D000F000877F8093F00078940E948D1C1092F6
:1038E000E9008091F00088608093F000CD2BCF70CC
:1038F000C093E900FF91EF91DF91CF91BF91AF911C
:103900009F918F917F916F915F914F913F912F91F7
:103910000F900FBE0F901F9018951F93CF93DF93BA
:10392000CDB7DEB7AA970FB6F894DEBF0FBECDBFF6
:10393000E1E4F2E08091F100819322E0E934F207C2
:10394000C9F70E94F8178091E80083FF2EC180918B
:10395000410290914202492F50E04A30510508F04F
:1039600024C1FA01EC58FF4F0C94091E803821F055
:10397000823809F01AC108C080913D0290913E0240
:10398000992389F082600FC0809145028F70873043
:1039900008F00BC18093E9008091EB0085FB88273C
:1039A00080F91092E9009091E800977F9093E800E9
:1039B0008093F1001092F100D1C0282F2D7F09F0E3
:1039C000F4C0882319F0823061F0EFC08091430287
:1039D000813009F0EAC0933009F080E080933E0224
:1039E0002EC08091430281112AC0809145028F70C0
:1039F0002FEF280F263008F0D8C08093E9002091DF
:103A0000EB0020FF1CC0933021F48091EB0080621A
:103A100014C09091EB0090619093EB0021E030E0B6
:103A2000A90102C0440F551F8A95E2F74093EA00AE
:103A30001092EA008091EB0088608093EB00109276
:103A4000E9008091E800877F8093E8000E94AA1A2D
:103A5000ACC08111AAC0109143021F778091E3008E
:103A60008078812B8093E3008091E800877F8093AA
:103A7000E8000E94AA1A8091E80080FFFCCF8091A4
:103A8000E30080688093E300111102C082E001C06E
:103A900083E08093400289C08058823008F085C05E
:103AA00080914302909144028C3D53E0950779F553
:103AB00083E08A838AE289834FB7F894DE01139604
:103AC00020E03EE051E2E32FF0E050935700E49114
:103AD00020FF03C0E295EF703F5FEF708E2F90E004
:103AE000EA3010F0C79601C0C0968D939D932F5F6A
:103AF000243149F74FBF8091E800877F8093E80029
:103B00006AE270E0CE0101960E94B61916C060917B
:103B1000450270914602AE014F5F5F4F0E94F4185C
:103B2000BC01892B09F441C09091E800977F9093E4
:103B3000E80089819A810E94141A8091E8008B77AD
:103B40008093E80032C0803881F58091E800877F5B
:103B50008093E80080913C028093F1008091E8001E
:103B60008E7772CF811121C08091430290914402DF
:103B700099270297D4F48091E800877F8093E8002A
:103B80008091430280933C020E94AA1A80913C02D9
:103B9000811106C08091E30087FD02C081E001C071
:103BA00084E0809340020E94EE178091E80083FF3A
:103BB0000AC08091E800877F8093E8008091EB0045
:103BC00080628093EB00AA960FB6F894DEBF0FBE1A
:103BD000CDBFDF91CF911F9108950895CF9380912C
:103BE00040028823A1F0C091E900CF709091EC00D1
:103BF000892F817090FD80E8C82B1092E900809198
:103C0000E80083FD0E948D1CCF70C093E900CF9126
:103C10000895EE0FFF1F0590F491E02D0994F99996
:103C2000FECF92BD81BDF89A992780B50895A8E18D
:103C3000B0E042E050E00C94431E262FF999FECFED
:103C400092BD81BDF89A019700B4021639F01FBAEF
:103C500020BD0FB6F894FA9AF99A0FBE089503960C
:103C6000272F0E941E1E0E941D1E252F0E941E1E11
:103C7000242F0C941E1E0196272F0E941E1E0C94AA
:103C80001D1EDC01CB01FC01F999FECF06C0F2BD7F
:103C9000E1BDF89A319600B40D9241505040B8F70A
:063CA0000895F894FFCF27
:103CA600018D01008E01048E010D026E17AD177194
:103CB60017A917A51701E200E900EA00B500B6004A
:103CC600B700CD008301CC008A0192019401210244
:103CD600230224022502260227022A02B300B40088
:103CE6006F007000818283F4F5F6F731333297C6A0
:103CF600343500000000E200E900EA00B500B60035
:103D0600B700CD008301CC008A0192019401210203
:103D1600230224022502260227022A02B300B40047
:083D26006F0070008182830030
:00000001FF
