:100000000C94B0010C9439180C94CD010C94CD01D2
:100010000C94CD010C94CD010C94CD010C94CD0128
:100020000C94CD010C94CD010C94581D0C942C1EF5
:100030000C94B8160C94CD010C94CD010C94CD0108
:100040000C94CD010C94CD010C94CD010C94CD01F8
:100050000C94CD010C945B170C94CD010C94CD0144
:100060000C94CD010C94CD010C94CD010C94CD01D8
:100070000C94CD010C94CD010C94CD010C94CD01C8
:100080000C94CD010C94CD010C94CD010C94CD01B8
:100090000C94CD010C94CD010C94CD010C94CD01A8
:1000A0000C94CD010C94CD010C94CD012B001400C7
:1000B0001A000800150017002E00E00004001600CA
:1000C000070009000A002F00E1001D001B000600C8
:1000D00019000500E200825250002B01E3002900C4
:1000E0002C0021522D00130012000C0018001C00DF
:1000F0003100340033000F000E000D000B00300003
:10010000E500380037003600100011002A005200C8
:1001100051004F00E600E700280021522B001E028C
:100120001F022002210222022E02E0001E001F00F8
:100130002000210022002F02E100230024002500DE
:1001400026002700E200E00035023500E300290028
:100150002C0000003100270226022502240223027F
:100160003102340233024F0052005100500030027D
:10017000E500380235004B004E004A002A004B00D3
:100180004E004D000100E700280000003A003B004F
:100190003C003D003E003F000000E0000000000089
:1001A0000000000000002F00E1000000000000003F
:1001B0000000000000004052000000000000E300CA
:1001C00000000000450044004300420041004000A0
:1001D0000000340233024F00520051005000300042
:1001E000E5000000000000000000000000004D00DD
:1001F0004B004E004A00E700000000000100007CB8
:100200002078217824782378010001000100027809
:100210000678047803780100010001000100010064
:1002200001000100010001000100010001000100C6
:100230000100010001000100277828782578267840
:1002400001000100010001000100010001000100A6
:100250000100010001000100010001000100010096
:100260000100010001000100010001001C03450024
:10027000720067006F004400610073006800200096
:100280004D0069006E00690000000C034F006D0016
:100290006B006200640000000403090409023B00D3
:1002A000020100A0FA090400000103010100092174
:1002B000110100012244000705810308000109041F
:1002C0000100010300000009211101000122320098
:1002D000070582032000011201000200000008ED62
:1002E000FE606000010102000105010980A1018595
:1002F0000319012AB700150126B700950175108171
:1003000000C0050C0901A101850419012AA00215EC
:100310000126A002950175108100C005010906A102
:1003200001050719E029E7150025019508750181E8
:10033000029501750881010507190029FF1500269E
:10034000FF009506750881000508190129051500AB
:100350002501950575019102950175039101C00074
:1003600011241FBECFEFDAE0DEBFCDBF11E0A0E069
:10037000B1E0E6E9F1E402C005900D92A43AB107BC
:10038000D9F722E0A4EAB1E001C01D92A639B20774
:10039000E1F70E94D5130C948A200C94000084305D
:1003A000B8F46830A8F4473098F450E097E0699FBB
:1003B000400D511D1124FA0198E3899FE00DF11DB4
:1003C0001124EE0FFF1FE455FF4F8591949108957E
:1003D00081E090E008950E94CF01089581E00895A2
:1003E0000E94EE01089581E008950E94EE010895B3
:1003F0000E94F501089508950E94FB010895A6E06A
:10040000B0E0E5E0F2E00C94FA1F49835A839E8342
:100410003091AB0189819A8131111AC03E81332319
:1004200099F0222389F00E94D607182F682F89811E
:100430009A810E94B20769817A81812F0E94B50E4C
:100440002696E3E00C9416200E94C407182FF3CFE1
:100450000E94D60769817A81F1CFFC01262F408165
:10046000518162817381848195810E94FF01089589
:10047000CF93DF93EC0161E00E942D02BE010E9448
:10048000F001DF91CF910895CF93DF93EC0160E00D
:100490000E942D02BE010E94FC01DF91CF910895C0
:1004A00008950E9487060E9450022FEF84E39CE08B
:1004B000215080409040E1F700C0000008950E9464
:1004C00051020E947F1708950E9451020E949017C6
:1004D00008950F931F93CF93DF938C0161E00E94E7
:1004E0002D02EC01B8010E94F801811106C080E0E4
:1004F000DF91CF911F910F910895B801CE010E9415
:1005000069158823A1F3B801CE010E94FF13882347
:1005100071F3B801CE010E94DB14882341F3F80186
:100520008581882361F0C330FCE7DF07E9F058F4E8
:10053000C115ECE7DE07A9F0C130DC47B9F0C8010E
:100540000E94F301D5CFCB358CE7D807A9F0CC3585
:10055000ECE7DE0771F0CA35DC4789F70E940C0C26
:10056000EECF0E945F02C3CF0E94140C0E9464026F
:10057000BECF0E94020CE3CF0E94100CE0CF0E947D
:1005800095160E94E60208950E94EA020E949A16B9
:100590000895089581E008950895CF93DF93D82FAB
:1005A0000E94CA02C82F882319F08D2F0E94CC0206
:1005B0008C2FDF91CF9108950895CF93C82F0E947B
:1005C000C9028C2F0E94CD02CF91089580E00E9435
:1005D000DD0208950E94B2150E94DD020895CF93B6
:1005E0000E94B215C82F8091A6018C1779F0C09394
:1005F000A6010E9424176093A7017093A80180931D
:10060000A9019093AA018C2F0E94DD02CF91089539
:10061000ADE0B0E0EEE0F3E00C94FB1F48875987B3
:100620006A877B878C879D8791110E943A0B1F8276
:1006300086E0FE013896DE01119601900D928A95B2
:10064000E1F78D8181110DC029813A814B815C8157
:100650006D817E818F810E946D0A2D96E2E00C945F
:100660001720CE0101960E9438028111EDCFF5CFFF
:10067000FC012481213021F4808191810E940808AD
:100680000895CF93C82F8823C9F08238C9F40E94F7
:10069000C61581FD13C089E30E94F20A0E94730B04
:1006A0002FEF87EE93E0215080409040E1F700C0AB
:1006B000000089E30E94FA0A0E94730BCF9108950B
:1006C0008338A1F40E94C61580FDF8CF83E50E940F
:1006D000F20A0E94730B2FEF81EE94E021508040CC
:1006E0009040E1F700C0000083E5E4CF8438A1F436
:1006F0000E94C61582FDE2CF87E40E94F20A0E94A2
:10070000730B2FEF81EE94E0215080409040E1F791
:1007100000C0000087E4CECF8CEF8C0F813A90F4BC
:100720006C2F80910001909101010E943016882366
:1007300029F08C2F0E94FA0A0E94730B8C2F0E94C2
:10074000F20ABACF80E28C0F883048F4C77081E09B
:1007500001C0880FCA95EAF70E941D0BADCFEBE5EB
:10076000EC0FE33040F4F0E0E65AFE4F808190E079
:100770000E94D415A3CFC85ACB3108F09FCFEC2FDD
:10078000F0E0EE0FFF1FEC5DFE4F808191810E9433
:10079000F91594CF882309F44DC0823879F40E946A
:1007A000C61581FF47C089E30E94F20A0E94730BBD
:1007B00089E30E94FA0A0E94730B0895833859F462
:1007C0000E94C61580FF36C083E50E94F20A0E948F
:1007D000730B83E5EECF843859F40E94C61582FF6F
:1007E00029C087E40E94F20A0E94730B87E4E1CFDC
:1007F0009CEF980F913AE8F290E2980F983050F4FD
:10080000877091E001C0990F8A95EAF7892F0E94BD
:10081000230BD1CF9BE5980F933028F490E080E034
:100820000E94D4150895885A8B3120F490E080E01E
:100830000E94F91508951F93CF93DF93182FEB01B2
:100840000E944103209739F4812F0E94CA03DF914F
:10085000CF911F9108958FE99FE00197F1F700C0B4
:1008600000002197EFCF70E060E0893311F460E57C
:1008700070E00E941B040895882321F00E941D0B44
:100880000E94730B0895882321F00E94230B0E947D
:10089000730B0895B0E0A0E0E0E5F4E00C94F41FE1
:1008A0006C01D62FC72FFC011581068102950F70B0
:1008B0000E94130BE82E8823E9F0E12E1123D1F0DA
:1008C0008C2F807F803451F080E28D0F8830F8F0DB
:1008D000011104C08C2F807E8032C9F08091720299
:1008E00082FF15C082E00E94D60B0E94130B91E09C
:1008F000E82EE926BC2EB2949FE0B922FBE0FB155E
:10090000B8F1EB2DF0E0E457FF4D0C94E51FE12C1E
:10091000F1CF0C2F0F70C07F11F00295007F1123D3
:1009200099F0002359F080E28D0F883010F0D1113A
:1009300007C0802F0E941D0B0E94730B8D2F5AC081
:10094000802F0E942D0BF8CF8D2F0E94CA03002309
:1009500079F080E28D0F883010F0D11104C0802F23
:100960000E94230B03C0802F0E94330B0E94730B45
:10097000EB2DE850FF0B349720F40E94B2150E9433
:10098000DD02EE2089F00E940F0B80FD0DC0F60104
:1009900015820E94090B0E941007C6010E94520690
:1009A0000E94090B0E942007CDB7DEB7E9E00C9446
:1009B00010202C2F2F70F22EC07FC03219F0F2942D
:1009C00080EFF822DD2341F0D130D1F1112309F479
:1009D00044C00023F1F0B2CF8091720282FD15C0B5
:1009E000112359F0FF2029F08F2D0E941D0B0E942A
:1009F000730B80E00E944103BBCF80E00E94CA03DA
:100A0000FF2009F4B5CF8F2DABCF112369F0011171
:100A100004C08F2D0E943C04ABCF013009F0A8CF59
:100A20008F2D0E94510BA4CF0111A2CF8F2D0E94B8
:100A300043048F2D0E945D0B8F2D0E94410B98CF98
:100A4000112321F0063008F093CFE3CF053008F0F2
:100A50008FCF8F2D0E9443048BCF0023D1F3D93346
:100A600049F43FEF87EE93E0315080409040E1F74A
:100A700000C000008D2F0E94CA037ACF8C2F86956C
:100A80008695837069F0813009F072CF8D2F9C2F8D
:100A90009370111102C080E090E00E94F91568CFB8
:100AA0008D2F9C2F9370111102C080E090E00E9466
:100AB000D4155ECF8C2F8370A1F5111159CF4D2F16
:100AC000429546954770440F440F2D2F2F7030E00C
:100AD000042E02C0220F331F0A94E2F790E080E058
:100AE000D4FF09C08FE090E002C0880F991F4A959B
:100AF000E2F780959095C695C695C370822B932B8F
:100B0000C23049F058F4C13019F00E94E00630CFED
:100B10000E94D7062DCF0E94E9062ACF0E94D40654
:100B200027CF8695112311F08C2F8170882309F42B
:100B30001FCF4D2F429546954770440F440F2D2FE0
:100B40002F7030E0042E02C0220F331F0A94E2F708
:100B500090E080E0D4FF09C08FE090E002C0880FF1
:100B6000991F4A95E2F780959095C695C695C370F2
:100B7000822B932BC23049F058F4C13019F00E94F7
:100B80004B07F6CE0E944207F3CE0E945407F0CEE8
:100B90000E94F806EDCECF70112329F08C2F0E9411
:100BA00010078D2F37CF8D2F0E9443048C2F0E946A
:100BB0002007DECED23F41F160F4D03FB9F0D13F03
:100BC00081F0112309F446C00111B8CE8C2F8F712A
:100BD0001FC0D33F01F1D43FA1F78091720282FD83
:100BE00024C08C2F8F71112311F312C0112341F0F7
:100BF000053008F0BDCE8C2F8F710E943207B8CE21
:100C0000063008F0B5CEF7CF8C2F8F711111CFCFF2
:100C10000E941007ADCE112329F08C2F8F710E94F6
:100C20000407A6CE0E94FF06A3CE112349F0CF7180
:100C30008C2F0E94100763E08C2F0E94B80B98CE77
:100C400081E00E94D60B023008F492CE82E00E942E
:100C5000D60B8ECE002359F0D93309F00BCFEFEF2E
:100C6000F7EE23E0E150F0402040E1F701CF8C2F78
:100C70008F719DCF0F931F93CF93DF93EC0168810A
:100C800079818D810E9413088C010E945D070E946A
:100C9000D306B801CE010E944A04DF91CF911F9183
:100CA0000F910895CF93DF93EC018C81882399F005
:100CB000CE010E946902811111C00E94130B88238A
:100CC00051F08D81882339F08091720282FF03C038
:100CD00082E00E94D60BDF91CF910895CE010E9451
:100CE0003A06CE010E944402F6CF90E080E00E94D6
:100CF000D41590E080E00E94F9150E943A0B0E9402
:100D0000730B08950E94020B0E94750608950E94BD
:100D10002A0B0E948206089592959F70963091F05A
:100D200058F4925F9F70923058F4803F19F030F47D
:100D3000883E30F481E008959A5FF4CF843FD1F388
:100D400080E00895883EB0F3813FD1F7F3CFFC01F6
:100D50002481222339F0808191810E9408080E9419
:100D60008C06089580E00895A6E0B0E0EAEBF6E096
:100D70000C94FB1F2696E2E00C941720A7E0B0E04D
:100D8000E4ECF6E00C94FB1F2796E2E00C941720AD
:100D900008950E94C80608950E94C9069093CB0149
:100DA0008093CA01089508950E94CC060895209169
:100DB000CA013091CB01822B932B0E94CC0608955F
:100DC0002091CA013091CB01822393230E94CC064B
:100DD00008952091CA013091CB01822793270E9468
:100DE000CC0608950E94C80608950E94F206089550
:100DF0000E94F5069093C9018093C801089590E080
:100E000080E00E94F806089521E030E0A90102C0C8
:100E1000440F551F8A95E2F7CA010E94F80608950B
:100E200021E030E002C0220F331F8A95E2F7809163
:100E3000C8019091C901822B932B0E94F806089556
:100E400021E030E002C0220F331F8A95E2F720959F
:100E500030958091C8019091C901822393230E940B
:100E6000F806089521E030E002C0220F331F8A9572
:100E7000E2F78091C8019091C901822793270E94CF
:100E8000F80608952091C8013091C901822B932B57
:100E90000E94F80608952091C8013091C90182236B
:100EA00093230E94F80608952091C8013091C9014A
:100EB000822793270E94F80608950895262F277009
:100EC00091E001C0990F2A95EAF723E0769567959E
:100ED0002A95E1F7660F771F660F771FFA01E60F75
:100EE000F71F50E040E0682F70E08191DF0111971B
:100EF0009B01042E02C0369527950A94E2F72170D3
:100F000021952827292328272C934F5F5F4F4430B2
:100F1000510559F70895A82FA77023E09695879556
:100F20002A95E1F7880F991F880F991FFB01E80F99
:100F3000F91F50E040E080E0219130E00A2E02C02D
:100F4000369527950A94E2F721703327042E01C0C5
:100F5000220F0A94EAF7822B4F5F5F4F443051050E
:100F600059F70895262F983070F4873060F4682F71
:100F700070E087E0989F600D711D11244CEA51E0EC
:100F8000822F0E945E070895292F983068F48730D9
:100F900058F490E06CEA71E037E0239F800D911DDA
:100FA00011240E948B07089580E00895B0E0A0E02E
:100FB000ECEDF7E00C94F41F7C010091C801109156
:100FC000C9018091CA019091CB01082B192BCFE068
:100FD000D0E0CC24C394D12CBC2EC6010C2E02C070
:100FE000880F991F0A94E2F780239123892B49F4F3
:100FF000219790F7B12C8B2DCDB7DEB7E9E00C949B
:101000001020B7018C2F0E94C10E019789F3F3CFF6
:10101000CF93DF93EC010E94D607BE010E94C10E60
:10102000DF91CF9108951F93CF93DF93EB019091C0
:10103000AB01992339F0CB010E940808DF91CF91D1
:101040001F910895882369F0CB010E94D607182FBD
:10105000682FCE010E94B207BE01812F0E94C10EEF
:10106000EDCFCB010E94C407182FF6CF1F93CF936B
:10107000DF93C091CC0117E08091CD018C1304C0A7
:10108000DF91CF911F910895D0E01C9FF0011D9F2B
:10109000F00D1124E253FE4F2081318142815381B2
:1010A0006481758186810E94BE062196C770E4CF57
:1010B00020910602309107024091080250910902E6
:1010C00060910A0270910B0280910C020E94BE0690
:1010D0000895CF93DF9380910C02807F09F04DC07B
:1010E00080910B02882309F448C0E091CC01509113
:1010F000CD01C0910702D091060260910802709163
:10110000090247E05E17C9F18E2F90E0E49FF001DD
:101110001124E253FE4F2481222391F1489FF001D4
:10112000499FF00D1124DF01A253BE4F11962C915F
:1011300011972C1325C02C912D1322C015962C919C
:10114000159721111DC012962D913C91261B370B2E
:1011500028373105A8F480910C028F70806180934C
:101160000C02EC52FE4F80818F708061808386E09C
:1011700092E00E9452060E943608DF91CF910895B6
:10118000FC013196E770BECF482F2091CC019091A1
:10119000CD0157E0291302C080E0089530E0529F4E
:1011A000F001539FF00D1124E253FE4F818168132B
:1011B00006C08081481303C085818111EECF2F5F67
:1011C0003F4F2770E7CFA4E1B0E0E9EEF8E00C94E0
:1011D000F11F8C0186E0F801DE011F9601900D924F
:1011E0008A95E1F7F8018481E58096E0A92E92E0E6
:1011F000B92E90910A0291111FC08823D1F0EE20E0
:10120000A9F0C8010E94A706F82E882379F087E08C
:10121000F801D50101900D928A95E1F7C5010E9470
:1012200038030E9469080E9458085FC0C8010E94E4
:101230005206FF24F39459C0C080D18082809380ED
:10124000F0900B022091080230910902A401421B88
:10125000530BFF2009F4F9C04837510508F0A7C027
:10126000882309F442C09091070280910C02282F34
:10127000207F09F05CC09D1116C090910602C91232
:1012800012C0E1104EC08F70806180930C020E94EA
:10129000580886E092E00E94520680910C02F80104
:1012A0008683F12C22C0E1103CC06D2D8C2D0E9454
:1012B000C4086D2D8C2D0E94C408E82E8111F1CF39
:1012C000CF86D88A8F8598890E940808292F229571
:1012D0002F70243078F49F702230A8F09923B9F051
:1012E000F8019681907F99F4FE2C8F2D6496ECE0A6
:1012F0000C940D202A5F2F70223068F0C8010E94E4
:101300005206EF2CF1CF992311F0882369F3805E08
:10131000883050F3F3CF803F38F3815F833070F72C
:10132000E3CF80910C02816080930C02BACF9D11B3
:1013300013C090910602C9120FC0E1100DC0868340
:10134000C8010E94520687E0F801A6E0B2E00190D1
:101350000D928A95E1F767CFC8010E94A7068823FE
:1013600009F464CFEE2009F461CF80910C02803241
:1013700088F02091060230910702398728879B86E2
:101380008A8690910A029C871D868E87CE010896D8
:101390000E94520687E0F801A6E0B2E001900D92AB
:1013A0008A95E1F70E9469080E94580842CF9091FF
:1013B0000C02292F207FA1F4682D9A8A898AA60120
:1013C0007A899E2D0E94B40686E092E00E94520621
:1013D00087E0F50111928A95E9F70E94580861CFDC
:1013E000882309F482CF809107028D1110C080916B
:1013F0000602C8120CC0E1100AC09683C8010E9400
:10140000520687E0F50111928A95E9F76ECFC8017F
:101410000E94A706882309F409CFEE2009F406CF1D
:1014200080910C02803208F4B5CF209106023091F1
:1014300007023A8329839C828B8290910A029D83C2
:101440001E828F83CE010196A3CF48375105B8F590
:10145000882309F4EECEFE2CEE2009F4E7CE80912D
:1014600007028D111EC080910602C8121AC0809119
:101470000C0280FD0DC0982F907F51F08683903F25
:1014800009F45ECF982F907F905F8F70892B57CF94
:1014900087E0F801A6E0B2E001900D928A95E1F7AD
:1014A00024CFC8010E94A706811174CF80910C023D
:1014B000816080930C02C8010E94520616CF682DED
:1014C0009A8A898AA6017A899E2D0E94B40687E0AD
:1014D000F50111928A95E9F7A6CEAEE0B0E0E3E718
:1014E000FAE00C94FA1F288739874A875B876C8754
:1014F0007D878E87CE0108960E94E3088823B1F08D
:101500006C85662341F0288539854A855B857D8514
:101510008E850E94BE0617E08091CC019091CD018E
:1015200089133DC02E96E3E00C94162087E0FE015F
:101530003896DE01119601900D928A95E1F78C851F
:10154000882349F32091CD0130E0C90101968770CD
:1015500099274091CC014817190699F097E0929F7E
:10156000D001939FB00D1124A253BE4FFE013196BE
:1015700001900D929A95E1F78093CD010E94360873
:10158000CACF0E9487061092CD011092CC0187E04D
:10159000E6E0F2E0DF011D928A95E9F7BCCF819F7A
:1015A000C001112482539E4F0E94E308882309F44E
:1015B000B9CFE091CC011E9FF0011124E253FE4F00
:1015C00020813181428153816481758186810E94AD
:1015D000BE068091CC0190E0019687709927809398
:1015E000CC019ACF682F80910001909101010E9457
:1015F00066160895682F80910001909101010E9464
:101600006916089580910001909101010E946C1665
:101610000895809115028695869586950895809106
:1016200015028770089590911502977081E009F472
:1016300080E0089580912102089590912102892BE4
:101640008093210208958095909121029823909390
:101650002102089510922102089590912002892B71
:101660008093200208958095909120029823909372
:101670002002089510922002089508950E943D0BC3
:10168000089590911602292F282331F080958923FF
:10169000809316020E943E0B089508950E944D0B00
:1016A000089590911702292F2823281729F0982BA5
:1016B000909317020E944E0B089590911702292FC4
:1016C000282331F080958923809317020E944E0BC6
:1016D000089580911702882329F01092170280E064
:1016E0000E944E0B0895CF93DF93E0910001F0919B
:1016F0000101809121028083E0910001F0910101BC
:10170000808190912002892B8083909117029923E8
:1017100081F0E0910001F09101018081892B8083AB
:1017200080910001909101010E941E1681110E947A
:10173000690BC0910001D091010148E050E06DE0DB
:1017400072E0CE010E942220892B59F088E0FE0130
:10175000ADE0B2E001900D928A95E1F7CE010E94D2
:10176000C915DF91CF91089508950E94B40B089593
:101770009091720292FF11C098E0899F900111240C
:10178000622B609315020E941007809115028695C6
:10179000869586950E94B50B08950E9410070895BE
:1017A0001092150280E00E94B50B089590911502E9
:1017B0008095892380931502282F277069F4891753
:1017C00059F09091720292FF07C086958695869592
:1017D0000E9420070E94D00B08959091720292FB04
:1017E000222720F9281769F080FB92F99093720262
:1017F00080917102909172020E94350C82E00E94E9
:10180000D60B08958091720282FB882780F991E0BF
:1018100089270E94ED0B089581E00E94ED0B089549
:1018200080E00E94ED0B08956FEF7FEF90E080E085
:101830000E947420089590E080E00E94402021E002
:10184000863E9E4F09F020E0822F089582E090E0CE
:101850000E943820089583E090E00E943820089587
:1018600084E090E00E9440200895BC0184E090E074
:101870000E9474200895AB01BC018FE090E00E94AB
:1018800068200895AB01BC0183E190E00E946820CC
:10189000089560E070E0CB010E94420C089560E082
:1018A00070E0CB010E943B0C0E94490C0895A8E017
:1018B000B0E0EDE5FCE00C94FB1F66EE7EEF90E0FF
:1018C00080E00E94742060E082E090E00E94562058
:1018D00060E083E090E00E9456201092CB011092CD
:1018E000CA0160E074E184E090E00E94742060E04E
:1018F00086E090E00E9456206FEF87E090E00E9423
:10190000562040E050E0BA0188E090E00E94682054
:1019100060E084E290E00E94562060E087E190E081
:101920000E94562060E08CE090E00E94562060E02B
:101930008DE090E00E94562019821A821B821C8240
:101940001D821E821F82188648E050E068E170E028
:10195000CE0101960E94462040E050E0BA0180E2AC
:1019600090E00E9468200E944F0C2896E2E00C94C0
:1019700017200E94570C0895682F8EE090E00E9477
:1019800056200895A6E0B0E0E8ECFCE00C94F91FC6
:101990000E9418178C0180912202909123028017D7
:1019A000910781F019821A820E941817682F4981C5
:1019B0005A81792F80E090E00E940803109323025F
:1019C000009322022696E4E00C9415200E94DD0F7D
:1019D000609330027093310280933202909333020D
:1019E00060932C0270932D0280932E0290932F020D
:1019F0000895089508950E94F90C089508950E948D
:101A0000FE0C089581E0089587EF9FE00E94E213A5
:101A10000E94FA0C0E94FB0C08950E94C9110895BF
:101A2000089508950E94100D0E94110D08950E94BE
:101A3000FA0F0E94DC0208950E940F170E94B70F50
:101A40000E94E4110E942A110E94170D0E94E713C0
:101A50000E94EE110E94FF0C0895A6E0B0E0E3E3BF
:101A6000FDE00C94F21F0E94020D81110AC00E9439
:101A7000C20C0E94C9110E94EF022696EBE00C9462
:101A80000E200E944D1184E2A82E82E0B82E75012E
:101A900010E0F70101917F01812F0E9420101F5F4C
:101AA000183009F441C00817A1F38091340281FD78
:101AB0000E9426100E940D0DC82E10E099249394C8
:101AC000812F0E942010082FF50181915F010817D6
:101AD00029F1F12CEE24E394D02ED8268D2D8E21E1
:101AE000A9F0CC2099F0F9821A830E9418179C83E0
:101AF0008B839D8291E0802F8E2109F490E04981B3
:101B00005A816B817C818D810E940803F394EE0CD5
:101B1000F7E0FF12E3CFF501319700831F5F183024
:101B200079F60E94E60CA5CF0813BFCFA0CF1F9374
:101B3000CF93DF930E94C60EEC01C11580E5D80754
:101B4000F0F5C11580E4D80708F09CC0C03ED1056F
:101B500020F5CD3CD10508F082C0C83AD10578F413
:101B6000C53AD10508F073C0C130D10519F12097ED
:101B700009F1C430D105F0F4D0E0C0E01BC0C33C93
:101B8000D105D0F7C85AD0E0CC0FDD1FC35ADE4FC5
:101B90000990D881C02DD4640DC0C11580E2D8074A
:101BA00008F0D1C0C11581E0D80708F05AC0C83E7E
:101BB000D10510F7CE01DF91CF911F910895C03666
:101BC00082E5D80718F5C03482E5D80708F06BC065
:101BD000C03282E5D80708F05FC0C11582E5D8079A
:101BE00008F497C02C2F2695269580E2289F900117
:101BF00011248C2F8370C1E0D0E002C0CC0FDD1F18
:101C00008A95E2F7C22BD32BDD68D4CFC03A82E5A8
:101C1000D80760F4C03882E5D80708F459C0CF71FE
:101C2000D0E0DC2FCC27C46FD06AC4CFC03C82E5A3
:101C3000D80708F462C0C03E82E5D80708F09CCF00
:101C4000DC2FCC27CC27DF71C06FD06AB3CFC55A49
:101C5000D0E0CD56DE4FC881D0E0D064ABCFD065A8
:101C6000A9CF8D2F0E94680F182FCE0199270E94AF
:101C7000C60EC12FD0E0DC2FCC27CC27DF71C82BBC
:101C8000D92B98CFCE0199270E94C60ECC27DF70A2
:101C9000C82BD92BD06A8ECFCF71D0E0DC2FCC27C8
:101CA000C16FD06A87CF2C2F26952695277080E2AA
:101CB000289F900111248C2F8370C1E0D0E002C0D6
:101CC000CC0FDD1F8A95E2F7C22BD32BDC6872CFD5
:101CD0002C2F26952695277080E2289F90011124AD
:101CE0008C2F8370C1E0D0E002C0CC0FDD1F8A953D
:101CF000E2F7C22BD32BDA685DCF8C2F8F710E9455
:101D0000680FC82FD0E0DC2FCC27CC27DF71D06242
:101D100051CF8C2F8F710E94680F55E0D695C795D3
:101D20005A95E1F7CF70D0E0DC2FCC27282F30E098
:101D300084FF05C044E0220F331F4A95E1F7C22B10
:101D4000D32BD06937CF8D2F8F710E94680F182F3A
:101D5000CE0199270E94C60EC12FD0E0DC2FCC27E0
:101D6000CC27DF71C82BD92BD2CF462F783030F457
:101D7000673020F4672F0E94EB01089590E080E027
:101D800008950E94B50E0E94970D0895823891051E
:101D9000B9F1B0F48133910509F47DC048F489327A
:101DA000910509F46DC08A32910509F47BC008954C
:101DB0008533910509F45FC08933910509F10895D0
:101DC000833E9105D9F138F4803E910529F1823E98
:101DD000910579F10895863E9105D9F1873E9105E7
:101DE00009F43EC0843E910541F52091720221FF25
:101DF00024C08091710284FD19C087EE90E008959F
:101E000020917102237009F05AC02091720223FFC1
:101E100014C089E290E008952091710220FD38C03D
:101E20003091720230FF09C024FF43C090E080E08F
:101E300008952091710222FDF7CF0895209171023B
:101E400022FD3AC03091720230FD39C024FFF5CF37
:101E5000EDCF2091710223FFF0CF24FDE7CFCDCF4E
:101E60002091710223FD2EC03091720231FFEECF1E
:101E700084EE90E008952091710225FFDECFC9CF56
:101E80002091710225FD21C02091720223FFD5CF40
:101E900089E390E0D2CF2091710226FFCECF8AE273
:101EA00090E008952091710226FFC7CF81E390E072
:101EB000089583EE90E0089582EE90E0089580EE1C
:101EC00090E0089586EE90E0089585E390E008950F
:101ED0009091710292FF10C041E0282F24712430AC
:101EE00009F040E031E0282F2871283009F030E077
:101EF000431711F02CE0822793FF10C041E0282FF8
:101F00002471243109F040E031E0282F2871283174
:101F100009F030E0431711F02CE082273091720273
:101F200030FF10C051E0282F2171213009F050E01E
:101F300041E0282F2871283009F040E0541711F0B3
:101F400029E0822731FF10C041E0282F2171213183
:101F500009F040E031E0282F2871283109F030E005
:101F6000431711F029E0822794FD877E089510928F
:101F70006D0210926E0210926F021092700208951C
:101F8000CF92DF92EF92FF926B017C010E94C91108
:101F900081110EC00E942417C61AD70AE80AF90A4E
:101FA000C0926D02D0926E02E0926F02F0927002C7
:101FB000FF90EF90DF90CF9008950F931F930E94B2
:101FC000C911882329F00E9424171F910F910895A9
:101FD0000E94241700916D0210916E0220916F02F1
:101FE00030917002600F711F821F931FEECF80E04F
:101FF000089508950E941B0C811102C00E94B90C23
:102000000E94260C809334020E94300C909372023E
:10201000809371020E94F90F0E942B0C90E00E94A5
:10202000D4068091C8019091C9010E94F5060895D7
:1020300008950E941810089508950E941C10089594
:10204000E82FF0E0E458FD4F80810895089580EA7C
:102050008A95F1F7089500C008950E942710089509
:1020600008950E9430100895EF92FF921F93CF932E
:10207000DF9300D000D0CDB7DEB70E94C911182F72
:1020800060918402882309F447C019821A821B8256
:102090001C82862F90E09E012F5F3F4F7901B9018E
:1020A00084589D4F0E94FC118823E9F080917302AF
:1020B00090E044E050E0B70184589D4F0E942220F8
:1020C00021E020933502892BC9F410E00E941D10F5
:1020D000812F0F900F900F900F90DF91CF911F9154
:1020E000FF90EF90089580913502882371F384E08A
:1020F000F70111928A95E9F710923502E091730287
:10210000F0E0E458FD4F89819A81AB81BC818083E6
:102110009183A283B383DACF70E064587D4F8091BE
:10212000730290E084589D4F0E9483120E943110E8
:10213000CFCFF894E82FE295EF70F0E031A1282F8F
:102140002F7081E090E001C0880F2A95EAF7982F60
:102150009095932391A392A1892B82A378940895BB
:10216000CF93DF9387E90E94991086EC0E94991023
:1021700084E30E94991085E30E949910C6E9D1E09A
:1021800089918F3F11F00E94991081E0CD39D807D5
:10219000B9F7DF91CF910895B0E0A0E0E2EDF0E172
:1021A0000C94F51FEC01D62E062F10E0C8018356C3
:1021B0009E4F7C01FC0180818F3F09F444C0F8945C
:1021C000E82FE295EF70F0E091A18F7021E030E010
:1021D00001C0220F8A95EAF7892F822B81A382A161
:1021E0002095282322A378940E942B10E6E9F1E0A1
:1021F00031E0C12C21912F3F59F1A22FA295AF7050
:10220000B0E090968C9190E02F7002C095958795E4
:102210002A95E2F780FD1CC0832FC82A330F81E086
:10222000ED39F80739F7F70180818F3F11F00E94EF
:10223000991061E0C11001C060E08D2D0E942D1049
:10224000C00FD11FC882CDB7DEB7E8E00C941120D3
:1022500080E0E3CF809102018091020194E081113E
:1022600090E09093840284E0891B809373020E9423
:10227000B01088E0ECE7F2E0DF01982F1D929A950C
:10228000E9F7E4E7F2E0DF011D928A95E9F784E0DF
:102290000E948B110E9419100895A8E0B0E0E3E5B8
:1022A000F1E10C94F81F8E010F5F1F4F88E0F801D9
:1022B00011928A95E9F7F12C6F2DC8010E94CC107C
:1022C000F394F4E0FF12F8CF48E050E0B80184E75F
:1022D00092E00E94222021E0009709F420E0892B5F
:1022E00041F088E0F801A4E7B2E001900D928A95F0
:1022F000E1F76091840270E064587D4F44E084E728
:1023000092E00E948C11182F0E943410812B289685
:10231000E5E00C9414200895CF92DF92EF92FF92A3
:102320000F931F93CF936C017B01042F222349F05D
:1023300081E0809338020E941817909337028093AF
:102340003602C0913802C1110AC0C0E08C2FCF9173
:102350001F910F91FF90EF90DF90CF9008958091A3
:102360003602909137020E943017059770F310E003
:10237000A801B601C7010E942220892B41F0A801C3
:10238000B601C7010E942F2010923802DFCFC0E0B3
:10239000FBCF80913B02811107C00E94D81F882388
:1023A00051F081E080933B0281E090913B029130BB
:1023B00009F080E0089582E080933B020E94D31FE1
:1023C000F3CF0E94C91108950E94E1118093020188
:1023D0000E94C91181110E94321208950E94C911F0
:1023E000811102C00E943512089581E090913C0253
:1023F0009A3008F080E008950F931F93CF93DF93F6
:10240000EC018B0180913C028A30B8F4B801CE0116
:102410000E948012C82F811122C080913C028F3F00
:10242000B9F40E94181790933A02809339028C2FC6
:10243000DF91CF911F910F91089580913902909172
:102440003A020E943017843F914000F7C0E0EFCF7E
:102450008F5F80933C028A3020F7C1E0E8CF109272
:102460003C02E5CF0E94F31708950E94F6170895E5
:10247000B0E0A0E0EEE3F2E10C94F61F7901C82F82
:10248000880FDD0B41155105A9F0FE0193E0EE0F19
:10249000FF1F9A95E1F7ED5FFE4F81819281835C8A
:1024A0009D4F208130E04217530708F49A01A9019B
:1024B0000E942F20CE010E94DF18D82E8823D1F051
:1024C00001151105B9F083E0CC0FDD1F8A95E1F706
:1024D000FE01ED5FFE4F438150E00417150708F43D
:1024E000A801CD5FDE4F6C817D81635C7D4FC701AC
:1024F0000E942F208D2DCDB7DEB7E7E00C9412207F
:102500000E947A1308950E9491130895A4E0B0E008
:10251000ECE8F2E10C94F91F6091520270915302C1
:1025200080915402909155020E943F1711E0643649
:1025300071058105910518F10E94DD0F6E5F7F4FD7
:102540008F4F9F4F69837A838B839C8310E000E0D9
:1025500030E020E044E050E0BE016F5F7F4F82E05A
:102560000E943812182F882351F00E94241760937C
:102570005202709353028093540290935502812F1C
:102580002496E4E00C941520B0E0A0E0EAECF2E13F
:102590000C94F31F7C015B016A010E94F51101E0BC
:1025A00010E0882311F00AE010E0C1E0D0E0B501AE
:1025B000C701F6010995811104C021960C171D076A
:1025C0002CF4CDB7DEB7EAE00C940F20CC9F90013D
:1025D000CD9F300D300D112490E080E045E34A9509
:1025E000F1F70000019682179307C1F7E0CFA5E04D
:1025F000B0E0EDEFF2E10C94F31F5B01E090A1017C
:10260000F090A20101E010E09E012B5F3F4F50E0EF
:1026100040E070E060E080E00E943812182F8823CC
:1026200009F44BC067018FEFC81AD80A60914E02B7
:1026300070914F0280915002909151020E943F1779
:10264000643671058105910580F104E010E09E017A
:102650002F5F3F4F50E040E070E060E081E00E947B
:102660003812F82E64E070E0C6010E94E81311E011
:102670009D81981310E01F2159F10E942417609347
:102680004E0270934F0280935002909351028981C1
:102690009A81AB81BC8180934A0290934B02A093B4
:1026A0004C02B0934D0211E013C064E070E0C6012B
:1026B0000E94E8139D818913C8CFF701818192811F
:1026C000A381B48189839A83AB83BC831111DFCF4B
:1026D00080914A0290914B02A0914C02B0914D0220
:1026E000F50180839183A283B383812F2596EAE04D
:1026F0000C940F200F931F93CF93DF93EC018B016A
:1027000047EF52E10E94C412882331F046E852E1BB
:10271000B801CE010E94C412DF91CF911F910F9199
:1027200008950F931F93CF93DF93C091A101D09190
:10273000A201CE01019624E0FB01DC0101900D9283
:102740002A95E1F764E070E00E94E81388836D81C8
:102750007E818F81988500914602109147022091D9
:10276000480230914902601771078207930751F0C0
:102770006093460270934702809348029093490207
:102780000E94C00FDF91CF911F910F9108950E9479
:10279000A91A0E941C0D0E94B61A08950E94BB1A25
:1027A0000E942D0D0E94D51A08950E94B1160E9414
:1027B0008F1A0E94040D0E94C7130E94CE130E941C
:1027C000120DFBCF9093A5018093A4010895089565
:1027D000FC01680F791F8FEF91E3E617F70709F403
:1027E00008952191822728E030E087FF06C0880FF6
:1027F000892721503109C9F7F0CF880FFACFCF933D
:10280000DF93EC01FB018581882309F4D2C09E018E
:1028100030572332310508F0B2C00E94300C90933B
:10282000720280937102FE01E150F047E232F1053D
:1028300020F4E856FF4D0C94E51F809171028160F1
:102840008093710293C080917202886080937202BB
:102850008DC0809171028260F3CF8091710284609B
:10286000EFCF809171028860EBCF8091720281601E
:10287000EDCF809172028260E9CF80917102806118
:10288000DFCF809171028062DBCF80917102806422
:10289000D7CF0E948706809171028068D1CF809146
:1028A00071028C60CDCF809172028360CFCF809116
:1028B00071028E7FC5CF80917202877FC7CF8091D2
:1028C00071028D7FBDCF809171028B7FB9CF8091D6
:1028D0007102877FB5CF809172028E7FB7CF8091D2
:1028E00072028D7FB3CF809171028F7EA9CF8091CC
:1028F00071028F7DA5CF809171028F7BA1CF0E9445
:102900008706809171028F779BCF80917102837FC0
:1029100097CF809172028C7F99CF8091710282FB58
:10292000992790F921E0922790FB82F990FB83F997
:1029300087CF80917202982F909591708E7F892B0E
:1029400090FB81F983CF90917102892F8F7B96FF45
:10295000806476CF0E94870690917102892F97FB41
:1029600087F980586DCF81E00E94BC0C8091710284
:10297000909172020E94350C0E94870680E0DF91E0
:10298000CF91089580E0F0CF90917102892F8F7ED2
:1029900094FF806155CF90917102892F8E7F90FFB7
:1029A00081604ECF90917202892F877F93FF88605C
:1029B0004DCF81E0E4CFCF93DF93EB0186319C478D
:1029C00011F50E941A0B9D81992399F08A7A91E062
:1029D00009F490E090935602811109C089E20E94A7
:1029E000F20A0E94730B80E0DF91CF91089585E396
:1029F000F6CF80915602811104C089E20E94FA0A42
:102A0000F0CF85E3FBCF81E0EFCF0F931F93CF9300
:102A1000DF93C42FD22FFC0185818823C9F0409316
:102A200059020E941817909358028093570280E22F
:102A30008C0F883040F4C77081E001C0880FCA95C0
:102A4000EAF70E943C04DF91CF911F910F91089506
:102A500010915902141332C080915702909158027C
:102A60000E9430178837910548F5C0E2CD0F1D1739
:102A7000B9F080E2810F883040F4177081E001C026
:102A8000880F1A95EAF70E944304C83048F481E0A1
:102A90009D2F977001C0880F9A95EAF70E943C0419
:102AA000802F0E943304C83070F6D77081E001C0D7
:102AB000880FDA95EAF70E944304C5CF80E28C0FB5
:102AC000883008F6C77081E001C0880FCA95EAF720
:102AD000F2CF0F93DB0188519C4787309105A0F519
:102AE000FC01E654FF4D0C94E51F06E221EE41EE99
:102AF0006AE17CE7CD010E94051580E00F91089501
:102B000007E225EE45EE6BE17CE7F4CF06E221EE2D
:102B100040EE68E17CE7EECF07E225EE44EE69E1A6
:102B20007CE7E8CF06E221EE42EE6CE17CE7E2CF03
:102B300007E225EE46EE6DE17CE7DCCF08E221E01E
:102B400045EE6EE17CE7D6CF15968C91882319F07F
:102B500010925902D3CF81E0D1CF9093600280933D
:102B60005F0208950E94C911811103C080915A0229
:102B70000895E0915F02F0916002309729F0019092
:102B8000F081E02D0995089580E008950E94B21526
:102B90000895E0915F02F0916002309721F0028089
:102BA000F381E02D09950895A3E0B0E0EAEDF5E1A9
:102BB0000C94FB1F20915D0230915E0228173907AB
:102BC000A1F090935E0280935D02E0915F02F0912C
:102BD0006002309751F023E029839B838A8306802B
:102BE000F781E02DCE01019609952396E2E00C9441
:102BF0001720A3E0B0E0EFEFF5E10C94FB1F20916C
:102C00005B0230915C0228173907A1F090935C02B7
:102C100080935B02E0915F02F0916002309751F087
:102C200024E029839B838A830680F781E02DCE01EF
:102C3000019609952396E2E00C9417209C012E5FE3
:102C40003F4FAC01485F5F4F80E02417350709F420
:102C50000895F90191919F019923B9F38F5FF5CF01
:102C6000662349F0FC01329608962191261729F037
:102C7000E817F907D1F780E0089581E008959C01F5
:102C8000FC0132969FEF80E04191461751F09F3F43
:102C900019F4411101C0982F8F5F8630A9F79F3F2B
:102CA00009F40895290F311D97FD3A95F9016283C2
:102CB0000895FC01329608962191261303C0DF0186
:102CC00011971C92E817F907B9F708950E943F166B
:102CD00008950E9459160895029626E0FC0111926B
:102CE0002A95E9F7089508950E94731608958111B1
:102CF00006C081E0809361020E947416089582E00C
:102D0000F9CF83E0809361020E94741608950E94B7
:102D10007716089581E0809361020E9474160895E9
:102D20000E948A160895089508950E9494160895A1
:102D3000089508950E9493160895CF930E949816BF
:102D40000E944D110E949916C0E08C2F0E94201005
:102D5000811105C0CF5FC830C1F7CF91089581E0E0
:102D6000FCCF85B7806885BF85B7806885BF08952B
:102D70001F921FB61F9211248F939F93AF93BF93FF
:102D800080916202811113C0809185029091860228
:102D9000A0918702B09188024196A11DB11D809338
:102DA000850290938602A0938702B0938802BF9118
:102DB000AF919F918F911F901FBE1F90189580918A
:102DC0008D02843031F10E94BF021092620288E1CC
:102DD00090E020E40FB6F894A895809360000FBEB1
:102DE0002093600083B7817F846083BF83B7816055
:102DF00083BF7894889583B78E7F83BF0FB6F8948E
:102E0000A8958091600088618093600010926000B6
:102E10000FBE08950E9487060E94C402089582E0B2
:102E200084BD93E095BD9AEF97BD80936E000895A1
:102E30002FB7F8948091850290918602A091870225
:102E4000B09188022FBF08952FB7F8946091850242
:102E50007091860280918702909188022FBF089519
:102E60009C014FB7F8948091850290918602A091C1
:102E70008702B09188024FBF821B930B0895CF92B7
:102E8000DF92EF92FF922FB7F894C0908502D09016
:102E90008602E0908702F09088022FBFA70196017A
:102EA000261B370B480B590BCA01B901FF90EF9055
:102EB000DF90CF90089578941F921FB61F9211242F
:102EC0008F939F93AF93BF938091850290918602D9
:102ED000A0918702B09188020196A11DB11D809337
:102EE000850290938602A0938702B0938802BF91D7
:102EF000AF919F918F911F901FBE1F90189587E7EC
:102F000097E7909301088093000888E19AE00FB654
:102F1000F894A895809360000FBE90936000FFCF57
:102F200088E19AE00FB6F894A895809360000FBEF0
:102F300090936000FFCF8EE1489B02C08150E1F783
:102F4000489BFECF0895589880E28A95F1F7589AE9
:102F50000895FC013BE03A95F1F798E020E080E02D
:102F600031E040E14A95F1F7880F489B02C081604B
:102F7000232742E04A95F1F7000040E14A95F1F736
:102F8000915079F790E19A95F1F799B132E03A953D
:102F9000F1F7000040E14A95F1F791709227208106
:102FA000920F90830895A1E0B0E0E9EDF7E10C9471
:102FB000F71F19828C017C01E60EF11C0E151F050E
:102FC00041F481E09981911180E02196E6E00C9432
:102FD00013200E949B17CE0101960E94A917F801A9
:102FE00081938F01EBCF509A589A08955098589A30
:102FF000E89AE9E6F0E080818C7F80830895615053
:10300000770B91E001C0990F6A95EAF720E031E073
:10301000911108C0222391F0589A80E28A95F1F725
:1030200058980895492F482339F0589A232740E2A9
:103030004A95F1F79695ECCF5898F9CF5898EDCF7F
:10304000FF920F931F93CF93DF93EC018C01060F38
:10305000111DC017D10729F4CDB7DEB7E5E00C94F8
:103060001420F9900E94A31768E08F2D0E94FF178B
:10307000F0CF1F920F920FB60F9211240F931F9350
:103080002F933F934F935F936F937F938F939F9370
:10309000AF93BF93EF93FF93CF93DF930F92CDB78F
:1030A000DEB719820E949B17CE0101960E94A917D4
:1030B000082F069506950695282F22952570902FA6
:1030C0009570290F922F937026952695920F982729
:1030D00097708981982B09F05CC0043008F059C0C2
:1030E00080E18A95F1F7589A509A82E08A95F1F733
:1030F00000C0589888E0089F80011124D801AD5F76
:10310000BE4F1696ED91FC9117973097A9F06091FC
:10311000A1017091A20114962D913C911597260F53
:10312000371F11968D919C911297680F791F1396F6
:103130004C9113978C910995F801ED5FFE4F6381D7
:10314000662351F02091A1013091A20184819581E3
:10315000820F931F0E9420180E94A31780E18A9576
:10316000F1F758985098589A80E18A95F1F7F8014C
:10317000ED5FFE4F6081662351F02091A1013091F7
:10318000A20181819281820F931F0E94D3170E9416
:103190009B170F90DF91CF91FF91EF91BF91AF916E
:1031A0009F918F917F916F915F914F913F912F915F
:1031B0001F910F910F900FBE0F901F9018950F93B6
:1031C0001F93CF93DF93EC0104970CF04CC0F8945D
:1031D000509A589885E08A95F1F700009C2F9695B3
:1031E00095708C2F8570980F892F83709695969582
:1031F00023E0CC0FDD1F2A95E1F7980F8E01092BF4
:103200000E94A31700C068E0802F0E94FF1780E192
:103210008A95F1F75098589A489B1EC087E090E035
:1032200048991CC0FE01ED5FFE4F63816623F9F0F3
:103230002091A1013091A20184819581820F931F79
:103240000E94D317811113C0509A589A7894DF9135
:10325000CF911F910F91089500C0DECF019729F4FF
:10326000509A589A789480E0F2CF00C0D9CF0E944B
:103270009B1780E28A95F1F75898509A80E18A95D9
:10328000F1F7CD5FDE4F6881662351F02091A101F7
:103290003091A20189819A81820F931F0E94201888
:1032A0000E94A317789481E0D2CF80916B02089599
:1032B00008959B01BA0190918D029430E9F48F70CA
:1032C0008093E9009FEF8091E800915085FD06C052
:1032D00085ED8A95F1F700009111F5CF8091E80016
:1032E00085FF0AC050E040E0C9010E944C1B80915C
:1032F000E8008E778093E800089543E050E0BC0139
:1033000082E00E9459190895CF93DF93EC0148E0C1
:1033100050E0BC0181E00E94591988E0FE01A3E65B
:10332000B2E001900D928A95E1F7DF91CF91089577
:1033300080918C02811109C00E94DC1C0E94391D01
:103340008091E20084608093E200089510928C02E4
:1033500008950E948A1608956091890281E06111A2
:1033600001C080E00E948116089590918D0281E055
:10337000943009F080E0609189020E9487160895D8
:1033800042E061EC81E00E94581C42E261EC82E084
:103390000E94581C90918D0281E0943009F080E0E9
:1033A000609189020E947716089580918F02833080
:1033B00009F461C030F48130D1F1823009F49EC04B
:1033C00008958A3009F48AC08B3009F46FC08930BF
:1033D00009F050C080918E02813209F04BC080917B
:1033E000920290919302029708F044C08091E80005
:1033F000877F8093E8008091E80082FF37C090913A
:10340000F3008091F200029731F48091F100813055
:1034100011F0863021F48091F10080936B0280914D
:10342000E8008B778093E8000E948C1C23C0809179
:103430008E02813AF9F48091E800877F8093E8005A
:103440008091920290919302892B61F468E083E667
:1034500092E070E00E949B1B8091E8008B77809344
:10346000E800089560E090E080E0F3CF80918D0265
:103470008111C1CF089580918E02813AD9F7809150
:10348000920290919302892BA9F78091E800877F9F
:103490008093E8008091E80080FFFCCF80912301B9
:1034A0008093F1008091E8008E77BCCF80918E02EE
:1034B000813201F78091920290919302892BD1F68B
:1034C0008091E800877F8093E8000E948C1C8091A7
:1034D0009002809323010E948706089580918E02B6
:1034E000813241F68091E800877F8093E8000E9456
:1034F0008C1C8091910280936C02089580918E02C1
:10350000813A09F0B7CF8091E800877F8093E80087
:103510008091E80080FFFCCF80916C02C1CF84B71E
:10352000877F84BF0FB6F894A8958091600088616A
:1035300080936000109260000FBE80E890E00FB6AC
:10354000F89480936100909361000FBE0E949016E2
:1035500008950E94DC1C0E94391DE2EEF0E080819B
:103560008460808378940E94B81F08958BE191E075
:103570000E94AD15089580918D02853031F48091BF
:103580008D02853019F00E940A1708950E94DF16F7
:1035900080918B02882399F30E949D16882379F3EA
:1035A0000E94361B0E948706EACF08959A01409137
:1035B0009402509195020E94DE1A0895492F5527D2
:1035C0004330510519F168F44130510509F444C004
:1035D0004230510509F445C090E080E050E040E001
:1035E00025C04132510549F142325105A9F784E421
:1035F00090E04BE153E061157105C1F082E390E08A
:1036000049EE52E06130710589F0E6CF99278130AB
:10361000910581F0009729F00297F1F6ECE6F2E0CF
:1036200002C0E8E9F2E0849190E0AF01F901518332
:1036300040830895EAE8F2E0F6CF89E090E04EEAB0
:1036400052E06115710591F389E090E047EC52E09A
:103650006130710559F3C0CF82E190E047ED52E04F
:10366000E5CF8BE390E04CE952E0E0CF80E189BD0B
:1036700082E189BD09B400FEFDCF8091D8008F7D25
:103680008093D8008091E00082608093E000809178
:10369000E00081FDFCCF0895AF92BF92CF92DF9200
:1036A000FF920F931F93CF93DF936C01EB018A017D
:1036B0000E94AB1CF82E811123C00115110539F0B1
:1036C000F80180819181C81BD90BC80ED91EB12C7D
:1036D000A12C2097A9F08091E80085FD22C080915F
:1036E000E8008E778093E80001151105A1F0F8013C
:1036F00080819181A80EB91EB182A08285E0F82E4A
:103700008F2DDF91CF911F910F91FF90DF90CF9080
:10371000BF90AF9008950E94AB1C8823D1F2F82E81
:10372000EFCFF60181916F018093F1002197FFEFB8
:10373000AF1ABF0ACECFFC018091940290919502FE
:1037400086179707A0F06115710529F49091E8009C
:103750009E779093E80090E06115710551F4911106
:1037600008C08091E80082FF34C080E00895BC0169
:10377000F2CF80918D028823C1F18530C1F1809113
:10378000E80083FD30C08091E80082FDEACF80919F
:10379000E80080FFE1CF8091F3002091F200382F04
:1037A0006115710519F02830310558F091E0283085
:1037B000310509F090E02091E8002E772093E80091
:1037C000CBCF81918093F100615071092F5F3F4F02
:1037D000E7CF80918D02882341F0853041F08091C0
:1037E000E80083FFBECF81E0089582E0089583E082
:1037F0000895FC0180919402909195028617970795
:10380000A0F06115710529F48091E8008E7780930E
:10381000E80090E06115710551F4911108C08091A4
:10382000E80082FF35C080E00895BC01F2CF8091AE
:103830008D028823C9F18530C9F18091E80083FDAC
:1038400031C08091E80082FDEACF8091E80080FFDE
:10385000E1CF8091F3002091F200382F61157105BE
:1038600019F02830310558F091E02830310509F081
:1038700090E08091E8008E778093E800CBCF849130
:103880008093F1003196615071092F5F3F4FE6CF71
:1038900080918D02882341F0853041F08091E800CD
:1038A00083FFBDCF81E0089582E0089583E008950D
:1038B000982F973028F08F708093E90081E0089569
:1038C0009093E900242F762F50E0981731F07091F3
:1038D000EC002091ED005091F00021FD02C09F5FAF
:1038E000E8CF3091EB003E7F3093EB003091ED005C
:1038F0003D7F3093ED003091EB0031603093EB0071
:103900007093EC002093ED005093F0002091EE00B6
:1039100027FDE5CF80E0089580918E0287FF13C0D8
:103920008091E80082FF06C08091E8008B77809349
:10393000E80004C080918D028111F2CF089580913A
:103940008D028823D9F38091E80080FFF8CF809121
:10395000E8008E77ECCF2091E4003091E50095E609
:10396000A9012091EC00822F817020FF06C0809178
:10397000E80080FF06C080E008952091E80022FD65
:103980001AC080918D02882389F0853089F080915A
:10399000EB0085FD0FC02091E4003091E500421757
:1039A0005307F9F29150E1F684E0089582E008951A
:1039B00083E0089581E008950E944B1D0E94531DED
:1039C000E0EEF0E0808181608083E8EDF0E08081CE
:1039D0008F77808319BCA7EDB0E08C918E7F8C939C
:1039E00080818F7E808310928C0208950F931F93A5
:1039F000CF93DF930E944B1D0E94531DC8EDD0E072
:103A000088818F77888388818068888388818F7D8B
:103A1000888319BC10928D021092890210928B0239
:103A200010928A0200EE10E0F80180818B7F808383
:103A300088818160888342E060E080E00E94581CB9
:103A4000E1EEF0E080818E7F8083E2EEF0E0808125
:103A500081608083808188608083F80180818E7F8F
:103A60008083888180618883DF91CF911F910F913E
:103A70000895E8EDF0E080818F7E8083E7EDF0E04F
:103A800080818160808384E082BF81E080938C02AA
:103A90000E94F61C0895E8EDF0E080818E7F80831F
:103AA0001092E20008951092DA001092E100089559
:103AB0001F920F920FB60F9211242F933F934F93A3
:103AC0005F936F937F938F939F93AF93BF93EF9386
:103AD000FF938091E10082FF0BC08091E20082FFA2
:103AE00007C08091E1008B7F8093E1000E94B71FA7
:103AF0008091DA0080FF19C08091D80080FF15C046
:103B00008091DA008E7F8093DA008091D90080FF67
:103B100096C080E189BD82E189BD09B400FEFDCF78
:103B200081E080938D020E9498198091E10080FFCE
:103B300019C08091E20080FF15C08091E2008E7F65
:103B40008093E2008091E20080618093E2008091A6
:103B5000D80080628093D80019BC85E080938D02E4
:103B60000E94AC198091E10084FF2BC08091E2009B
:103B700084FF27C080E189BD82E189BD89B5982F86
:103B8000917080FFFBCF8091D8008F7D8093D8000B
:103B90008091E1008F7E8093E1008091E2008F7E32
:103BA0008093E2008091E20081608093E200809146
:103BB0008902882309F449C084E080938D020E9421
:103BC000B5198091E10083FF29C08091E20083FF55
:103BD00025C08091E100877F8093E10082E080939F
:103BE0008D02109289028091E1008E7F8093E10026
:103BF0008091E2008E7F8093E2008091E2008061FC
:103C00008093E20042E060E080E00E94581C8091D6
:103C1000F00088608093F0000E94A919FF91EF9155
:103C2000BF91AF919F918F917F916F915F914F91D4
:103C30003F912F910F900FBE0F901F90189519BCB8
:103C400010928D020E94A61970CF8091E30087FD2B
:103C500093E090938D02B3CF1F920F920FB60F9205
:103C600011242F933F934F935F936F937F938F9381
:103C70009F93AF93BF93CF93DF93EF93FF93D09135
:103C8000E900DF708091EC00C82FC17080FDC0E8B2
:103C90001092E9008091F000877F8093F000789483
:103CA0000E94701E1092E9008091F000886080935D
:103CB000F000CD2BCF70C093E900FF91EF91DF9121
:103CC000CF91BF91AF919F918F917F916F915F91B4
:103CD0004F913F912F910F900FBE0F901F9018950D
:103CE000AAE2B0E0E6E7FEE10C94FA1F8EE892E06B
:103CF0002091F100FC012193CF01F2E086399F076A
:103D0000B9F70E94D5198091E80083FF1EC1809108
:103D10008E0290918F029A3008F017C1E92FF0E0DF
:103D2000EF53FF4D0C94E51F803899F0823809F06D
:103D30000CC1809192028F70873008F006C1809389
:103D4000E9008091EB0085FB882780F91092E9005B
:103D500006C080918A0290918B02911182609091AD
:103D6000E800977F9093E8008093F1001092F100B3
:103D70008091E8008E77E5C0882309F4D3C08230B3
:103D800009F0E3C0809190028111D6C08091920227
:103D90008F702FEF280F263008F0D7C08093E900EE
:103DA0002091EB0020FFC8C0933031F48091EB00EC
:103DB00080628093EB00C0C09091EB009061909383
:103DC000EB0021E030E001C0220F8A95EAF7209352
:103DD000EA001092EA008091EB008860EACF81113E
:103DE000B4C0109190021F778091E3008078812BFE
:103DF0008093E3008091E800877F8093E8000E9431
:103E00008C1C8091E80080FFFCCF8091E3008068EB
:103E10008093E30082E0111183E080938D0295C0CE
:103E20008058823008F091C0809190029091910268
:103E30008C3D23E09207A1F583E08A838AE289839F
:103E40004FB7F894DE01139620E03EE051E2E32FF5
:103E5000F0E050935700E49120FF03C0E295EF702B
:103E60003F5FEF708E2F90E0EA30C0F0C7968D93E1
:103E70009D932F5F243159F74FBF8091E800877FD2
:103E80008093E8006AE270E0CE0101960E949B1BDD
:103E90008091E8008B778093E80057C0C096E7CF09
:103EA0006091920270919302AE014F5F5F4F0E944A
:103EB000D61ABC01892B09F448C09091E800977F7D
:103EC0009093E80089819A810E94F91BE1CF8038A4
:103ED000E1F58091E800877F8093E8008091890276
:103EE0008093F10045CF811130C0909190029230C3
:103EF00060F58091E800877F8093E80090938902C5
:103F00000E948C1C80918902882311F084E005C0F6
:103F10008091E30087FDFACF81E080938D020E94BB
:103F2000C01913C080919002813079F481E0933000
:103F300009F080E080938B021092E9008091E80004
:103F4000877F8093E8000E948C1C8091E80083FFAB
:103F50000AC08091E800877F8093E8008091EB00A1
:103F600080628093EB00AA96E3E00C9416200895FB
:103F7000CF9380918D028823A1F0C091E900CF708A
:103F80009091EC00892F817090FD80E8C82B1092F1
:103F9000E9008091E80083FD0E94701ECF70C093FD
:103FA000E900CF9108950E94DC1C10928D020895C3
:103FB000E8EDF0E08081806180838AE18A95F1F705
:103FC00000C08091D90081700895EE0FFF1F059009
:103FD000F491E02D09942F923F924F925F926F924D
:103FE0007F928F929F92AF92BF92CF92DF92EF9289
:103FF000FF920F931F93CF93DF93CDB7DEB7CA1B0A
:10400000DB0B0FB6F894DEBF0FBECDBF09942A8834
:10401000398848885F846E847D848C849B84AA84DC
:10402000B984C884DF80EE80FD800C811B81AA8169
:10403000B981CE0FD11D0FB6F894DEBF0FBECDBF34
:10404000ED010895FB01DC0104C08D910190801900
:1040500021F441505040C8F7881B990B0895FB018B
:10406000DC0102C001900D9241505040D8F70895F4
:10407000F999FECF92BD81BDF89A992780B5089530
:10408000A8E1B0E042E050E00C947C20DC01A40FF9
:10409000B51F4150504048F0CB01840F951F2E9121
:1040A0000E94572041505040D0F70895262FF9998B
:1040B000FECF92BD81BDF89A019700B4021639F087
:1040C0001FBA20BD0FB6F894FA9AF99A0FBE089558
:1040D0000396272F0E9457200E945620252F0E94CA
:1040E0005720242F0C9457200196272F0E945720E9
:1040F0000C945620DC01CB01FC01F999FECF06C0DF
:10410000F2BDE1BDF89A319600B40D924150504095
:10411000B8F70895F894FFCF89048904D904D90425
:104120003E05B804B804B8045A05CB05DA05DA052B
:104130005714CB145F1429142D146314311467140D
:1041400073143D14C4144114771445147B14A31440
:1041500049147F14AA144F1485148D1435146B144C
:1041600039146F14531489149914B314C2142314FA
:104170005B14D21486158C1575158015921598153B
:104180009E15941EBC1EA51FBC1EA51FEF1E101F52
:06419000A51F671F731F4D
:1041960018020100000001000000000000000401F8
:1041A600000000040500000000000055198419589D
:1041B600197D1901E200E900EA00B500B600B70072
:1041C600CD008301CC008A019201940121022302D1
:1041D60024022502260227022A02B300B4006F0039
:1041E60070009F01CB019F02A002818283E200E959
:1041F60000EA00B500B600B700CD008301CC008A06
:10420600019201940121022302240225022602279B
:10421600022A02B300B4006F0070009F01CB019F19
:1042260002A002818283F4F5F6F731333297C63461
:04423600353D020010
:00000001FF
